{
	"MultiSigWallet.sol": {
		"MultiSigWallet": {
			"abi": [
				{
					"inputs": [
						{
							"internalType": "address payable[]",
							"name": "_walletGroupOwners",
							"type": "address[]"
						}
					],
					"stateMutability": "nonpayable",
					"type": "constructor"
				},
				{
					"anonymous": false,
					"inputs": [
						{
							"indexed": true,
							"internalType": "address",
							"name": "initiator",
							"type": "address"
						},
						{
							"indexed": false,
							"internalType": "string",
							"name": "message",
							"type": "string"
						}
					],
					"name": "ApproveTransaction",
					"type": "event"
				},
				{
					"anonymous": false,
					"inputs": [
						{
							"indexed": true,
							"internalType": "address",
							"name": "initiator",
							"type": "address"
						},
						{
							"indexed": false,
							"internalType": "string",
							"name": "message",
							"type": "string"
						}
					],
					"name": "ExecuteTransaction",
					"type": "event"
				},
				{
					"anonymous": false,
					"inputs": [
						{
							"indexed": true,
							"internalType": "address",
							"name": "initiator",
							"type": "address"
						},
						{
							"indexed": false,
							"internalType": "string",
							"name": "message",
							"type": "string"
						}
					],
					"name": "RejectTransaction",
					"type": "event"
				},
				{
					"inputs": [],
					"name": "approvalCount",
					"outputs": [
						{
							"internalType": "uint256",
							"name": "",
							"type": "uint256"
						}
					],
					"stateMutability": "view",
					"type": "function"
				},
				{
					"inputs": [],
					"name": "approvalOfSubmittedTxn",
					"outputs": [],
					"stateMutability": "nonpayable",
					"type": "function"
				},
				{
					"inputs": [],
					"name": "getContractBalance",
					"outputs": [
						{
							"internalType": "uint256",
							"name": "_contractBalance",
							"type": "uint256"
						}
					],
					"stateMutability": "view",
					"type": "function"
				},
				{
					"inputs": [
						{
							"internalType": "address",
							"name": "",
							"type": "address"
						}
					],
					"name": "isOwner",
					"outputs": [
						{
							"internalType": "bool",
							"name": "",
							"type": "bool"
						}
					],
					"stateMutability": "view",
					"type": "function"
				},
				{
					"inputs": [
						{
							"internalType": "address",
							"name": "",
							"type": "address"
						},
						{
							"internalType": "uint256",
							"name": "",
							"type": "uint256"
						}
					],
					"name": "memberApprovalStatus",
					"outputs": [
						{
							"internalType": "enum MultiSigWallet.TransactionStatus",
							"name": "",
							"type": "uint8"
						}
					],
					"stateMutability": "view",
					"type": "function"
				},
				{
					"inputs": [],
					"name": "pendingTransaction",
					"outputs": [
						{
							"internalType": "address payable",
							"name": "",
							"type": "address"
						}
					],
					"stateMutability": "view",
					"type": "function"
				},
				{
					"inputs": [],
					"name": "rejectedTransaction",
					"outputs": [],
					"stateMutability": "nonpayable",
					"type": "function"
				},
				{
					"inputs": [],
					"name": "statusOfTxn",
					"outputs": [
						{
							"internalType": "enum MultiSigWallet.TransactionStatus",
							"name": "",
							"type": "uint8"
						}
					],
					"stateMutability": "view",
					"type": "function"
				},
				{
					"inputs": [
						{
							"internalType": "address payable",
							"name": "_receiver",
							"type": "address"
						},
						{
							"internalType": "uint256",
							"name": "_amount",
							"type": "uint256"
						}
					],
					"name": "sumbitTransaction",
					"outputs": [],
					"stateMutability": "nonpayable",
					"type": "function"
				},
				{
					"inputs": [
						{
							"internalType": "uint256",
							"name": "",
							"type": "uint256"
						}
					],
					"name": "walletGroupOwners",
					"outputs": [
						{
							"internalType": "address payable",
							"name": "",
							"type": "address"
						}
					],
					"stateMutability": "view",
					"type": "function"
				}
			],
			"devdoc": {
				"kind": "dev",
				"methods": {},
				"version": 1
			},
			"evm": {
				"assembly": "    /* \"MultiSigWallet.sol\":61:4301  contract MultiSigWallet {... */\n  mstore(0x40, 0x80)\n    /* \"MultiSigWallet.sol\":729:1186  constructor(address payable[] memory _walletGroupOwners) {... */\n  callvalue\n  dup1\n  iszero\n  tag_1\n  jumpi\n  0x00\n  dup1\n  revert\ntag_1:\n  pop\n  mload(0x40)\n  sub(codesize, bytecodeSize)\n  dup1\n  bytecodeSize\n  dup4\n  codecopy\n  dup2\n  dup2\n  add\n  0x40\n  mstore\n  dup2\n  add\n  swap1\n  tag_2\n  swap2\n  swap1\n  tag_3\n  jump\t// in\ntag_2:\n    /* \"MultiSigWallet.sol\":801:808  uint8 i */\n  0x00\n    /* \"MultiSigWallet.sol\":796:1123  for (uint8 i = 0; i < _walletGroupOwners.length; i++) {... */\ntag_6:\n    /* \"MultiSigWallet.sol\":818:836  _walletGroupOwners */\n  dup2\n    /* \"MultiSigWallet.sol\":818:843  _walletGroupOwners.length */\n  mload\n    /* \"MultiSigWallet.sol\":814:815  i */\n  dup2\n    /* \"MultiSigWallet.sol\":814:843  i < _walletGroupOwners.length */\n  0xff\n  and\n  lt\n    /* \"MultiSigWallet.sol\":796:1123  for (uint8 i = 0; i < _walletGroupOwners.length; i++) {... */\n  iszero\n  tag_7\n  jumpi\n    /* \"MultiSigWallet.sol\":906:910  this */\n  address\n    /* \"MultiSigWallet.sol\":873:911  _walletGroupOwners[i] != address(this) */\n  0xffffffffffffffffffffffffffffffffffffffff\n  and\n    /* \"MultiSigWallet.sol\":873:891  _walletGroupOwners */\n  dup3\n    /* \"MultiSigWallet.sol\":892:893  i */\n  dup3\n    /* \"MultiSigWallet.sol\":873:894  _walletGroupOwners[i] */\n  0xff\n  and\n  dup2\n  mload\n  dup2\n  lt\n  tag_9\n  jumpi\n  tag_10\n  tag_11\n  jump\t// in\ntag_10:\ntag_9:\n  0x20\n  mul\n  0x20\n  add\n  add\n  mload\n    /* \"MultiSigWallet.sol\":873:911  _walletGroupOwners[i] != address(this) */\n  0xffffffffffffffffffffffffffffffffffffffff\n  and\n  sub\n    /* \"MultiSigWallet.sol\":865:967  require(_walletGroupOwners[i] != address(this), \"Smart Contract Address cannot be part of the Owners\") */\n  tag_12\n  jumpi\n  mload(0x40)\n  0x08c379a000000000000000000000000000000000000000000000000000000000\n  dup2\n  mstore\n  0x04\n  add\n  tag_13\n  swap1\n  tag_14\n  jump\t// in\ntag_13:\n  mload(0x40)\n  dup1\n  swap2\n  sub\n  swap1\n  revert\ntag_12:\n    /* \"MultiSigWallet.sol\":982:999  walletGroupOwners */\n  0x01\n    /* \"MultiSigWallet.sol\":1005:1023  _walletGroupOwners */\n  dup3\n    /* \"MultiSigWallet.sol\":1024:1025  i */\n  dup3\n    /* \"MultiSigWallet.sol\":1005:1026  _walletGroupOwners[i] */\n  0xff\n  and\n  dup2\n  mload\n  dup2\n  lt\n  tag_15\n  jumpi\n  tag_16\n  tag_11\n  jump\t// in\ntag_16:\ntag_15:\n  0x20\n  mul\n  0x20\n  add\n  add\n  mload\n    /* \"MultiSigWallet.sol\":982:1027  walletGroupOwners.push(_walletGroupOwners[i]) */\n  swap1\n  dup1\n  0x01\n  dup2\n  sload\n  add\n  dup1\n  dup3\n  sstore\n  dup1\n  swap2\n  pop\n  pop\n  0x01\n  swap1\n  sub\n  swap1\n  0x00\n  mstore\n  keccak256(0x00, 0x20)\n  add\n  0x00\n  swap1\n  swap2\n  swap1\n  swap2\n  swap1\n  swap2\n  0x0100\n  exp\n  dup2\n  sload\n  dup2\n  0xffffffffffffffffffffffffffffffffffffffff\n  mul\n  not\n  and\n  swap1\n  dup4\n  0xffffffffffffffffffffffffffffffffffffffff\n  and\n  mul\n  or\n  swap1\n  sstore\n  pop\n    /* \"MultiSigWallet.sol\":1075:1079  true */\n  0x01\n    /* \"MultiSigWallet.sol\":1042:1049  isOwner */\n  0x02\n    /* \"MultiSigWallet.sol\":1042:1072  isOwner[_walletGroupOwners[i]] */\n  0x00\n    /* \"MultiSigWallet.sol\":1050:1068  _walletGroupOwners */\n  dup5\n    /* \"MultiSigWallet.sol\":1069:1070  i */\n  dup5\n    /* \"MultiSigWallet.sol\":1050:1071  _walletGroupOwners[i] */\n  0xff\n  and\n  dup2\n  mload\n  dup2\n  lt\n  tag_18\n  jumpi\n  tag_19\n  tag_11\n  jump\t// in\ntag_19:\ntag_18:\n  0x20\n  mul\n  0x20\n  add\n  add\n  mload\n    /* \"MultiSigWallet.sol\":1042:1072  isOwner[_walletGroupOwners[i]] */\n  0xffffffffffffffffffffffffffffffffffffffff\n  and\n  0xffffffffffffffffffffffffffffffffffffffff\n  and\n  dup2\n  mstore\n  0x20\n  add\n  swap1\n  dup2\n  mstore\n  0x20\n  add\n  0x00\n  keccak256\n  0x00\n    /* \"MultiSigWallet.sol\":1042:1079  isOwner[_walletGroupOwners[i]] = true */\n  0x0100\n  exp\n  dup2\n  sload\n  dup2\n  0xff\n  mul\n  not\n  and\n  swap1\n  dup4\n  iszero\n  iszero\n  mul\n  or\n  swap1\n  sstore\n  pop\n    /* \"MultiSigWallet.sol\":845:848  i++ */\n  dup1\n  dup1\n  tag_20\n  swap1\n  tag_21\n  jump\t// in\ntag_20:\n  swap2\n  pop\n  pop\n    /* \"MultiSigWallet.sol\":796:1123  for (uint8 i = 0; i < _walletGroupOwners.length; i++) {... */\n  jump(tag_6)\ntag_7:\n  pop\n    /* \"MultiSigWallet.sol\":1147:1172  TransactionStatus.PENDING */\n  0x00\n    /* \"MultiSigWallet.sol\":1133:1144  statusOfTxn */\n  dup1\n  0x00\n    /* \"MultiSigWallet.sol\":1133:1172  statusOfTxn = TransactionStatus.PENDING */\n  0x0100\n  exp\n  dup2\n  sload\n  dup2\n  0xff\n  mul\n  not\n  and\n  swap1\n  dup4\n  0x02\n  dup2\n  gt\n  iszero\n  tag_22\n  jumpi\n  tag_23\n  tag_24\n  jump\t// in\ntag_23:\ntag_22:\n  mul\n  or\n  swap1\n  sstore\n  pop\n    /* \"MultiSigWallet.sol\":729:1186  constructor(address payable[] memory _walletGroupOwners) {... */\n  pop\n    /* \"MultiSigWallet.sol\":61:4301  contract MultiSigWallet {... */\n  jump(tag_25)\n    /* \"#utility.yul\":7:82   */\ntag_26:\n    /* \"#utility.yul\":40:46   */\n  0x00\n    /* \"#utility.yul\":73:75   */\n  0x40\n    /* \"#utility.yul\":67:76   */\n  mload\n    /* \"#utility.yul\":57:76   */\n  swap1\n  pop\n    /* \"#utility.yul\":7:82   */\n  swap1\n  jump\t// out\n    /* \"#utility.yul\":88:205   */\ntag_27:\n    /* \"#utility.yul\":197:198   */\n  0x00\n    /* \"#utility.yul\":194:195   */\n  dup1\n    /* \"#utility.yul\":187:199   */\n  revert\n    /* \"#utility.yul\":211:328   */\ntag_28:\n    /* \"#utility.yul\":320:321   */\n  0x00\n    /* \"#utility.yul\":317:318   */\n  dup1\n    /* \"#utility.yul\":310:322   */\n  revert\n    /* \"#utility.yul\":334:451   */\ntag_29:\n    /* \"#utility.yul\":443:444   */\n  0x00\n    /* \"#utility.yul\":440:441   */\n  dup1\n    /* \"#utility.yul\":433:445   */\n  revert\n    /* \"#utility.yul\":457:559   */\ntag_30:\n    /* \"#utility.yul\":498:504   */\n  0x00\n    /* \"#utility.yul\":549:551   */\n  0x1f\n    /* \"#utility.yul\":545:552   */\n  not\n    /* \"#utility.yul\":540:542   */\n  0x1f\n    /* \"#utility.yul\":533:538   */\n  dup4\n    /* \"#utility.yul\":529:543   */\n  add\n    /* \"#utility.yul\":525:553   */\n  and\n    /* \"#utility.yul\":515:553   */\n  swap1\n  pop\n    /* \"#utility.yul\":457:559   */\n  swap2\n  swap1\n  pop\n  jump\t// out\n    /* \"#utility.yul\":565:745   */\ntag_31:\n    /* \"#utility.yul\":613:690   */\n  0x4e487b7100000000000000000000000000000000000000000000000000000000\n    /* \"#utility.yul\":610:611   */\n  0x00\n    /* \"#utility.yul\":603:691   */\n  mstore\n    /* \"#utility.yul\":710:714   */\n  0x41\n    /* \"#utility.yul\":707:708   */\n  0x04\n    /* \"#utility.yul\":700:715   */\n  mstore\n    /* \"#utility.yul\":734:738   */\n  0x24\n    /* \"#utility.yul\":731:732   */\n  0x00\n    /* \"#utility.yul\":724:739   */\n  revert\n    /* \"#utility.yul\":751:1032   */\ntag_32:\n    /* \"#utility.yul\":834:861   */\n  tag_55\n    /* \"#utility.yul\":856:860   */\n  dup3\n    /* \"#utility.yul\":834:861   */\n  tag_30\n  jump\t// in\ntag_55:\n    /* \"#utility.yul\":826:832   */\n  dup2\n    /* \"#utility.yul\":822:862   */\n  add\n    /* \"#utility.yul\":964:970   */\n  dup2\n    /* \"#utility.yul\":952:962   */\n  dup2\n    /* \"#utility.yul\":949:971   */\n  lt\n    /* \"#utility.yul\":928:946   */\n  0xffffffffffffffff\n    /* \"#utility.yul\":916:926   */\n  dup3\n    /* \"#utility.yul\":913:947   */\n  gt\n    /* \"#utility.yul\":910:972   */\n  or\n    /* \"#utility.yul\":907:995   */\n  iszero\n  tag_56\n  jumpi\n    /* \"#utility.yul\":975:993   */\n  tag_57\n  tag_31\n  jump\t// in\ntag_57:\n    /* \"#utility.yul\":907:995   */\ntag_56:\n    /* \"#utility.yul\":1015:1025   */\n  dup1\n    /* \"#utility.yul\":1011:1013   */\n  0x40\n    /* \"#utility.yul\":1004:1026   */\n  mstore\n    /* \"#utility.yul\":794:1032   */\n  pop\n    /* \"#utility.yul\":751:1032   */\n  pop\n  pop\n  jump\t// out\n    /* \"#utility.yul\":1038:1167   */\ntag_33:\n    /* \"#utility.yul\":1072:1078   */\n  0x00\n    /* \"#utility.yul\":1099:1119   */\n  tag_59\n  tag_26\n  jump\t// in\ntag_59:\n    /* \"#utility.yul\":1089:1119   */\n  swap1\n  pop\n    /* \"#utility.yul\":1128:1161   */\n  tag_60\n    /* \"#utility.yul\":1156:1160   */\n  dup3\n    /* \"#utility.yul\":1148:1154   */\n  dup3\n    /* \"#utility.yul\":1128:1161   */\n  tag_32\n  jump\t// in\ntag_60:\n    /* \"#utility.yul\":1038:1167   */\n  swap2\n  swap1\n  pop\n  jump\t// out\n    /* \"#utility.yul\":1173:1492   */\ntag_34:\n    /* \"#utility.yul\":1258:1262   */\n  0x00\n    /* \"#utility.yul\":1348:1366   */\n  0xffffffffffffffff\n    /* \"#utility.yul\":1340:1346   */\n  dup3\n    /* \"#utility.yul\":1337:1367   */\n  gt\n    /* \"#utility.yul\":1334:1390   */\n  iszero\n  tag_62\n  jumpi\n    /* \"#utility.yul\":1370:1388   */\n  tag_63\n  tag_31\n  jump\t// in\ntag_63:\n    /* \"#utility.yul\":1334:1390   */\ntag_62:\n    /* \"#utility.yul\":1420:1424   */\n  0x20\n    /* \"#utility.yul\":1412:1418   */\n  dup3\n    /* \"#utility.yul\":1408:1425   */\n  mul\n    /* \"#utility.yul\":1400:1425   */\n  swap1\n  pop\n    /* \"#utility.yul\":1480:1484   */\n  0x20\n    /* \"#utility.yul\":1474:1478   */\n  dup2\n    /* \"#utility.yul\":1470:1485   */\n  add\n    /* \"#utility.yul\":1462:1485   */\n  swap1\n  pop\n    /* \"#utility.yul\":1173:1492   */\n  swap2\n  swap1\n  pop\n  jump\t// out\n    /* \"#utility.yul\":1498:1615   */\ntag_35:\n    /* \"#utility.yul\":1607:1608   */\n  0x00\n    /* \"#utility.yul\":1604:1605   */\n  dup1\n    /* \"#utility.yul\":1597:1609   */\n  revert\n    /* \"#utility.yul\":1621:1747   */\ntag_36:\n    /* \"#utility.yul\":1658:1665   */\n  0x00\n    /* \"#utility.yul\":1698:1740   */\n  0xffffffffffffffffffffffffffffffffffffffff\n    /* \"#utility.yul\":1691:1696   */\n  dup3\n    /* \"#utility.yul\":1687:1741   */\n  and\n    /* \"#utility.yul\":1676:1741   */\n  swap1\n  pop\n    /* \"#utility.yul\":1621:1747   */\n  swap2\n  swap1\n  pop\n  jump\t// out\n    /* \"#utility.yul\":1753:1857   */\ntag_37:\n    /* \"#utility.yul\":1798:1805   */\n  0x00\n    /* \"#utility.yul\":1827:1851   */\n  tag_67\n    /* \"#utility.yul\":1845:1850   */\n  dup3\n    /* \"#utility.yul\":1827:1851   */\n  tag_36\n  jump\t// in\ntag_67:\n    /* \"#utility.yul\":1816:1851   */\n  swap1\n  pop\n    /* \"#utility.yul\":1753:1857   */\n  swap2\n  swap1\n  pop\n  jump\t// out\n    /* \"#utility.yul\":1863:2001   */\ntag_38:\n    /* \"#utility.yul\":1944:1976   */\n  tag_69\n    /* \"#utility.yul\":1970:1975   */\n  dup2\n    /* \"#utility.yul\":1944:1976   */\n  tag_37\n  jump\t// in\ntag_69:\n    /* \"#utility.yul\":1937:1942   */\n  dup2\n    /* \"#utility.yul\":1934:1977   */\n  eq\n    /* \"#utility.yul\":1924:1995   */\n  tag_70\n  jumpi\n    /* \"#utility.yul\":1991:1992   */\n  0x00\n    /* \"#utility.yul\":1988:1989   */\n  dup1\n    /* \"#utility.yul\":1981:1993   */\n  revert\n    /* \"#utility.yul\":1924:1995   */\ntag_70:\n    /* \"#utility.yul\":1863:2001   */\n  pop\n  jump\t// out\n    /* \"#utility.yul\":2007:2166   */\ntag_39:\n    /* \"#utility.yul\":2072:2077   */\n  0x00\n    /* \"#utility.yul\":2103:2109   */\n  dup2\n    /* \"#utility.yul\":2097:2110   */\n  mload\n    /* \"#utility.yul\":2088:2110   */\n  swap1\n  pop\n    /* \"#utility.yul\":2119:2160   */\n  tag_72\n    /* \"#utility.yul\":2154:2159   */\n  dup2\n    /* \"#utility.yul\":2119:2160   */\n  tag_38\n  jump\t// in\ntag_72:\n    /* \"#utility.yul\":2007:2166   */\n  swap3\n  swap2\n  pop\n  pop\n  jump\t// out\n    /* \"#utility.yul\":2197:2953   */\ntag_40:\n    /* \"#utility.yul\":2312:2317   */\n  0x00\n    /* \"#utility.yul\":2337:2426   */\n  tag_74\n    /* \"#utility.yul\":2353:2425   */\n  tag_75\n    /* \"#utility.yul\":2418:2424   */\n  dup5\n    /* \"#utility.yul\":2353:2425   */\n  tag_34\n  jump\t// in\ntag_75:\n    /* \"#utility.yul\":2337:2426   */\n  tag_33\n  jump\t// in\ntag_74:\n    /* \"#utility.yul\":2328:2426   */\n  swap1\n  pop\n    /* \"#utility.yul\":2446:2451   */\n  dup1\n    /* \"#utility.yul\":2475:2481   */\n  dup4\n    /* \"#utility.yul\":2468:2473   */\n  dup3\n    /* \"#utility.yul\":2461:2482   */\n  mstore\n    /* \"#utility.yul\":2509:2513   */\n  0x20\n    /* \"#utility.yul\":2502:2507   */\n  dup3\n    /* \"#utility.yul\":2498:2514   */\n  add\n    /* \"#utility.yul\":2491:2514   */\n  swap1\n  pop\n    /* \"#utility.yul\":2562:2566   */\n  0x20\n    /* \"#utility.yul\":2554:2560   */\n  dup5\n    /* \"#utility.yul\":2550:2567   */\n  mul\n    /* \"#utility.yul\":2542:2548   */\n  dup4\n    /* \"#utility.yul\":2538:2568   */\n  add\n    /* \"#utility.yul\":2591:2594   */\n  dup6\n    /* \"#utility.yul\":2583:2589   */\n  dup2\n    /* \"#utility.yul\":2580:2595   */\n  gt\n    /* \"#utility.yul\":2577:2699   */\n  iszero\n  tag_76\n  jumpi\n    /* \"#utility.yul\":2610:2689   */\n  tag_77\n  tag_35\n  jump\t// in\ntag_77:\n    /* \"#utility.yul\":2577:2699   */\ntag_76:\n    /* \"#utility.yul\":2725:2731   */\n  dup4\n    /* \"#utility.yul\":2708:2947   */\ntag_78:\n    /* \"#utility.yul\":2742:2748   */\n  dup2\n    /* \"#utility.yul\":2737:2740   */\n  dup2\n    /* \"#utility.yul\":2734:2749   */\n  lt\n    /* \"#utility.yul\":2708:2947   */\n  iszero\n  tag_80\n  jumpi\n    /* \"#utility.yul\":2817:2820   */\n  dup1\n    /* \"#utility.yul\":2846:2902   */\n  tag_81\n    /* \"#utility.yul\":2898:2901   */\n  dup9\n    /* \"#utility.yul\":2886:2896   */\n  dup3\n    /* \"#utility.yul\":2846:2902   */\n  tag_39\n  jump\t// in\ntag_81:\n    /* \"#utility.yul\":2841:2844   */\n  dup5\n    /* \"#utility.yul\":2834:2903   */\n  mstore\n    /* \"#utility.yul\":2932:2936   */\n  0x20\n    /* \"#utility.yul\":2927:2930   */\n  dup5\n    /* \"#utility.yul\":2923:2937   */\n  add\n    /* \"#utility.yul\":2916:2937   */\n  swap4\n  pop\n    /* \"#utility.yul\":2784:2947   */\n  pop\n    /* \"#utility.yul\":2768:2772   */\n  0x20\n    /* \"#utility.yul\":2763:2766   */\n  dup2\n    /* \"#utility.yul\":2759:2773   */\n  add\n    /* \"#utility.yul\":2752:2773   */\n  swap1\n  pop\n    /* \"#utility.yul\":2708:2947   */\n  jump(tag_78)\ntag_80:\n    /* \"#utility.yul\":2712:2733   */\n  pop\n    /* \"#utility.yul\":2318:2953   */\n  pop\n  pop\n    /* \"#utility.yul\":2197:2953   */\n  swap4\n  swap3\n  pop\n  pop\n  pop\n  jump\t// out\n    /* \"#utility.yul\":2984:3385   */\ntag_41:\n    /* \"#utility.yul\":3074:3079   */\n  0x00\n    /* \"#utility.yul\":3123:3126   */\n  dup3\n    /* \"#utility.yul\":3116:3120   */\n  0x1f\n    /* \"#utility.yul\":3108:3114   */\n  dup4\n    /* \"#utility.yul\":3104:3121   */\n  add\n    /* \"#utility.yul\":3100:3127   */\n  slt\n    /* \"#utility.yul\":3090:3212   */\n  tag_83\n  jumpi\n    /* \"#utility.yul\":3131:3210   */\n  tag_84\n  tag_29\n  jump\t// in\ntag_84:\n    /* \"#utility.yul\":3090:3212   */\ntag_83:\n    /* \"#utility.yul\":3241:3247   */\n  dup2\n    /* \"#utility.yul\":3235:3248   */\n  mload\n    /* \"#utility.yul\":3266:3379   */\n  tag_85\n    /* \"#utility.yul\":3375:3378   */\n  dup5\n    /* \"#utility.yul\":3367:3373   */\n  dup3\n    /* \"#utility.yul\":3360:3364   */\n  0x20\n    /* \"#utility.yul\":3352:3358   */\n  dup7\n    /* \"#utility.yul\":3348:3365   */\n  add\n    /* \"#utility.yul\":3266:3379   */\n  tag_40\n  jump\t// in\ntag_85:\n    /* \"#utility.yul\":3257:3379   */\n  swap2\n  pop\n    /* \"#utility.yul\":3080:3385   */\n  pop\n    /* \"#utility.yul\":2984:3385   */\n  swap3\n  swap2\n  pop\n  pop\n  jump\t// out\n    /* \"#utility.yul\":3391:3961   */\ntag_3:\n    /* \"#utility.yul\":3494:3500   */\n  0x00\n    /* \"#utility.yul\":3543:3545   */\n  0x20\n    /* \"#utility.yul\":3531:3540   */\n  dup3\n    /* \"#utility.yul\":3522:3529   */\n  dup5\n    /* \"#utility.yul\":3518:3541   */\n  sub\n    /* \"#utility.yul\":3514:3546   */\n  slt\n    /* \"#utility.yul\":3511:3630   */\n  iszero\n  tag_87\n  jumpi\n    /* \"#utility.yul\":3549:3628   */\n  tag_88\n  tag_27\n  jump\t// in\ntag_88:\n    /* \"#utility.yul\":3511:3630   */\ntag_87:\n    /* \"#utility.yul\":3690:3691   */\n  0x00\n    /* \"#utility.yul\":3679:3688   */\n  dup3\n    /* \"#utility.yul\":3675:3692   */\n  add\n    /* \"#utility.yul\":3669:3693   */\n  mload\n    /* \"#utility.yul\":3720:3738   */\n  0xffffffffffffffff\n    /* \"#utility.yul\":3712:3718   */\n  dup2\n    /* \"#utility.yul\":3709:3739   */\n  gt\n    /* \"#utility.yul\":3706:3823   */\n  iszero\n  tag_89\n  jumpi\n    /* \"#utility.yul\":3742:3821   */\n  tag_90\n  tag_28\n  jump\t// in\ntag_90:\n    /* \"#utility.yul\":3706:3823   */\ntag_89:\n    /* \"#utility.yul\":3847:3944   */\n  tag_91\n    /* \"#utility.yul\":3936:3943   */\n  dup5\n    /* \"#utility.yul\":3927:3933   */\n  dup3\n    /* \"#utility.yul\":3916:3925   */\n  dup6\n    /* \"#utility.yul\":3912:3934   */\n  add\n    /* \"#utility.yul\":3847:3944   */\n  tag_41\n  jump\t// in\ntag_91:\n    /* \"#utility.yul\":3837:3944   */\n  swap2\n  pop\n    /* \"#utility.yul\":3640:3954   */\n  pop\n    /* \"#utility.yul\":3391:3961   */\n  swap3\n  swap2\n  pop\n  pop\n  jump\t// out\n    /* \"#utility.yul\":3967:4147   */\ntag_11:\n    /* \"#utility.yul\":4015:4092   */\n  0x4e487b7100000000000000000000000000000000000000000000000000000000\n    /* \"#utility.yul\":4012:4013   */\n  0x00\n    /* \"#utility.yul\":4005:4093   */\n  mstore\n    /* \"#utility.yul\":4112:4116   */\n  0x32\n    /* \"#utility.yul\":4109:4110   */\n  0x04\n    /* \"#utility.yul\":4102:4117   */\n  mstore\n    /* \"#utility.yul\":4136:4140   */\n  0x24\n    /* \"#utility.yul\":4133:4134   */\n  0x00\n    /* \"#utility.yul\":4126:4141   */\n  revert\n    /* \"#utility.yul\":4153:4322   */\ntag_42:\n    /* \"#utility.yul\":4237:4248   */\n  0x00\n    /* \"#utility.yul\":4271:4277   */\n  dup3\n    /* \"#utility.yul\":4266:4269   */\n  dup3\n    /* \"#utility.yul\":4259:4278   */\n  mstore\n    /* \"#utility.yul\":4311:4315   */\n  0x20\n    /* \"#utility.yul\":4306:4309   */\n  dup3\n    /* \"#utility.yul\":4302:4316   */\n  add\n    /* \"#utility.yul\":4287:4316   */\n  swap1\n  pop\n    /* \"#utility.yul\":4153:4322   */\n  swap3\n  swap2\n  pop\n  pop\n  jump\t// out\n    /* \"#utility.yul\":4328:4566   */\ntag_43:\n    /* \"#utility.yul\":4468:4502   */\n  0x536d61727420436f6e747261637420416464726573732063616e6e6f74206265\n    /* \"#utility.yul\":4464:4465   */\n  0x00\n    /* \"#utility.yul\":4456:4462   */\n  dup3\n    /* \"#utility.yul\":4452:4466   */\n  add\n    /* \"#utility.yul\":4445:4503   */\n  mstore\n    /* \"#utility.yul\":4537:4558   */\n  0x2070617274206f6620746865204f776e65727300000000000000000000000000\n    /* \"#utility.yul\":4532:4534   */\n  0x20\n    /* \"#utility.yul\":4524:4530   */\n  dup3\n    /* \"#utility.yul\":4520:4535   */\n  add\n    /* \"#utility.yul\":4513:4559   */\n  mstore\n    /* \"#utility.yul\":4328:4566   */\n  pop\n  jump\t// out\n    /* \"#utility.yul\":4572:4938   */\ntag_44:\n    /* \"#utility.yul\":4714:4717   */\n  0x00\n    /* \"#utility.yul\":4735:4802   */\n  tag_96\n    /* \"#utility.yul\":4799:4801   */\n  0x33\n    /* \"#utility.yul\":4794:4797   */\n  dup4\n    /* \"#utility.yul\":4735:4802   */\n  tag_42\n  jump\t// in\ntag_96:\n    /* \"#utility.yul\":4728:4802   */\n  swap2\n  pop\n    /* \"#utility.yul\":4811:4904   */\n  tag_97\n    /* \"#utility.yul\":4900:4903   */\n  dup3\n    /* \"#utility.yul\":4811:4904   */\n  tag_43\n  jump\t// in\ntag_97:\n    /* \"#utility.yul\":4929:4931   */\n  0x40\n    /* \"#utility.yul\":4924:4927   */\n  dup3\n    /* \"#utility.yul\":4920:4932   */\n  add\n    /* \"#utility.yul\":4913:4932   */\n  swap1\n  pop\n    /* \"#utility.yul\":4572:4938   */\n  swap2\n  swap1\n  pop\n  jump\t// out\n    /* \"#utility.yul\":4944:5363   */\ntag_14:\n    /* \"#utility.yul\":5110:5114   */\n  0x00\n    /* \"#utility.yul\":5148:5150   */\n  0x20\n    /* \"#utility.yul\":5137:5146   */\n  dup3\n    /* \"#utility.yul\":5133:5151   */\n  add\n    /* \"#utility.yul\":5125:5151   */\n  swap1\n  pop\n    /* \"#utility.yul\":5197:5206   */\n  dup2\n    /* \"#utility.yul\":5191:5195   */\n  dup2\n    /* \"#utility.yul\":5187:5207   */\n  sub\n    /* \"#utility.yul\":5183:5184   */\n  0x00\n    /* \"#utility.yul\":5172:5181   */\n  dup4\n    /* \"#utility.yul\":5168:5185   */\n  add\n    /* \"#utility.yul\":5161:5208   */\n  mstore\n    /* \"#utility.yul\":5225:5356   */\n  tag_99\n    /* \"#utility.yul\":5351:5355   */\n  dup2\n    /* \"#utility.yul\":5225:5356   */\n  tag_44\n  jump\t// in\ntag_99:\n    /* \"#utility.yul\":5217:5356   */\n  swap1\n  pop\n    /* \"#utility.yul\":4944:5363   */\n  swap2\n  swap1\n  pop\n  jump\t// out\n    /* \"#utility.yul\":5369:5549   */\ntag_45:\n    /* \"#utility.yul\":5417:5494   */\n  0x4e487b7100000000000000000000000000000000000000000000000000000000\n    /* \"#utility.yul\":5414:5415   */\n  0x00\n    /* \"#utility.yul\":5407:5495   */\n  mstore\n    /* \"#utility.yul\":5514:5518   */\n  0x11\n    /* \"#utility.yul\":5511:5512   */\n  0x04\n    /* \"#utility.yul\":5504:5519   */\n  mstore\n    /* \"#utility.yul\":5538:5542   */\n  0x24\n    /* \"#utility.yul\":5535:5536   */\n  0x00\n    /* \"#utility.yul\":5528:5543   */\n  revert\n    /* \"#utility.yul\":5555:5641   */\ntag_46:\n    /* \"#utility.yul\":5590:5597   */\n  0x00\n    /* \"#utility.yul\":5630:5634   */\n  0xff\n    /* \"#utility.yul\":5623:5628   */\n  dup3\n    /* \"#utility.yul\":5619:5635   */\n  and\n    /* \"#utility.yul\":5608:5635   */\n  swap1\n  pop\n    /* \"#utility.yul\":5555:5641   */\n  swap2\n  swap1\n  pop\n  jump\t// out\n    /* \"#utility.yul\":5647:5814   */\ntag_21:\n    /* \"#utility.yul\":5684:5687   */\n  0x00\n    /* \"#utility.yul\":5707:5729   */\n  tag_103\n    /* \"#utility.yul\":5723:5728   */\n  dup3\n    /* \"#utility.yul\":5707:5729   */\n  tag_46\n  jump\t// in\ntag_103:\n    /* \"#utility.yul\":5698:5729   */\n  swap2\n  pop\n    /* \"#utility.yul\":5751:5755   */\n  0xff\n    /* \"#utility.yul\":5744:5749   */\n  dup3\n    /* \"#utility.yul\":5741:5756   */\n  sub\n    /* \"#utility.yul\":5738:5779   */\n  tag_104\n  jumpi\n    /* \"#utility.yul\":5759:5777   */\n  tag_105\n  tag_45\n  jump\t// in\ntag_105:\n    /* \"#utility.yul\":5738:5779   */\ntag_104:\n    /* \"#utility.yul\":5806:5807   */\n  0x01\n    /* \"#utility.yul\":5799:5804   */\n  dup3\n    /* \"#utility.yul\":5795:5808   */\n  add\n    /* \"#utility.yul\":5788:5808   */\n  swap1\n  pop\n    /* \"#utility.yul\":5647:5814   */\n  swap2\n  swap1\n  pop\n  jump\t// out\n    /* \"#utility.yul\":5820:6000   */\ntag_24:\n    /* \"#utility.yul\":5868:5945   */\n  0x4e487b7100000000000000000000000000000000000000000000000000000000\n    /* \"#utility.yul\":5865:5866   */\n  0x00\n    /* \"#utility.yul\":5858:5946   */\n  mstore\n    /* \"#utility.yul\":5965:5969   */\n  0x21\n    /* \"#utility.yul\":5962:5963   */\n  0x04\n    /* \"#utility.yul\":5955:5970   */\n  mstore\n    /* \"#utility.yul\":5989:5993   */\n  0x24\n    /* \"#utility.yul\":5986:5987   */\n  0x00\n    /* \"#utility.yul\":5979:5994   */\n  revert\n    /* \"MultiSigWallet.sol\":61:4301  contract MultiSigWallet {... */\ntag_25:\n  dataSize(sub_0)\n  dup1\n  dataOffset(sub_0)\n  0x00\n  codecopy\n  0x00\n  return\nstop\n\nsub_0: assembly {\n        /* \"MultiSigWallet.sol\":61:4301  contract MultiSigWallet {... */\n      mstore(0x40, 0x80)\n      callvalue\n      dup1\n      iszero\n      tag_1\n      jumpi\n      0x00\n      dup1\n      revert\n    tag_1:\n      pop\n      jumpi(tag_2, lt(calldatasize, 0x04))\n      shr(0xe0, calldataload(0x00))\n      dup1\n      0x6f9fb98a\n      gt\n      tag_13\n      jumpi\n      dup1\n      0x6f9fb98a\n      eq\n      tag_8\n      jumpi\n      dup1\n      0xcbb0f3bb\n      eq\n      tag_9\n      jumpi\n      dup1\n      0xcd229002\n      eq\n      tag_10\n      jumpi\n      dup1\n      0xcfe68270\n      eq\n      tag_11\n      jumpi\n      dup1\n      0xf49d884d\n      eq\n      tag_12\n      jumpi\n      jump(tag_2)\n    tag_13:\n      dup1\n      0x1079eca2\n      eq\n      tag_3\n      jumpi\n      dup1\n      0x2985d569\n      eq\n      tag_4\n      jumpi\n      dup1\n      0x2f54bf6e\n      eq\n      tag_5\n      jumpi\n      dup1\n      0x40b66b38\n      eq\n      tag_6\n      jumpi\n      dup1\n      0x6884d0a6\n      eq\n      tag_7\n      jumpi\n    tag_2:\n      0x00\n      dup1\n      revert\n        /* \"MultiSigWallet.sol\":1585:2486  function sumbitTransaction (address payable _receiver, uint _amount) basicChecksForTxn public  {... */\n    tag_3:\n      tag_14\n      0x04\n      dup1\n      calldatasize\n      sub\n      dup2\n      add\n      swap1\n      tag_15\n      swap2\n      swap1\n      tag_16\n      jump\t// in\n    tag_15:\n      tag_17\n      jump\t// in\n    tag_14:\n      stop\n        /* \"MultiSigWallet.sol\":554:636  mapping(address => mapping(uint => TransactionStatus)) public memberApprovalStatus */\n    tag_4:\n      tag_18\n      0x04\n      dup1\n      calldatasize\n      sub\n      dup2\n      add\n      swap1\n      tag_19\n      swap2\n      swap1\n      tag_20\n      jump\t// in\n    tag_19:\n      tag_21\n      jump\t// in\n    tag_18:\n      mload(0x40)\n      tag_22\n      swap2\n      swap1\n      tag_23\n      jump\t// in\n    tag_22:\n      mload(0x40)\n      dup1\n      swap2\n      sub\n      swap1\n      return\n        /* \"MultiSigWallet.sol\":508:547  mapping(address => bool) public isOwner */\n    tag_5:\n      tag_24\n      0x04\n      dup1\n      calldatasize\n      sub\n      dup2\n      add\n      swap1\n      tag_25\n      swap2\n      swap1\n      tag_26\n      jump\t// in\n    tag_25:\n      tag_27\n      jump\t// in\n    tag_24:\n      mload(0x40)\n      tag_28\n      swap2\n      swap1\n      tag_29\n      jump\t// in\n    tag_28:\n      mload(0x40)\n      dup1\n      swap2\n      sub\n      swap1\n      return\n        /* \"MultiSigWallet.sol\":2498:3147  function approvalOfSubmittedTxn() basicChecksForTxn public {... */\n    tag_6:\n      tag_30\n      tag_31\n      jump\t// in\n    tag_30:\n      stop\n        /* \"MultiSigWallet.sol\":691:716  uint public approvalCount */\n    tag_7:\n      tag_32\n      tag_33\n      jump\t// in\n    tag_32:\n      mload(0x40)\n      tag_34\n      swap2\n      swap1\n      tag_35\n      jump\t// in\n    tag_34:\n      mload(0x40)\n      dup1\n      swap2\n      sub\n      swap1\n      return\n        /* \"MultiSigWallet.sol\":1449:1575  function getContractBalance () view  public returns(uint256 _contractBalance){... */\n    tag_8:\n      tag_36\n      tag_37\n      jump\t// in\n    tag_36:\n      mload(0x40)\n      tag_38\n      swap2\n      swap1\n      tag_35\n      jump\t// in\n    tag_38:\n      mload(0x40)\n      dup1\n      swap2\n      sub\n      swap1\n      return\n        /* \"MultiSigWallet.sol\":459:501  address payable[] public walletGroupOwners */\n    tag_9:\n      tag_39\n      0x04\n      dup1\n      calldatasize\n      sub\n      dup2\n      add\n      swap1\n      tag_40\n      swap2\n      swap1\n      tag_41\n      jump\t// in\n    tag_40:\n      tag_42\n      jump\t// in\n    tag_39:\n      mload(0x40)\n      tag_43\n      swap2\n      swap1\n      tag_44\n      jump\t// in\n    tag_43:\n      mload(0x40)\n      dup1\n      swap2\n      sub\n      swap1\n      return\n        /* \"MultiSigWallet.sol\":3706:4290  function rejectedTransaction () basicChecksForTxn public {... */\n    tag_10:\n      tag_45\n      tag_46\n      jump\t// in\n    tag_45:\n      stop\n        /* \"MultiSigWallet.sol\":643:684  address payable public pendingTransaction */\n    tag_11:\n      tag_47\n      tag_48\n      jump\t// in\n    tag_47:\n      mload(0x40)\n      tag_49\n      swap2\n      swap1\n      tag_44\n      jump\t// in\n    tag_49:\n      mload(0x40)\n      dup1\n      swap2\n      sub\n      swap1\n      return\n        /* \"MultiSigWallet.sol\":189:225  TransactionStatus public statusOfTxn */\n    tag_12:\n      tag_50\n      tag_51\n      jump\t// in\n    tag_50:\n      mload(0x40)\n      tag_52\n      swap2\n      swap1\n      tag_23\n      jump\t// in\n    tag_52:\n      mload(0x40)\n      dup1\n      swap2\n      sub\n      swap1\n      return\n        /* \"MultiSigWallet.sol\":1585:2486  function sumbitTransaction (address payable _receiver, uint _amount) basicChecksForTxn public  {... */\n    tag_17:\n        /* \"MultiSigWallet.sol\":1244:1251  isOwner */\n      0x02\n        /* \"MultiSigWallet.sol\":1244:1263  isOwner[msg.sender] */\n      0x00\n        /* \"MultiSigWallet.sol\":1252:1262  msg.sender */\n      caller\n        /* \"MultiSigWallet.sol\":1244:1263  isOwner[msg.sender] */\n      0xffffffffffffffffffffffffffffffffffffffff\n      and\n      0xffffffffffffffffffffffffffffffffffffffff\n      and\n      dup2\n      mstore\n      0x20\n      add\n      swap1\n      dup2\n      mstore\n      0x20\n      add\n      0x00\n      keccak256\n      0x00\n      swap1\n      sload\n      swap1\n      0x0100\n      exp\n      swap1\n      div\n      0xff\n      and\n        /* \"MultiSigWallet.sol\":1236:1314  require(isOwner[msg.sender] , \"This address is not part of the Owners Group \") */\n      tag_54\n      jumpi\n      mload(0x40)\n      0x08c379a000000000000000000000000000000000000000000000000000000000\n      dup2\n      mstore\n      0x04\n      add\n      tag_55\n      swap1\n      tag_56\n      jump\t// in\n    tag_55:\n      mload(0x40)\n      dup1\n      swap2\n      sub\n      swap1\n      revert\n    tag_54:\n        /* \"MultiSigWallet.sol\":1355:1359  this */\n      address\n        /* \"MultiSigWallet.sol\":1333:1360  msg.sender != address(this) */\n      0xffffffffffffffffffffffffffffffffffffffff\n      and\n        /* \"MultiSigWallet.sol\":1333:1343  msg.sender */\n      caller\n        /* \"MultiSigWallet.sol\":1333:1360  msg.sender != address(this) */\n      0xffffffffffffffffffffffffffffffffffffffff\n      and\n      sub\n        /* \"MultiSigWallet.sol\":1325:1421  require(msg.sender != address(this) , \"The smart contract is not Allowed to call this function\") */\n      tag_57\n      jumpi\n      mload(0x40)\n      0x08c379a000000000000000000000000000000000000000000000000000000000\n      dup2\n      mstore\n      0x04\n      add\n      tag_58\n      swap1\n      tag_59\n      jump\t// in\n    tag_58:\n      mload(0x40)\n      dup1\n      swap2\n      sub\n      swap1\n      revert\n    tag_57:\n        /* \"MultiSigWallet.sol\":1713:1738  TransactionStatus.PENDING */\n      0x00\n        /* \"MultiSigWallet.sol\":1698:1738  statusOfTxn == TransactionStatus.PENDING */\n      0x02\n      dup2\n      gt\n      iszero\n      tag_61\n      jumpi\n      tag_62\n      tag_63\n      jump\t// in\n    tag_62:\n    tag_61:\n        /* \"MultiSigWallet.sol\":1698:1709  statusOfTxn */\n      0x00\n      dup1\n      sload\n      swap1\n      0x0100\n      exp\n      swap1\n      div\n      0xff\n      and\n        /* \"MultiSigWallet.sol\":1698:1738  statusOfTxn == TransactionStatus.PENDING */\n      0x02\n      dup2\n      gt\n      iszero\n      tag_64\n      jumpi\n      tag_65\n      tag_63\n      jump\t// in\n    tag_65:\n    tag_64:\n      eq\n        /* \"MultiSigWallet.sol\":1690:1783  require(statusOfTxn == TransactionStatus.PENDING , \"Txn must either be Approved or Rejected\") */\n      tag_66\n      jumpi\n      mload(0x40)\n      0x08c379a000000000000000000000000000000000000000000000000000000000\n      dup2\n      mstore\n      0x04\n      add\n      tag_67\n      swap1\n      tag_68\n      jump\t// in\n    tag_67:\n      mload(0x40)\n      dup1\n      swap2\n      sub\n      swap1\n      revert\n    tag_66:\n        /* \"MultiSigWallet.sol\":1825:1832  _amount */\n      dup1\n        /* \"MultiSigWallet.sol\":1801:1822  address(this).balance */\n      selfbalance\n        /* \"MultiSigWallet.sol\":1801:1832  address(this).balance > _amount */\n      gt\n        /* \"MultiSigWallet.sol\":1793:1959  require(address(this).balance > _amount, \"smart contract doesn not have enough funds for this amount .. use an amount lower than that of the smart contract balance \") */\n      tag_69\n      jumpi\n      mload(0x40)\n      0x08c379a000000000000000000000000000000000000000000000000000000000\n      dup2\n      mstore\n      0x04\n      add\n      tag_70\n      swap1\n      tag_71\n      jump\t// in\n    tag_70:\n      mload(0x40)\n      dup1\n      swap2\n      sub\n      swap1\n      revert\n    tag_69:\n        /* \"MultiSigWallet.sol\":1998:1999  0 */\n      0x00\n        /* \"MultiSigWallet.sol\":1977:2000  _receiver != address(0) */\n      0xffffffffffffffffffffffffffffffffffffffff\n      and\n        /* \"MultiSigWallet.sol\":1977:1986  _receiver */\n      dup3\n        /* \"MultiSigWallet.sol\":1977:2000  _receiver != address(0) */\n      0xffffffffffffffffffffffffffffffffffffffff\n      and\n      sub\n        /* \"MultiSigWallet.sol\":1969:2033  require(_receiver != address(0), \"Should not be a 0x0  address\") */\n      tag_72\n      jumpi\n      mload(0x40)\n      0x08c379a000000000000000000000000000000000000000000000000000000000\n      dup2\n      mstore\n      0x04\n      add\n      tag_73\n      swap1\n      tag_74\n      jump\t// in\n    tag_73:\n      mload(0x40)\n      dup1\n      swap2\n      sub\n      swap1\n      revert\n    tag_72:\n        /* \"MultiSigWallet.sol\":2067:2084  walletGroupOwners */\n      0x01\n        /* \"MultiSigWallet.sol\":2067:2091  walletGroupOwners.length */\n      dup1\n      sload\n      swap1\n      pop\n        /* \"MultiSigWallet.sol\":2051:2064  approvalCount */\n      sload(0x05)\n        /* \"MultiSigWallet.sol\":2051:2091  approvalCount < walletGroupOwners.length */\n      lt\n        /* \"MultiSigWallet.sol\":2043:2144  require(approvalCount < walletGroupOwners.length, \"approval count should be lower than Owner Group\" ) */\n      tag_75\n      jumpi\n      mload(0x40)\n      0x08c379a000000000000000000000000000000000000000000000000000000000\n      dup2\n      mstore\n      0x04\n      add\n      tag_76\n      swap1\n      tag_77\n      jump\t// in\n    tag_76:\n      mload(0x40)\n      dup1\n      swap2\n      sub\n      swap1\n      revert\n    tag_75:\n        /* \"MultiSigWallet.sol\":2175:2184  _receiver */\n      dup2\n        /* \"MultiSigWallet.sol\":2154:2172  pendingTransaction */\n      0x04\n      0x00\n        /* \"MultiSigWallet.sol\":2154:2184  pendingTransaction = _receiver */\n      0x0100\n      exp\n      dup2\n      sload\n      dup2\n      0xffffffffffffffffffffffffffffffffffffffff\n      mul\n      not\n      and\n      swap1\n      dup4\n      0xffffffffffffffffffffffffffffffffffffffff\n      and\n      mul\n      or\n      swap1\n      sstore\n      pop\n        /* \"MultiSigWallet.sol\":2244:2269  TransactionStatus.PENDING */\n      0x00\n        /* \"MultiSigWallet.sol\":2194:2214  memberApprovalStatus */\n      0x03\n        /* \"MultiSigWallet.sol\":2194:2226  memberApprovalStatus[msg.sender] */\n      0x00\n        /* \"MultiSigWallet.sol\":2215:2225  msg.sender */\n      caller\n        /* \"MultiSigWallet.sol\":2194:2226  memberApprovalStatus[msg.sender] */\n      0xffffffffffffffffffffffffffffffffffffffff\n      and\n      0xffffffffffffffffffffffffffffffffffffffff\n      and\n      dup2\n      mstore\n      0x20\n      add\n      swap1\n      dup2\n      mstore\n      0x20\n      add\n      0x00\n      keccak256\n        /* \"MultiSigWallet.sol\":2194:2241  memberApprovalStatus[msg.sender][approvalCount] */\n      0x00\n        /* \"MultiSigWallet.sol\":2227:2240  approvalCount */\n      sload(0x05)\n        /* \"MultiSigWallet.sol\":2194:2241  memberApprovalStatus[msg.sender][approvalCount] */\n      dup2\n      mstore\n      0x20\n      add\n      swap1\n      dup2\n      mstore\n      0x20\n      add\n      0x00\n      keccak256\n      0x00\n        /* \"MultiSigWallet.sol\":2194:2269  memberApprovalStatus[msg.sender][approvalCount] = TransactionStatus.PENDING */\n      0x0100\n      exp\n      dup2\n      sload\n      dup2\n      0xff\n      mul\n      not\n      and\n      swap1\n      dup4\n      0x02\n      dup2\n      gt\n      iszero\n      tag_78\n      jumpi\n      tag_79\n      tag_63\n      jump\t// in\n    tag_79:\n    tag_78:\n      mul\n      or\n      swap1\n      sstore\n      pop\n        /* \"MultiSigWallet.sol\":2311:2312  1 */\n      0x01\n        /* \"MultiSigWallet.sol\":2295:2308  approvalCount */\n      sload(0x05)\n        /* \"MultiSigWallet.sol\":2295:2312  approvalCount + 1 */\n      tag_80\n      swap2\n      swap1\n      tag_81\n      jump\t// in\n    tag_80:\n        /* \"MultiSigWallet.sol\":2279:2292  approvalCount */\n      0x05\n        /* \"MultiSigWallet.sol\":2279:2312  approvalCount = approvalCount + 1 */\n      dup2\n      swap1\n      sstore\n      pop\n        /* \"MultiSigWallet.sol\":2338:2363  TransactionStatus.PENDING */\n      0x00\n        /* \"MultiSigWallet.sol\":2324:2335  statusOfTxn */\n      dup1\n      0x00\n        /* \"MultiSigWallet.sol\":2324:2363  statusOfTxn = TransactionStatus.PENDING */\n      0x0100\n      exp\n      dup2\n      sload\n      dup2\n      0xff\n      mul\n      not\n      and\n      swap1\n      dup4\n      0x02\n      dup2\n      gt\n      iszero\n      tag_82\n      jumpi\n      tag_83\n      tag_63\n      jump\t// in\n    tag_83:\n    tag_82:\n      mul\n      or\n      swap1\n      sstore\n      pop\n        /* \"MultiSigWallet.sol\":2397:2407  msg.sender */\n      caller\n        /* \"MultiSigWallet.sol\":2378:2461  ApproveTransaction(msg.sender, \"new txn submitted.... only one party approves .. \") */\n      0xffffffffffffffffffffffffffffffffffffffff\n      and\n      0x32b28307b48215ea3a4bc71ae793fbbbfcdcb49b19167ca1bdc3c3077e5e75d5\n      mload(0x40)\n      tag_84\n      swap1\n      tag_85\n      jump\t// in\n    tag_84:\n      mload(0x40)\n      dup1\n      swap2\n      sub\n      swap1\n      log2\n        /* \"MultiSigWallet.sol\":1585:2486  function sumbitTransaction (address payable _receiver, uint _amount) basicChecksForTxn public  {... */\n      pop\n      pop\n      jump\t// out\n        /* \"MultiSigWallet.sol\":554:636  mapping(address => mapping(uint => TransactionStatus)) public memberApprovalStatus */\n    tag_21:\n      mstore(0x20, 0x03)\n      dup2\n      0x00\n      mstore\n      mstore(0x20, keccak256(0x00, 0x40))\n      dup1\n      0x00\n      mstore\n      keccak256(0x00, 0x40)\n      0x00\n      swap2\n      pop\n      swap2\n      pop\n      swap1\n      sload\n      swap1\n      0x0100\n      exp\n      swap1\n      div\n      0xff\n      and\n      dup2\n      jump\t// out\n        /* \"MultiSigWallet.sol\":508:547  mapping(address => bool) public isOwner */\n    tag_27:\n      mstore(0x20, 0x02)\n      dup1\n      0x00\n      mstore\n      keccak256(0x00, 0x40)\n      0x00\n      swap2\n      pop\n      sload\n      swap1\n      0x0100\n      exp\n      swap1\n      div\n      0xff\n      and\n      dup2\n      jump\t// out\n        /* \"MultiSigWallet.sol\":2498:3147  function approvalOfSubmittedTxn() basicChecksForTxn public {... */\n    tag_31:\n        /* \"MultiSigWallet.sol\":1244:1251  isOwner */\n      0x02\n        /* \"MultiSigWallet.sol\":1244:1263  isOwner[msg.sender] */\n      0x00\n        /* \"MultiSigWallet.sol\":1252:1262  msg.sender */\n      caller\n        /* \"MultiSigWallet.sol\":1244:1263  isOwner[msg.sender] */\n      0xffffffffffffffffffffffffffffffffffffffff\n      and\n      0xffffffffffffffffffffffffffffffffffffffff\n      and\n      dup2\n      mstore\n      0x20\n      add\n      swap1\n      dup2\n      mstore\n      0x20\n      add\n      0x00\n      keccak256\n      0x00\n      swap1\n      sload\n      swap1\n      0x0100\n      exp\n      swap1\n      div\n      0xff\n      and\n        /* \"MultiSigWallet.sol\":1236:1314  require(isOwner[msg.sender] , \"This address is not part of the Owners Group \") */\n      tag_87\n      jumpi\n      mload(0x40)\n      0x08c379a000000000000000000000000000000000000000000000000000000000\n      dup2\n      mstore\n      0x04\n      add\n      tag_88\n      swap1\n      tag_56\n      jump\t// in\n    tag_88:\n      mload(0x40)\n      dup1\n      swap2\n      sub\n      swap1\n      revert\n    tag_87:\n        /* \"MultiSigWallet.sol\":1355:1359  this */\n      address\n        /* \"MultiSigWallet.sol\":1333:1360  msg.sender != address(this) */\n      0xffffffffffffffffffffffffffffffffffffffff\n      and\n        /* \"MultiSigWallet.sol\":1333:1343  msg.sender */\n      caller\n        /* \"MultiSigWallet.sol\":1333:1360  msg.sender != address(this) */\n      0xffffffffffffffffffffffffffffffffffffffff\n      and\n      sub\n        /* \"MultiSigWallet.sol\":1325:1421  require(msg.sender != address(this) , \"The smart contract is not Allowed to call this function\") */\n      tag_89\n      jumpi\n      mload(0x40)\n      0x08c379a000000000000000000000000000000000000000000000000000000000\n      dup2\n      mstore\n      0x04\n      add\n      tag_90\n      swap1\n      tag_59\n      jump\t// in\n    tag_90:\n      mload(0x40)\n      dup1\n      swap2\n      sub\n      swap1\n      revert\n    tag_89:\n        /* \"MultiSigWallet.sol\":2592:2617  TransactionStatus.PENDING */\n      0x00\n        /* \"MultiSigWallet.sol\":2577:2617  statusOfTxn == TransactionStatus.PENDING */\n      0x02\n      dup2\n      gt\n      iszero\n      tag_92\n      jumpi\n      tag_93\n      tag_63\n      jump\t// in\n    tag_93:\n    tag_92:\n        /* \"MultiSigWallet.sol\":2577:2588  statusOfTxn */\n      0x00\n      dup1\n      sload\n      swap1\n      0x0100\n      exp\n      swap1\n      div\n      0xff\n      and\n        /* \"MultiSigWallet.sol\":2577:2617  statusOfTxn == TransactionStatus.PENDING */\n      0x02\n      dup2\n      gt\n      iszero\n      tag_94\n      jumpi\n      tag_95\n      tag_63\n      jump\t// in\n    tag_95:\n    tag_94:\n      eq\n        /* \"MultiSigWallet.sol\":2569:2662  require(statusOfTxn == TransactionStatus.PENDING , \"Txn must either be Approved or Rejected\") */\n      tag_96\n      jumpi\n      mload(0x40)\n      0x08c379a000000000000000000000000000000000000000000000000000000000\n      dup2\n      mstore\n      0x04\n      add\n      tag_97\n      swap1\n      tag_68\n      jump\t// in\n    tag_97:\n      mload(0x40)\n      dup1\n      swap2\n      sub\n      swap1\n      revert\n    tag_96:\n        /* \"MultiSigWallet.sol\":2733:2758  TransactionStatus.PENDING */\n      0x00\n        /* \"MultiSigWallet.sol\":2682:2758  memberApprovalStatus[msg.sender][approvalCount] == TransactionStatus.PENDING */\n      0x02\n      dup2\n      gt\n      iszero\n      tag_98\n      jumpi\n      tag_99\n      tag_63\n      jump\t// in\n    tag_99:\n    tag_98:\n        /* \"MultiSigWallet.sol\":2682:2702  memberApprovalStatus */\n      0x03\n        /* \"MultiSigWallet.sol\":2682:2714  memberApprovalStatus[msg.sender] */\n      0x00\n        /* \"MultiSigWallet.sol\":2703:2713  msg.sender */\n      caller\n        /* \"MultiSigWallet.sol\":2682:2714  memberApprovalStatus[msg.sender] */\n      0xffffffffffffffffffffffffffffffffffffffff\n      and\n      0xffffffffffffffffffffffffffffffffffffffff\n      and\n      dup2\n      mstore\n      0x20\n      add\n      swap1\n      dup2\n      mstore\n      0x20\n      add\n      0x00\n      keccak256\n        /* \"MultiSigWallet.sol\":2682:2729  memberApprovalStatus[msg.sender][approvalCount] */\n      0x00\n        /* \"MultiSigWallet.sol\":2715:2728  approvalCount */\n      sload(0x05)\n        /* \"MultiSigWallet.sol\":2682:2729  memberApprovalStatus[msg.sender][approvalCount] */\n      dup2\n      mstore\n      0x20\n      add\n      swap1\n      dup2\n      mstore\n      0x20\n      add\n      0x00\n      keccak256\n      0x00\n      swap1\n      sload\n      swap1\n      0x0100\n      exp\n      swap1\n      div\n      0xff\n      and\n        /* \"MultiSigWallet.sol\":2682:2758  memberApprovalStatus[msg.sender][approvalCount] == TransactionStatus.PENDING */\n      0x02\n      dup2\n      gt\n      iszero\n      tag_100\n      jumpi\n      tag_101\n      tag_63\n      jump\t// in\n    tag_101:\n    tag_100:\n      eq\n        /* \"MultiSigWallet.sol\":2674:2809  require(memberApprovalStatus[msg.sender][approvalCount] == TransactionStatus.PENDING, \"this address has already approved or rejected \") */\n      tag_102\n      jumpi\n      mload(0x40)\n      0x08c379a000000000000000000000000000000000000000000000000000000000\n      dup2\n      mstore\n      0x04\n      add\n      tag_103\n      swap1\n      tag_104\n      jump\t// in\n    tag_103:\n      mload(0x40)\n      dup1\n      swap2\n      sub\n      swap1\n      revert\n    tag_102:\n        /* \"MultiSigWallet.sol\":2882:2908  TransactionStatus.APPROVED */\n      0x01\n        /* \"MultiSigWallet.sol\":2832:2852  memberApprovalStatus */\n      0x03\n        /* \"MultiSigWallet.sol\":2832:2864  memberApprovalStatus[msg.sender] */\n      0x00\n        /* \"MultiSigWallet.sol\":2853:2863  msg.sender */\n      caller\n        /* \"MultiSigWallet.sol\":2832:2864  memberApprovalStatus[msg.sender] */\n      0xffffffffffffffffffffffffffffffffffffffff\n      and\n      0xffffffffffffffffffffffffffffffffffffffff\n      and\n      dup2\n      mstore\n      0x20\n      add\n      swap1\n      dup2\n      mstore\n      0x20\n      add\n      0x00\n      keccak256\n        /* \"MultiSigWallet.sol\":2832:2879  memberApprovalStatus[msg.sender][approvalCount] */\n      0x00\n        /* \"MultiSigWallet.sol\":2865:2878  approvalCount */\n      sload(0x05)\n        /* \"MultiSigWallet.sol\":2832:2879  memberApprovalStatus[msg.sender][approvalCount] */\n      dup2\n      mstore\n      0x20\n      add\n      swap1\n      dup2\n      mstore\n      0x20\n      add\n      0x00\n      keccak256\n      0x00\n        /* \"MultiSigWallet.sol\":2832:2908  memberApprovalStatus[msg.sender][approvalCount] = TransactionStatus.APPROVED */\n      0x0100\n      exp\n      dup2\n      sload\n      dup2\n      0xff\n      mul\n      not\n      and\n      swap1\n      dup4\n      0x02\n      dup2\n      gt\n      iszero\n      tag_105\n      jumpi\n      tag_106\n      tag_63\n      jump\t// in\n    tag_106:\n    tag_105:\n      mul\n      or\n      swap1\n      sstore\n      pop\n        /* \"MultiSigWallet.sol\":2920:2933  approvalCount */\n      0x05\n      0x00\n        /* \"MultiSigWallet.sol\":2920:2936  approvalCount ++ */\n      dup2\n      sload\n      dup1\n      swap3\n      swap2\n      swap1\n      tag_107\n      swap1\n      tag_108\n      jump\t// in\n    tag_107:\n      swap2\n      swap1\n      pop\n      sstore\n      pop\n        /* \"MultiSigWallet.sol\":3003:3004  1 */\n      0x01\n        /* \"MultiSigWallet.sol\":2998:2999  2 */\n      0x02\n        /* \"MultiSigWallet.sol\":2971:2988  walletGroupOwners */\n      0x01\n        /* \"MultiSigWallet.sol\":2971:2995  walletGroupOwners.length */\n      dup1\n      sload\n      swap1\n      pop\n        /* \"MultiSigWallet.sol\":2971:2999  walletGroupOwners.length / 2 */\n      tag_109\n      swap2\n      swap1\n      tag_110\n      jump\t// in\n    tag_109:\n        /* \"MultiSigWallet.sol\":2970:3004  (walletGroupOwners.length / 2) + 1 */\n      tag_111\n      swap2\n      swap1\n      tag_81\n      jump\t// in\n    tag_111:\n        /* \"MultiSigWallet.sol\":2953:2966  approvalCount */\n      sload(0x05)\n        /* \"MultiSigWallet.sol\":2953:3004  approvalCount == (walletGroupOwners.length / 2) + 1 */\n      sub\n        /* \"MultiSigWallet.sol\":2950:3054  if(approvalCount == (walletGroupOwners.length / 2) + 1){... */\n      tag_112\n      jumpi\n        /* \"MultiSigWallet.sol\":3021:3041  executeApprovedTxn() */\n      tag_113\n        /* \"MultiSigWallet.sol\":3021:3039  executeApprovedTxn */\n      tag_114\n        /* \"MultiSigWallet.sol\":3021:3041  executeApprovedTxn() */\n      jump\t// in\n    tag_113:\n        /* \"MultiSigWallet.sol\":2950:3054  if(approvalCount == (walletGroupOwners.length / 2) + 1){... */\n    tag_112:\n        /* \"MultiSigWallet.sol\":3100:3110  msg.sender */\n      caller\n        /* \"MultiSigWallet.sol\":3081:3139  ApproveTransaction(msg.sender, \"transaction is approved \") */\n      0xffffffffffffffffffffffffffffffffffffffff\n      and\n      0x32b28307b48215ea3a4bc71ae793fbbbfcdcb49b19167ca1bdc3c3077e5e75d5\n      mload(0x40)\n      tag_115\n      swap1\n      tag_116\n      jump\t// in\n    tag_115:\n      mload(0x40)\n      dup1\n      swap2\n      sub\n      swap1\n      log2\n        /* \"MultiSigWallet.sol\":2498:3147  function approvalOfSubmittedTxn() basicChecksForTxn public {... */\n      jump\t// out\n        /* \"MultiSigWallet.sol\":691:716  uint public approvalCount */\n    tag_33:\n      sload(0x05)\n      dup2\n      jump\t// out\n        /* \"MultiSigWallet.sol\":1449:1575  function getContractBalance () view  public returns(uint256 _contractBalance){... */\n    tag_37:\n        /* \"MultiSigWallet.sol\":1501:1525  uint256 _contractBalance */\n      0x00\n        /* \"MultiSigWallet.sol\":1544:1565  address(this).balance */\n      selfbalance\n        /* \"MultiSigWallet.sol\":1537:1565  return address(this).balance */\n      swap1\n      pop\n        /* \"MultiSigWallet.sol\":1449:1575  function getContractBalance () view  public returns(uint256 _contractBalance){... */\n      swap1\n      jump\t// out\n        /* \"MultiSigWallet.sol\":459:501  address payable[] public walletGroupOwners */\n    tag_42:\n      0x01\n      dup2\n      dup2\n      sload\n      dup2\n      lt\n      tag_118\n      jumpi\n      0x00\n      dup1\n      revert\n    tag_118:\n      swap1\n      0x00\n      mstore\n      keccak256(0x00, 0x20)\n      add\n      0x00\n      swap2\n      pop\n      sload\n      swap1\n      0x0100\n      exp\n      swap1\n      div\n      0xffffffffffffffffffffffffffffffffffffffff\n      and\n      dup2\n      jump\t// out\n        /* \"MultiSigWallet.sol\":3706:4290  function rejectedTransaction () basicChecksForTxn public {... */\n    tag_46:\n        /* \"MultiSigWallet.sol\":1244:1251  isOwner */\n      0x02\n        /* \"MultiSigWallet.sol\":1244:1263  isOwner[msg.sender] */\n      0x00\n        /* \"MultiSigWallet.sol\":1252:1262  msg.sender */\n      caller\n        /* \"MultiSigWallet.sol\":1244:1263  isOwner[msg.sender] */\n      0xffffffffffffffffffffffffffffffffffffffff\n      and\n      0xffffffffffffffffffffffffffffffffffffffff\n      and\n      dup2\n      mstore\n      0x20\n      add\n      swap1\n      dup2\n      mstore\n      0x20\n      add\n      0x00\n      keccak256\n      0x00\n      swap1\n      sload\n      swap1\n      0x0100\n      exp\n      swap1\n      div\n      0xff\n      and\n        /* \"MultiSigWallet.sol\":1236:1314  require(isOwner[msg.sender] , \"This address is not part of the Owners Group \") */\n      tag_121\n      jumpi\n      mload(0x40)\n      0x08c379a000000000000000000000000000000000000000000000000000000000\n      dup2\n      mstore\n      0x04\n      add\n      tag_122\n      swap1\n      tag_56\n      jump\t// in\n    tag_122:\n      mload(0x40)\n      dup1\n      swap2\n      sub\n      swap1\n      revert\n    tag_121:\n        /* \"MultiSigWallet.sol\":1355:1359  this */\n      address\n        /* \"MultiSigWallet.sol\":1333:1360  msg.sender != address(this) */\n      0xffffffffffffffffffffffffffffffffffffffff\n      and\n        /* \"MultiSigWallet.sol\":1333:1343  msg.sender */\n      caller\n        /* \"MultiSigWallet.sol\":1333:1360  msg.sender != address(this) */\n      0xffffffffffffffffffffffffffffffffffffffff\n      and\n      sub\n        /* \"MultiSigWallet.sol\":1325:1421  require(msg.sender != address(this) , \"The smart contract is not Allowed to call this function\") */\n      tag_123\n      jumpi\n      mload(0x40)\n      0x08c379a000000000000000000000000000000000000000000000000000000000\n      dup2\n      mstore\n      0x04\n      add\n      tag_124\n      swap1\n      tag_59\n      jump\t// in\n    tag_124:\n      mload(0x40)\n      dup1\n      swap2\n      sub\n      swap1\n      revert\n    tag_123:\n        /* \"MultiSigWallet.sol\":3796:3821  TransactionStatus.PENDING */\n      0x00\n        /* \"MultiSigWallet.sol\":3781:3821  statusOfTxn == TransactionStatus.PENDING */\n      0x02\n      dup2\n      gt\n      iszero\n      tag_126\n      jumpi\n      tag_127\n      tag_63\n      jump\t// in\n    tag_127:\n    tag_126:\n        /* \"MultiSigWallet.sol\":3781:3792  statusOfTxn */\n      0x00\n      dup1\n      sload\n      swap1\n      0x0100\n      exp\n      swap1\n      div\n      0xff\n      and\n        /* \"MultiSigWallet.sol\":3781:3821  statusOfTxn == TransactionStatus.PENDING */\n      0x02\n      dup2\n      gt\n      iszero\n      tag_128\n      jumpi\n      tag_129\n      tag_63\n      jump\t// in\n    tag_129:\n    tag_128:\n      eq\n        /* \"MultiSigWallet.sol\":3773:3866  require(statusOfTxn == TransactionStatus.PENDING , \"Txn must either be Approved or Rejected\") */\n      tag_130\n      jumpi\n      mload(0x40)\n      0x08c379a000000000000000000000000000000000000000000000000000000000\n      dup2\n      mstore\n      0x04\n      add\n      tag_131\n      swap1\n      tag_68\n      jump\t// in\n    tag_131:\n      mload(0x40)\n      dup1\n      swap2\n      sub\n      swap1\n      revert\n    tag_130:\n        /* \"MultiSigWallet.sol\":3900:3917  walletGroupOwners */\n      0x01\n        /* \"MultiSigWallet.sol\":3900:3924  walletGroupOwners.length */\n      dup1\n      sload\n      swap1\n      pop\n        /* \"MultiSigWallet.sol\":3884:3897  approvalCount */\n      sload(0x05)\n        /* \"MultiSigWallet.sol\":3884:3924  approvalCount < walletGroupOwners.length */\n      lt\n        /* \"MultiSigWallet.sol\":3876:3977  require(approvalCount < walletGroupOwners.length, \"approval count should be lower than Owner Group\" ) */\n      tag_132\n      jumpi\n      mload(0x40)\n      0x08c379a000000000000000000000000000000000000000000000000000000000\n      dup2\n      mstore\n      0x04\n      add\n      tag_133\n      swap1\n      tag_77\n      jump\t// in\n    tag_133:\n      mload(0x40)\n      dup1\n      swap2\n      sub\n      swap1\n      revert\n    tag_132:\n        /* \"MultiSigWallet.sol\":4044:4069  TransactionStatus.PENDING */\n      0x00\n        /* \"MultiSigWallet.sol\":3993:4069  memberApprovalStatus[msg.sender][approvalCount] == TransactionStatus.PENDING */\n      0x02\n      dup2\n      gt\n      iszero\n      tag_134\n      jumpi\n      tag_135\n      tag_63\n      jump\t// in\n    tag_135:\n    tag_134:\n        /* \"MultiSigWallet.sol\":3993:4013  memberApprovalStatus */\n      0x03\n        /* \"MultiSigWallet.sol\":3993:4025  memberApprovalStatus[msg.sender] */\n      0x00\n        /* \"MultiSigWallet.sol\":4014:4024  msg.sender */\n      caller\n        /* \"MultiSigWallet.sol\":3993:4025  memberApprovalStatus[msg.sender] */\n      0xffffffffffffffffffffffffffffffffffffffff\n      and\n      0xffffffffffffffffffffffffffffffffffffffff\n      and\n      dup2\n      mstore\n      0x20\n      add\n      swap1\n      dup2\n      mstore\n      0x20\n      add\n      0x00\n      keccak256\n        /* \"MultiSigWallet.sol\":3993:4040  memberApprovalStatus[msg.sender][approvalCount] */\n      0x00\n        /* \"MultiSigWallet.sol\":4026:4039  approvalCount */\n      sload(0x05)\n        /* \"MultiSigWallet.sol\":3993:4040  memberApprovalStatus[msg.sender][approvalCount] */\n      dup2\n      mstore\n      0x20\n      add\n      swap1\n      dup2\n      mstore\n      0x20\n      add\n      0x00\n      keccak256\n      0x00\n      swap1\n      sload\n      swap1\n      0x0100\n      exp\n      swap1\n      div\n      0xff\n      and\n        /* \"MultiSigWallet.sol\":3993:4069  memberApprovalStatus[msg.sender][approvalCount] == TransactionStatus.PENDING */\n      0x02\n      dup2\n      gt\n      iszero\n      tag_136\n      jumpi\n      tag_137\n      tag_63\n      jump\t// in\n    tag_137:\n    tag_136:\n      eq\n        /* \"MultiSigWallet.sol\":3985:4120  require(memberApprovalStatus[msg.sender][approvalCount] == TransactionStatus.PENDING, \"this address has already approved or rejected \") */\n      tag_138\n      jumpi\n      mload(0x40)\n      0x08c379a000000000000000000000000000000000000000000000000000000000\n      dup2\n      mstore\n      0x04\n      add\n      tag_139\n      swap1\n      tag_104\n      jump\t// in\n    tag_139:\n      mload(0x40)\n      dup1\n      swap2\n      sub\n      swap1\n      revert\n    tag_138:\n        /* \"MultiSigWallet.sol\":4180:4206  TransactionStatus.REJECTED */\n      0x02\n        /* \"MultiSigWallet.sol\":4130:4150  memberApprovalStatus */\n      0x03\n        /* \"MultiSigWallet.sol\":4130:4162  memberApprovalStatus[msg.sender] */\n      0x00\n        /* \"MultiSigWallet.sol\":4151:4161  msg.sender */\n      caller\n        /* \"MultiSigWallet.sol\":4130:4162  memberApprovalStatus[msg.sender] */\n      0xffffffffffffffffffffffffffffffffffffffff\n      and\n      0xffffffffffffffffffffffffffffffffffffffff\n      and\n      dup2\n      mstore\n      0x20\n      add\n      swap1\n      dup2\n      mstore\n      0x20\n      add\n      0x00\n      keccak256\n        /* \"MultiSigWallet.sol\":4130:4177  memberApprovalStatus[msg.sender][approvalCount] */\n      0x00\n        /* \"MultiSigWallet.sol\":4163:4176  approvalCount */\n      sload(0x05)\n        /* \"MultiSigWallet.sol\":4130:4177  memberApprovalStatus[msg.sender][approvalCount] */\n      dup2\n      mstore\n      0x20\n      add\n      swap1\n      dup2\n      mstore\n      0x20\n      add\n      0x00\n      keccak256\n      0x00\n        /* \"MultiSigWallet.sol\":4130:4206  memberApprovalStatus[msg.sender][approvalCount] = TransactionStatus.REJECTED */\n      0x0100\n      exp\n      dup2\n      sload\n      dup2\n      0xff\n      mul\n      not\n      and\n      swap1\n      dup4\n      0x02\n      dup2\n      gt\n      iszero\n      tag_140\n      jumpi\n      tag_141\n      tag_63\n      jump\t// in\n    tag_141:\n    tag_140:\n      mul\n      or\n      swap1\n      sstore\n      pop\n        /* \"MultiSigWallet.sol\":4238:4248  msg.sender */\n      caller\n        /* \"MultiSigWallet.sol\":4220:4280  RejectTransaction(msg.sender, \"This party does not approve\") */\n      0xffffffffffffffffffffffffffffffffffffffff\n      and\n      0x2e554d5cbb2e17448cad88a483da6016cba4c6940c8723fb68d14cda1de4108f\n      mload(0x40)\n      tag_142\n      swap1\n      tag_143\n      jump\t// in\n    tag_142:\n      mload(0x40)\n      dup1\n      swap2\n      sub\n      swap1\n      log2\n        /* \"MultiSigWallet.sol\":3706:4290  function rejectedTransaction () basicChecksForTxn public {... */\n      jump\t// out\n        /* \"MultiSigWallet.sol\":643:684  address payable public pendingTransaction */\n    tag_48:\n      0x04\n      0x00\n      swap1\n      sload\n      swap1\n      0x0100\n      exp\n      swap1\n      div\n      0xffffffffffffffffffffffffffffffffffffffff\n      and\n      dup2\n      jump\t// out\n        /* \"MultiSigWallet.sol\":189:225  TransactionStatus public statusOfTxn */\n    tag_51:\n      0x00\n      dup1\n      sload\n      swap1\n      0x0100\n      exp\n      swap1\n      div\n      0xff\n      and\n      dup2\n      jump\t// out\n        /* \"MultiSigWallet.sol\":3155:3698  function executeApprovedTxn() basicChecksForTxn internal {... */\n    tag_114:\n        /* \"MultiSigWallet.sol\":1244:1251  isOwner */\n      0x02\n        /* \"MultiSigWallet.sol\":1244:1263  isOwner[msg.sender] */\n      0x00\n        /* \"MultiSigWallet.sol\":1252:1262  msg.sender */\n      caller\n        /* \"MultiSigWallet.sol\":1244:1263  isOwner[msg.sender] */\n      0xffffffffffffffffffffffffffffffffffffffff\n      and\n      0xffffffffffffffffffffffffffffffffffffffff\n      and\n      dup2\n      mstore\n      0x20\n      add\n      swap1\n      dup2\n      mstore\n      0x20\n      add\n      0x00\n      keccak256\n      0x00\n      swap1\n      sload\n      swap1\n      0x0100\n      exp\n      swap1\n      div\n      0xff\n      and\n        /* \"MultiSigWallet.sol\":1236:1314  require(isOwner[msg.sender] , \"This address is not part of the Owners Group \") */\n      tag_145\n      jumpi\n      mload(0x40)\n      0x08c379a000000000000000000000000000000000000000000000000000000000\n      dup2\n      mstore\n      0x04\n      add\n      tag_146\n      swap1\n      tag_56\n      jump\t// in\n    tag_146:\n      mload(0x40)\n      dup1\n      swap2\n      sub\n      swap1\n      revert\n    tag_145:\n        /* \"MultiSigWallet.sol\":1355:1359  this */\n      address\n        /* \"MultiSigWallet.sol\":1333:1360  msg.sender != address(this) */\n      0xffffffffffffffffffffffffffffffffffffffff\n      and\n        /* \"MultiSigWallet.sol\":1333:1343  msg.sender */\n      caller\n        /* \"MultiSigWallet.sol\":1333:1360  msg.sender != address(this) */\n      0xffffffffffffffffffffffffffffffffffffffff\n      and\n      sub\n        /* \"MultiSigWallet.sol\":1325:1421  require(msg.sender != address(this) , \"The smart contract is not Allowed to call this function\") */\n      tag_147\n      jumpi\n      mload(0x40)\n      0x08c379a000000000000000000000000000000000000000000000000000000000\n      dup2\n      mstore\n      0x04\n      add\n      tag_148\n      swap1\n      tag_59\n      jump\t// in\n    tag_148:\n      mload(0x40)\n      dup1\n      swap2\n      sub\n      swap1\n      revert\n    tag_147:\n        /* \"MultiSigWallet.sol\":3244:3269  TransactionStatus.PENDING */\n      0x00\n        /* \"MultiSigWallet.sol\":3229:3269  statusOfTxn == TransactionStatus.PENDING */\n      0x02\n      dup2\n      gt\n      iszero\n      tag_150\n      jumpi\n      tag_151\n      tag_63\n      jump\t// in\n    tag_151:\n    tag_150:\n        /* \"MultiSigWallet.sol\":3229:3240  statusOfTxn */\n      0x00\n      dup1\n      sload\n      swap1\n      0x0100\n      exp\n      swap1\n      div\n      0xff\n      and\n        /* \"MultiSigWallet.sol\":3229:3269  statusOfTxn == TransactionStatus.PENDING */\n      0x02\n      dup2\n      gt\n      iszero\n      tag_152\n      jumpi\n      tag_153\n      tag_63\n      jump\t// in\n    tag_153:\n    tag_152:\n      eq\n        /* \"MultiSigWallet.sol\":3221:3314  require(statusOfTxn == TransactionStatus.PENDING , \"Txn must either be Approved or Rejected\") */\n      tag_154\n      jumpi\n      mload(0x40)\n      0x08c379a000000000000000000000000000000000000000000000000000000000\n      dup2\n      mstore\n      0x04\n      add\n      tag_155\n      swap1\n      tag_68\n      jump\t// in\n    tag_155:\n      mload(0x40)\n      dup1\n      swap2\n      sub\n      swap1\n      revert\n    tag_154:\n        /* \"MultiSigWallet.sol\":3331:3346  uint256 balance */\n      0x00\n        /* \"MultiSigWallet.sol\":3349:3370  address(this).balance */\n      selfbalance\n        /* \"MultiSigWallet.sol\":3331:3370  uint256 balance = address(this).balance */\n      swap1\n      pop\n        /* \"MultiSigWallet.sol\":3380:3392  bool success */\n      0x00\n        /* \"MultiSigWallet.sol\":3398:3416  pendingTransaction */\n      0x04\n      0x00\n      swap1\n      sload\n      swap1\n      0x0100\n      exp\n      swap1\n      div\n      0xffffffffffffffffffffffffffffffffffffffff\n      and\n        /* \"MultiSigWallet.sol\":3398:3421  pendingTransaction.call */\n      0xffffffffffffffffffffffffffffffffffffffff\n      and\n        /* \"MultiSigWallet.sol\":3428:3435  balance */\n      dup3\n        /* \"MultiSigWallet.sol\":3398:3440  pendingTransaction.call{value:balance}(\"\") */\n      mload(0x40)\n      tag_156\n      swap1\n      tag_157\n      jump\t// in\n    tag_156:\n      0x00\n      mload(0x40)\n      dup1\n      dup4\n      sub\n      dup2\n      dup6\n      dup8\n      gas\n      call\n      swap3\n      pop\n      pop\n      pop\n      returndatasize\n      dup1\n      0x00\n      dup2\n      eq\n      tag_160\n      jumpi\n      mload(0x40)\n      swap2\n      pop\n      and(add(returndatasize, 0x3f), not(0x1f))\n      dup3\n      add\n      0x40\n      mstore\n      returndatasize\n      dup3\n      mstore\n      returndatasize\n      0x00\n      0x20\n      dup5\n      add\n      returndatacopy\n      jump(tag_159)\n    tag_160:\n      0x60\n      swap2\n      pop\n    tag_159:\n      pop\n        /* \"MultiSigWallet.sol\":3379:3440  (bool success, ) = pendingTransaction.call{value:balance}(\"\") */\n      pop\n      swap1\n      pop\n        /* \"MultiSigWallet.sol\":3458:3465  success */\n      dup1\n        /* \"MultiSigWallet.sol\":3450:3486  require(success, \"FAILED EXECUTION\") */\n      tag_161\n      jumpi\n      mload(0x40)\n      0x08c379a000000000000000000000000000000000000000000000000000000000\n      dup2\n      mstore\n      0x04\n      add\n      tag_162\n      swap1\n      tag_163\n      jump\t// in\n    tag_162:\n      mload(0x40)\n      dup1\n      swap2\n      sub\n      swap1\n      revert\n    tag_161:\n        /* \"MultiSigWallet.sol\":3511:3537  TransactionStatus.APPROVED */\n      0x01\n        /* \"MultiSigWallet.sol\":3497:3508  statusOfTxn */\n      0x00\n      dup1\n        /* \"MultiSigWallet.sol\":3497:3537  statusOfTxn = TransactionStatus.APPROVED */\n      0x0100\n      exp\n      dup2\n      sload\n      dup2\n      0xff\n      mul\n      not\n      and\n      swap1\n      dup4\n      0x02\n      dup2\n      gt\n      iszero\n      tag_164\n      jumpi\n      tag_165\n      tag_63\n      jump\t// in\n    tag_165:\n    tag_164:\n      mul\n      or\n      swap1\n      sstore\n      pop\n        /* \"MultiSigWallet.sol\":3564:3565  0 */\n      0x00\n        /* \"MultiSigWallet.sol\":3548:3561  approvalCount */\n      0x05\n        /* \"MultiSigWallet.sol\":3548:3565  approvalCount = 0 */\n      dup2\n      swap1\n      sstore\n      pop\n        /* \"MultiSigWallet.sol\":3613:3614  0 */\n      0x00\n        /* \"MultiSigWallet.sol\":3576:3594  pendingTransaction */\n      0x04\n      0x00\n        /* \"MultiSigWallet.sol\":3576:3616  pendingTransaction = payable(address(0)) */\n      0x0100\n      exp\n      dup2\n      sload\n      dup2\n      0xffffffffffffffffffffffffffffffffffffffff\n      mul\n      not\n      and\n      swap1\n      dup4\n      0xffffffffffffffffffffffffffffffffffffffff\n      and\n      mul\n      or\n      swap1\n      sstore\n      pop\n        /* \"MultiSigWallet.sol\":3653:3663  msg.sender */\n      caller\n        /* \"MultiSigWallet.sol\":3634:3686  ExecuteTransaction(msg.sender, \"EXECUTION COMPLETE\") */\n      0xffffffffffffffffffffffffffffffffffffffff\n      and\n      0x3b60d8a40db278d18a836f1f84e64063127b2377c94afa9724d8b0fa230d6d6d\n      mload(0x40)\n      tag_166\n      swap1\n      tag_167\n      jump\t// in\n    tag_166:\n      mload(0x40)\n      dup1\n      swap2\n      sub\n      swap1\n      log2\n        /* \"MultiSigWallet.sol\":3212:3698  {... */\n      pop\n      pop\n        /* \"MultiSigWallet.sol\":3155:3698  function executeApprovedTxn() basicChecksForTxn internal {... */\n      jump\t// out\n        /* \"#utility.yul\":88:205   */\n    tag_169:\n        /* \"#utility.yul\":197:198   */\n      0x00\n        /* \"#utility.yul\":194:195   */\n      dup1\n        /* \"#utility.yul\":187:199   */\n      revert\n        /* \"#utility.yul\":334:460   */\n    tag_171:\n        /* \"#utility.yul\":371:378   */\n      0x00\n        /* \"#utility.yul\":411:453   */\n      0xffffffffffffffffffffffffffffffffffffffff\n        /* \"#utility.yul\":404:409   */\n      dup3\n        /* \"#utility.yul\":400:454   */\n      and\n        /* \"#utility.yul\":389:454   */\n      swap1\n      pop\n        /* \"#utility.yul\":334:460   */\n      swap2\n      swap1\n      pop\n      jump\t// out\n        /* \"#utility.yul\":466:570   */\n    tag_172:\n        /* \"#utility.yul\":511:518   */\n      0x00\n        /* \"#utility.yul\":540:564   */\n      tag_225\n        /* \"#utility.yul\":558:563   */\n      dup3\n        /* \"#utility.yul\":540:564   */\n      tag_171\n      jump\t// in\n    tag_225:\n        /* \"#utility.yul\":529:564   */\n      swap1\n      pop\n        /* \"#utility.yul\":466:570   */\n      swap2\n      swap1\n      pop\n      jump\t// out\n        /* \"#utility.yul\":576:714   */\n    tag_173:\n        /* \"#utility.yul\":657:689   */\n      tag_227\n        /* \"#utility.yul\":683:688   */\n      dup2\n        /* \"#utility.yul\":657:689   */\n      tag_172\n      jump\t// in\n    tag_227:\n        /* \"#utility.yul\":650:655   */\n      dup2\n        /* \"#utility.yul\":647:690   */\n      eq\n        /* \"#utility.yul\":637:708   */\n      tag_228\n      jumpi\n        /* \"#utility.yul\":704:705   */\n      0x00\n        /* \"#utility.yul\":701:702   */\n      dup1\n        /* \"#utility.yul\":694:706   */\n      revert\n        /* \"#utility.yul\":637:708   */\n    tag_228:\n        /* \"#utility.yul\":576:714   */\n      pop\n      jump\t// out\n        /* \"#utility.yul\":720:875   */\n    tag_174:\n        /* \"#utility.yul\":774:779   */\n      0x00\n        /* \"#utility.yul\":812:818   */\n      dup2\n        /* \"#utility.yul\":799:819   */\n      calldataload\n        /* \"#utility.yul\":790:819   */\n      swap1\n      pop\n        /* \"#utility.yul\":828:869   */\n      tag_230\n        /* \"#utility.yul\":863:868   */\n      dup2\n        /* \"#utility.yul\":828:869   */\n      tag_173\n      jump\t// in\n    tag_230:\n        /* \"#utility.yul\":720:875   */\n      swap3\n      swap2\n      pop\n      pop\n      jump\t// out\n        /* \"#utility.yul\":881:958   */\n    tag_175:\n        /* \"#utility.yul\":918:925   */\n      0x00\n        /* \"#utility.yul\":947:952   */\n      dup2\n        /* \"#utility.yul\":936:952   */\n      swap1\n      pop\n        /* \"#utility.yul\":881:958   */\n      swap2\n      swap1\n      pop\n      jump\t// out\n        /* \"#utility.yul\":964:1086   */\n    tag_176:\n        /* \"#utility.yul\":1037:1061   */\n      tag_233\n        /* \"#utility.yul\":1055:1060   */\n      dup2\n        /* \"#utility.yul\":1037:1061   */\n      tag_175\n      jump\t// in\n    tag_233:\n        /* \"#utility.yul\":1030:1035   */\n      dup2\n        /* \"#utility.yul\":1027:1062   */\n      eq\n        /* \"#utility.yul\":1017:1080   */\n      tag_234\n      jumpi\n        /* \"#utility.yul\":1076:1077   */\n      0x00\n        /* \"#utility.yul\":1073:1074   */\n      dup1\n        /* \"#utility.yul\":1066:1078   */\n      revert\n        /* \"#utility.yul\":1017:1080   */\n    tag_234:\n        /* \"#utility.yul\":964:1086   */\n      pop\n      jump\t// out\n        /* \"#utility.yul\":1092:1231   */\n    tag_177:\n        /* \"#utility.yul\":1138:1143   */\n      0x00\n        /* \"#utility.yul\":1176:1182   */\n      dup2\n        /* \"#utility.yul\":1163:1183   */\n      calldataload\n        /* \"#utility.yul\":1154:1183   */\n      swap1\n      pop\n        /* \"#utility.yul\":1192:1225   */\n      tag_236\n        /* \"#utility.yul\":1219:1224   */\n      dup2\n        /* \"#utility.yul\":1192:1225   */\n      tag_176\n      jump\t// in\n    tag_236:\n        /* \"#utility.yul\":1092:1231   */\n      swap3\n      swap2\n      pop\n      pop\n      jump\t// out\n        /* \"#utility.yul\":1237:1727   */\n    tag_16:\n        /* \"#utility.yul\":1313:1319   */\n      0x00\n        /* \"#utility.yul\":1321:1327   */\n      dup1\n        /* \"#utility.yul\":1370:1372   */\n      0x40\n        /* \"#utility.yul\":1358:1367   */\n      dup4\n        /* \"#utility.yul\":1349:1356   */\n      dup6\n        /* \"#utility.yul\":1345:1368   */\n      sub\n        /* \"#utility.yul\":1341:1373   */\n      slt\n        /* \"#utility.yul\":1338:1457   */\n      iszero\n      tag_238\n      jumpi\n        /* \"#utility.yul\":1376:1455   */\n      tag_239\n      tag_169\n      jump\t// in\n    tag_239:\n        /* \"#utility.yul\":1338:1457   */\n    tag_238:\n        /* \"#utility.yul\":1496:1497   */\n      0x00\n        /* \"#utility.yul\":1521:1582   */\n      tag_240\n        /* \"#utility.yul\":1574:1581   */\n      dup6\n        /* \"#utility.yul\":1565:1571   */\n      dup3\n        /* \"#utility.yul\":1554:1563   */\n      dup7\n        /* \"#utility.yul\":1550:1572   */\n      add\n        /* \"#utility.yul\":1521:1582   */\n      tag_174\n      jump\t// in\n    tag_240:\n        /* \"#utility.yul\":1511:1582   */\n      swap3\n      pop\n        /* \"#utility.yul\":1467:1592   */\n      pop\n        /* \"#utility.yul\":1631:1633   */\n      0x20\n        /* \"#utility.yul\":1657:1710   */\n      tag_241\n        /* \"#utility.yul\":1702:1709   */\n      dup6\n        /* \"#utility.yul\":1693:1699   */\n      dup3\n        /* \"#utility.yul\":1682:1691   */\n      dup7\n        /* \"#utility.yul\":1678:1700   */\n      add\n        /* \"#utility.yul\":1657:1710   */\n      tag_177\n      jump\t// in\n    tag_241:\n        /* \"#utility.yul\":1647:1710   */\n      swap2\n      pop\n        /* \"#utility.yul\":1602:1720   */\n      pop\n        /* \"#utility.yul\":1237:1727   */\n      swap3\n      pop\n      swap3\n      swap1\n      pop\n      jump\t// out\n        /* \"#utility.yul\":1733:1829   */\n    tag_178:\n        /* \"#utility.yul\":1770:1777   */\n      0x00\n        /* \"#utility.yul\":1799:1823   */\n      tag_243\n        /* \"#utility.yul\":1817:1822   */\n      dup3\n        /* \"#utility.yul\":1799:1823   */\n      tag_171\n      jump\t// in\n    tag_243:\n        /* \"#utility.yul\":1788:1823   */\n      swap1\n      pop\n        /* \"#utility.yul\":1733:1829   */\n      swap2\n      swap1\n      pop\n      jump\t// out\n        /* \"#utility.yul\":1835:1957   */\n    tag_179:\n        /* \"#utility.yul\":1908:1932   */\n      tag_245\n        /* \"#utility.yul\":1926:1931   */\n      dup2\n        /* \"#utility.yul\":1908:1932   */\n      tag_178\n      jump\t// in\n    tag_245:\n        /* \"#utility.yul\":1901:1906   */\n      dup2\n        /* \"#utility.yul\":1898:1933   */\n      eq\n        /* \"#utility.yul\":1888:1951   */\n      tag_246\n      jumpi\n        /* \"#utility.yul\":1947:1948   */\n      0x00\n        /* \"#utility.yul\":1944:1945   */\n      dup1\n        /* \"#utility.yul\":1937:1949   */\n      revert\n        /* \"#utility.yul\":1888:1951   */\n    tag_246:\n        /* \"#utility.yul\":1835:1957   */\n      pop\n      jump\t// out\n        /* \"#utility.yul\":1963:2102   */\n    tag_180:\n        /* \"#utility.yul\":2009:2014   */\n      0x00\n        /* \"#utility.yul\":2047:2053   */\n      dup2\n        /* \"#utility.yul\":2034:2054   */\n      calldataload\n        /* \"#utility.yul\":2025:2054   */\n      swap1\n      pop\n        /* \"#utility.yul\":2063:2096   */\n      tag_248\n        /* \"#utility.yul\":2090:2095   */\n      dup2\n        /* \"#utility.yul\":2063:2096   */\n      tag_179\n      jump\t// in\n    tag_248:\n        /* \"#utility.yul\":1963:2102   */\n      swap3\n      swap2\n      pop\n      pop\n      jump\t// out\n        /* \"#utility.yul\":2108:2582   */\n    tag_20:\n        /* \"#utility.yul\":2176:2182   */\n      0x00\n        /* \"#utility.yul\":2184:2190   */\n      dup1\n        /* \"#utility.yul\":2233:2235   */\n      0x40\n        /* \"#utility.yul\":2221:2230   */\n      dup4\n        /* \"#utility.yul\":2212:2219   */\n      dup6\n        /* \"#utility.yul\":2208:2231   */\n      sub\n        /* \"#utility.yul\":2204:2236   */\n      slt\n        /* \"#utility.yul\":2201:2320   */\n      iszero\n      tag_250\n      jumpi\n        /* \"#utility.yul\":2239:2318   */\n      tag_251\n      tag_169\n      jump\t// in\n    tag_251:\n        /* \"#utility.yul\":2201:2320   */\n    tag_250:\n        /* \"#utility.yul\":2359:2360   */\n      0x00\n        /* \"#utility.yul\":2384:2437   */\n      tag_252\n        /* \"#utility.yul\":2429:2436   */\n      dup6\n        /* \"#utility.yul\":2420:2426   */\n      dup3\n        /* \"#utility.yul\":2409:2418   */\n      dup7\n        /* \"#utility.yul\":2405:2427   */\n      add\n        /* \"#utility.yul\":2384:2437   */\n      tag_180\n      jump\t// in\n    tag_252:\n        /* \"#utility.yul\":2374:2437   */\n      swap3\n      pop\n        /* \"#utility.yul\":2330:2447   */\n      pop\n        /* \"#utility.yul\":2486:2488   */\n      0x20\n        /* \"#utility.yul\":2512:2565   */\n      tag_253\n        /* \"#utility.yul\":2557:2564   */\n      dup6\n        /* \"#utility.yul\":2548:2554   */\n      dup3\n        /* \"#utility.yul\":2537:2546   */\n      dup7\n        /* \"#utility.yul\":2533:2555   */\n      add\n        /* \"#utility.yul\":2512:2565   */\n      tag_177\n      jump\t// in\n    tag_253:\n        /* \"#utility.yul\":2502:2565   */\n      swap2\n      pop\n        /* \"#utility.yul\":2457:2575   */\n      pop\n        /* \"#utility.yul\":2108:2582   */\n      swap3\n      pop\n      swap3\n      swap1\n      pop\n      jump\t// out\n        /* \"#utility.yul\":2588:2768   */\n    tag_63:\n        /* \"#utility.yul\":2636:2713   */\n      0x4e487b7100000000000000000000000000000000000000000000000000000000\n        /* \"#utility.yul\":2633:2634   */\n      0x00\n        /* \"#utility.yul\":2626:2714   */\n      mstore\n        /* \"#utility.yul\":2733:2737   */\n      0x21\n        /* \"#utility.yul\":2730:2731   */\n      0x04\n        /* \"#utility.yul\":2723:2738   */\n      mstore\n        /* \"#utility.yul\":2757:2761   */\n      0x24\n        /* \"#utility.yul\":2754:2755   */\n      0x00\n        /* \"#utility.yul\":2747:2762   */\n      revert\n        /* \"#utility.yul\":2774:2898   */\n    tag_181:\n        /* \"#utility.yul\":2866:2867   */\n      0x03\n        /* \"#utility.yul\":2859:2864   */\n      dup2\n        /* \"#utility.yul\":2856:2868   */\n      lt\n        /* \"#utility.yul\":2846:2892   */\n      tag_256\n      jumpi\n        /* \"#utility.yul\":2872:2890   */\n      tag_257\n      tag_63\n      jump\t// in\n    tag_257:\n        /* \"#utility.yul\":2846:2892   */\n    tag_256:\n        /* \"#utility.yul\":2774:2898   */\n      pop\n      jump\t// out\n        /* \"#utility.yul\":2904:3053   */\n    tag_182:\n        /* \"#utility.yul\":2960:2967   */\n      0x00\n        /* \"#utility.yul\":2989:2994   */\n      dup2\n        /* \"#utility.yul\":2978:2994   */\n      swap1\n      pop\n        /* \"#utility.yul\":2995:3047   */\n      tag_259\n        /* \"#utility.yul\":3041:3046   */\n      dup3\n        /* \"#utility.yul\":2995:3047   */\n      tag_181\n      jump\t// in\n    tag_259:\n        /* \"#utility.yul\":2904:3053   */\n      swap2\n      swap1\n      pop\n      jump\t// out\n        /* \"#utility.yul\":3059:3208   */\n    tag_183:\n        /* \"#utility.yul\":3126:3135   */\n      0x00\n        /* \"#utility.yul\":3159:3202   */\n      tag_261\n        /* \"#utility.yul\":3196:3201   */\n      dup3\n        /* \"#utility.yul\":3159:3202   */\n      tag_182\n      jump\t// in\n    tag_261:\n        /* \"#utility.yul\":3146:3202   */\n      swap1\n      pop\n        /* \"#utility.yul\":3059:3208   */\n      swap2\n      swap1\n      pop\n      jump\t// out\n        /* \"#utility.yul\":3214:3379   */\n    tag_184:\n        /* \"#utility.yul\":3318:3372   */\n      tag_263\n        /* \"#utility.yul\":3366:3371   */\n      dup2\n        /* \"#utility.yul\":3318:3372   */\n      tag_183\n      jump\t// in\n    tag_263:\n        /* \"#utility.yul\":3313:3316   */\n      dup3\n        /* \"#utility.yul\":3306:3373   */\n      mstore\n        /* \"#utility.yul\":3214:3379   */\n      pop\n      pop\n      jump\t// out\n        /* \"#utility.yul\":3385:3641   */\n    tag_23:\n        /* \"#utility.yul\":3495:3499   */\n      0x00\n        /* \"#utility.yul\":3533:3535   */\n      0x20\n        /* \"#utility.yul\":3522:3531   */\n      dup3\n        /* \"#utility.yul\":3518:3536   */\n      add\n        /* \"#utility.yul\":3510:3536   */\n      swap1\n      pop\n        /* \"#utility.yul\":3546:3634   */\n      tag_265\n        /* \"#utility.yul\":3631:3632   */\n      0x00\n        /* \"#utility.yul\":3620:3629   */\n      dup4\n        /* \"#utility.yul\":3616:3633   */\n      add\n        /* \"#utility.yul\":3607:3613   */\n      dup5\n        /* \"#utility.yul\":3546:3634   */\n      tag_184\n      jump\t// in\n    tag_265:\n        /* \"#utility.yul\":3385:3641   */\n      swap3\n      swap2\n      pop\n      pop\n      jump\t// out\n        /* \"#utility.yul\":3647:3976   */\n    tag_26:\n        /* \"#utility.yul\":3706:3712   */\n      0x00\n        /* \"#utility.yul\":3755:3757   */\n      0x20\n        /* \"#utility.yul\":3743:3752   */\n      dup3\n        /* \"#utility.yul\":3734:3741   */\n      dup5\n        /* \"#utility.yul\":3730:3753   */\n      sub\n        /* \"#utility.yul\":3726:3758   */\n      slt\n        /* \"#utility.yul\":3723:3842   */\n      iszero\n      tag_267\n      jumpi\n        /* \"#utility.yul\":3761:3840   */\n      tag_268\n      tag_169\n      jump\t// in\n    tag_268:\n        /* \"#utility.yul\":3723:3842   */\n    tag_267:\n        /* \"#utility.yul\":3881:3882   */\n      0x00\n        /* \"#utility.yul\":3906:3959   */\n      tag_269\n        /* \"#utility.yul\":3951:3958   */\n      dup5\n        /* \"#utility.yul\":3942:3948   */\n      dup3\n        /* \"#utility.yul\":3931:3940   */\n      dup6\n        /* \"#utility.yul\":3927:3949   */\n      add\n        /* \"#utility.yul\":3906:3959   */\n      tag_180\n      jump\t// in\n    tag_269:\n        /* \"#utility.yul\":3896:3959   */\n      swap2\n      pop\n        /* \"#utility.yul\":3852:3969   */\n      pop\n        /* \"#utility.yul\":3647:3976   */\n      swap3\n      swap2\n      pop\n      pop\n      jump\t// out\n        /* \"#utility.yul\":3982:4072   */\n    tag_185:\n        /* \"#utility.yul\":4016:4023   */\n      0x00\n        /* \"#utility.yul\":4059:4064   */\n      dup2\n        /* \"#utility.yul\":4052:4065   */\n      iszero\n        /* \"#utility.yul\":4045:4066   */\n      iszero\n        /* \"#utility.yul\":4034:4066   */\n      swap1\n      pop\n        /* \"#utility.yul\":3982:4072   */\n      swap2\n      swap1\n      pop\n      jump\t// out\n        /* \"#utility.yul\":4078:4187   */\n    tag_186:\n        /* \"#utility.yul\":4159:4180   */\n      tag_272\n        /* \"#utility.yul\":4174:4179   */\n      dup2\n        /* \"#utility.yul\":4159:4180   */\n      tag_185\n      jump\t// in\n    tag_272:\n        /* \"#utility.yul\":4154:4157   */\n      dup3\n        /* \"#utility.yul\":4147:4181   */\n      mstore\n        /* \"#utility.yul\":4078:4187   */\n      pop\n      pop\n      jump\t// out\n        /* \"#utility.yul\":4193:4403   */\n    tag_29:\n        /* \"#utility.yul\":4280:4284   */\n      0x00\n        /* \"#utility.yul\":4318:4320   */\n      0x20\n        /* \"#utility.yul\":4307:4316   */\n      dup3\n        /* \"#utility.yul\":4303:4321   */\n      add\n        /* \"#utility.yul\":4295:4321   */\n      swap1\n      pop\n        /* \"#utility.yul\":4331:4396   */\n      tag_274\n        /* \"#utility.yul\":4393:4394   */\n      0x00\n        /* \"#utility.yul\":4382:4391   */\n      dup4\n        /* \"#utility.yul\":4378:4395   */\n      add\n        /* \"#utility.yul\":4369:4375   */\n      dup5\n        /* \"#utility.yul\":4331:4396   */\n      tag_186\n      jump\t// in\n    tag_274:\n        /* \"#utility.yul\":4193:4403   */\n      swap3\n      swap2\n      pop\n      pop\n      jump\t// out\n        /* \"#utility.yul\":4409:4527   */\n    tag_187:\n        /* \"#utility.yul\":4496:4520   */\n      tag_276\n        /* \"#utility.yul\":4514:4519   */\n      dup2\n        /* \"#utility.yul\":4496:4520   */\n      tag_175\n      jump\t// in\n    tag_276:\n        /* \"#utility.yul\":4491:4494   */\n      dup3\n        /* \"#utility.yul\":4484:4521   */\n      mstore\n        /* \"#utility.yul\":4409:4527   */\n      pop\n      pop\n      jump\t// out\n        /* \"#utility.yul\":4533:4755   */\n    tag_35:\n        /* \"#utility.yul\":4626:4630   */\n      0x00\n        /* \"#utility.yul\":4664:4666   */\n      0x20\n        /* \"#utility.yul\":4653:4662   */\n      dup3\n        /* \"#utility.yul\":4649:4667   */\n      add\n        /* \"#utility.yul\":4641:4667   */\n      swap1\n      pop\n        /* \"#utility.yul\":4677:4748   */\n      tag_278\n        /* \"#utility.yul\":4745:4746   */\n      0x00\n        /* \"#utility.yul\":4734:4743   */\n      dup4\n        /* \"#utility.yul\":4730:4747   */\n      add\n        /* \"#utility.yul\":4721:4727   */\n      dup5\n        /* \"#utility.yul\":4677:4748   */\n      tag_187\n      jump\t// in\n    tag_278:\n        /* \"#utility.yul\":4533:4755   */\n      swap3\n      swap2\n      pop\n      pop\n      jump\t// out\n        /* \"#utility.yul\":4761:5090   */\n    tag_41:\n        /* \"#utility.yul\":4820:4826   */\n      0x00\n        /* \"#utility.yul\":4869:4871   */\n      0x20\n        /* \"#utility.yul\":4857:4866   */\n      dup3\n        /* \"#utility.yul\":4848:4855   */\n      dup5\n        /* \"#utility.yul\":4844:4867   */\n      sub\n        /* \"#utility.yul\":4840:4872   */\n      slt\n        /* \"#utility.yul\":4837:4956   */\n      iszero\n      tag_280\n      jumpi\n        /* \"#utility.yul\":4875:4954   */\n      tag_281\n      tag_169\n      jump\t// in\n    tag_281:\n        /* \"#utility.yul\":4837:4956   */\n    tag_280:\n        /* \"#utility.yul\":4995:4996   */\n      0x00\n        /* \"#utility.yul\":5020:5073   */\n      tag_282\n        /* \"#utility.yul\":5065:5072   */\n      dup5\n        /* \"#utility.yul\":5056:5062   */\n      dup3\n        /* \"#utility.yul\":5045:5054   */\n      dup6\n        /* \"#utility.yul\":5041:5063   */\n      add\n        /* \"#utility.yul\":5020:5073   */\n      tag_177\n      jump\t// in\n    tag_282:\n        /* \"#utility.yul\":5010:5073   */\n      swap2\n      pop\n        /* \"#utility.yul\":4966:5083   */\n      pop\n        /* \"#utility.yul\":4761:5090   */\n      swap3\n      swap2\n      pop\n      pop\n      jump\t// out\n        /* \"#utility.yul\":5096:5238   */\n    tag_188:\n        /* \"#utility.yul\":5199:5231   */\n      tag_284\n        /* \"#utility.yul\":5225:5230   */\n      dup2\n        /* \"#utility.yul\":5199:5231   */\n      tag_172\n      jump\t// in\n    tag_284:\n        /* \"#utility.yul\":5194:5197   */\n      dup3\n        /* \"#utility.yul\":5187:5232   */\n      mstore\n        /* \"#utility.yul\":5096:5238   */\n      pop\n      pop\n      jump\t// out\n        /* \"#utility.yul\":5244:5498   */\n    tag_44:\n        /* \"#utility.yul\":5353:5357   */\n      0x00\n        /* \"#utility.yul\":5391:5393   */\n      0x20\n        /* \"#utility.yul\":5380:5389   */\n      dup3\n        /* \"#utility.yul\":5376:5394   */\n      add\n        /* \"#utility.yul\":5368:5394   */\n      swap1\n      pop\n        /* \"#utility.yul\":5404:5491   */\n      tag_286\n        /* \"#utility.yul\":5488:5489   */\n      0x00\n        /* \"#utility.yul\":5477:5486   */\n      dup4\n        /* \"#utility.yul\":5473:5490   */\n      add\n        /* \"#utility.yul\":5464:5470   */\n      dup5\n        /* \"#utility.yul\":5404:5491   */\n      tag_188\n      jump\t// in\n    tag_286:\n        /* \"#utility.yul\":5244:5498   */\n      swap3\n      swap2\n      pop\n      pop\n      jump\t// out\n        /* \"#utility.yul\":5504:5673   */\n    tag_189:\n        /* \"#utility.yul\":5588:5599   */\n      0x00\n        /* \"#utility.yul\":5622:5628   */\n      dup3\n        /* \"#utility.yul\":5617:5620   */\n      dup3\n        /* \"#utility.yul\":5610:5629   */\n      mstore\n        /* \"#utility.yul\":5662:5666   */\n      0x20\n        /* \"#utility.yul\":5657:5660   */\n      dup3\n        /* \"#utility.yul\":5653:5667   */\n      add\n        /* \"#utility.yul\":5638:5667   */\n      swap1\n      pop\n        /* \"#utility.yul\":5504:5673   */\n      swap3\n      swap2\n      pop\n      pop\n      jump\t// out\n        /* \"#utility.yul\":5679:5911   */\n    tag_190:\n        /* \"#utility.yul\":5819:5853   */\n      0x546869732061646472657373206973206e6f742070617274206f662074686520\n        /* \"#utility.yul\":5815:5816   */\n      0x00\n        /* \"#utility.yul\":5807:5813   */\n      dup3\n        /* \"#utility.yul\":5803:5817   */\n      add\n        /* \"#utility.yul\":5796:5854   */\n      mstore\n        /* \"#utility.yul\":5888:5903   */\n      0x4f776e6572732047726f75702000000000000000000000000000000000000000\n        /* \"#utility.yul\":5883:5885   */\n      0x20\n        /* \"#utility.yul\":5875:5881   */\n      dup3\n        /* \"#utility.yul\":5871:5886   */\n      add\n        /* \"#utility.yul\":5864:5904   */\n      mstore\n        /* \"#utility.yul\":5679:5911   */\n      pop\n      jump\t// out\n        /* \"#utility.yul\":5917:6283   */\n    tag_191:\n        /* \"#utility.yul\":6059:6062   */\n      0x00\n        /* \"#utility.yul\":6080:6147   */\n      tag_290\n        /* \"#utility.yul\":6144:6146   */\n      0x2d\n        /* \"#utility.yul\":6139:6142   */\n      dup4\n        /* \"#utility.yul\":6080:6147   */\n      tag_189\n      jump\t// in\n    tag_290:\n        /* \"#utility.yul\":6073:6147   */\n      swap2\n      pop\n        /* \"#utility.yul\":6156:6249   */\n      tag_291\n        /* \"#utility.yul\":6245:6248   */\n      dup3\n        /* \"#utility.yul\":6156:6249   */\n      tag_190\n      jump\t// in\n    tag_291:\n        /* \"#utility.yul\":6274:6276   */\n      0x40\n        /* \"#utility.yul\":6269:6272   */\n      dup3\n        /* \"#utility.yul\":6265:6277   */\n      add\n        /* \"#utility.yul\":6258:6277   */\n      swap1\n      pop\n        /* \"#utility.yul\":5917:6283   */\n      swap2\n      swap1\n      pop\n      jump\t// out\n        /* \"#utility.yul\":6289:6708   */\n    tag_56:\n        /* \"#utility.yul\":6455:6459   */\n      0x00\n        /* \"#utility.yul\":6493:6495   */\n      0x20\n        /* \"#utility.yul\":6482:6491   */\n      dup3\n        /* \"#utility.yul\":6478:6496   */\n      add\n        /* \"#utility.yul\":6470:6496   */\n      swap1\n      pop\n        /* \"#utility.yul\":6542:6551   */\n      dup2\n        /* \"#utility.yul\":6536:6540   */\n      dup2\n        /* \"#utility.yul\":6532:6552   */\n      sub\n        /* \"#utility.yul\":6528:6529   */\n      0x00\n        /* \"#utility.yul\":6517:6526   */\n      dup4\n        /* \"#utility.yul\":6513:6530   */\n      add\n        /* \"#utility.yul\":6506:6553   */\n      mstore\n        /* \"#utility.yul\":6570:6701   */\n      tag_293\n        /* \"#utility.yul\":6696:6700   */\n      dup2\n        /* \"#utility.yul\":6570:6701   */\n      tag_191\n      jump\t// in\n    tag_293:\n        /* \"#utility.yul\":6562:6701   */\n      swap1\n      pop\n        /* \"#utility.yul\":6289:6708   */\n      swap2\n      swap1\n      pop\n      jump\t// out\n        /* \"#utility.yul\":6714:6956   */\n    tag_192:\n        /* \"#utility.yul\":6854:6888   */\n      0x54686520736d61727420636f6e7472616374206973206e6f7420416c6c6f7765\n        /* \"#utility.yul\":6850:6851   */\n      0x00\n        /* \"#utility.yul\":6842:6848   */\n      dup3\n        /* \"#utility.yul\":6838:6852   */\n      add\n        /* \"#utility.yul\":6831:6889   */\n      mstore\n        /* \"#utility.yul\":6923:6948   */\n      0x6420746f2063616c6c20746869732066756e6374696f6e000000000000000000\n        /* \"#utility.yul\":6918:6920   */\n      0x20\n        /* \"#utility.yul\":6910:6916   */\n      dup3\n        /* \"#utility.yul\":6906:6921   */\n      add\n        /* \"#utility.yul\":6899:6949   */\n      mstore\n        /* \"#utility.yul\":6714:6956   */\n      pop\n      jump\t// out\n        /* \"#utility.yul\":6962:7328   */\n    tag_193:\n        /* \"#utility.yul\":7104:7107   */\n      0x00\n        /* \"#utility.yul\":7125:7192   */\n      tag_296\n        /* \"#utility.yul\":7189:7191   */\n      0x37\n        /* \"#utility.yul\":7184:7187   */\n      dup4\n        /* \"#utility.yul\":7125:7192   */\n      tag_189\n      jump\t// in\n    tag_296:\n        /* \"#utility.yul\":7118:7192   */\n      swap2\n      pop\n        /* \"#utility.yul\":7201:7294   */\n      tag_297\n        /* \"#utility.yul\":7290:7293   */\n      dup3\n        /* \"#utility.yul\":7201:7294   */\n      tag_192\n      jump\t// in\n    tag_297:\n        /* \"#utility.yul\":7319:7321   */\n      0x40\n        /* \"#utility.yul\":7314:7317   */\n      dup3\n        /* \"#utility.yul\":7310:7322   */\n      add\n        /* \"#utility.yul\":7303:7322   */\n      swap1\n      pop\n        /* \"#utility.yul\":6962:7328   */\n      swap2\n      swap1\n      pop\n      jump\t// out\n        /* \"#utility.yul\":7334:7753   */\n    tag_59:\n        /* \"#utility.yul\":7500:7504   */\n      0x00\n        /* \"#utility.yul\":7538:7540   */\n      0x20\n        /* \"#utility.yul\":7527:7536   */\n      dup3\n        /* \"#utility.yul\":7523:7541   */\n      add\n        /* \"#utility.yul\":7515:7541   */\n      swap1\n      pop\n        /* \"#utility.yul\":7587:7596   */\n      dup2\n        /* \"#utility.yul\":7581:7585   */\n      dup2\n        /* \"#utility.yul\":7577:7597   */\n      sub\n        /* \"#utility.yul\":7573:7574   */\n      0x00\n        /* \"#utility.yul\":7562:7571   */\n      dup4\n        /* \"#utility.yul\":7558:7575   */\n      add\n        /* \"#utility.yul\":7551:7598   */\n      mstore\n        /* \"#utility.yul\":7615:7746   */\n      tag_299\n        /* \"#utility.yul\":7741:7745   */\n      dup2\n        /* \"#utility.yul\":7615:7746   */\n      tag_193\n      jump\t// in\n    tag_299:\n        /* \"#utility.yul\":7607:7746   */\n      swap1\n      pop\n        /* \"#utility.yul\":7334:7753   */\n      swap2\n      swap1\n      pop\n      jump\t// out\n        /* \"#utility.yul\":7759:7985   */\n    tag_194:\n        /* \"#utility.yul\":7899:7933   */\n      0x54786e206d7573742065697468657220626520417070726f766564206f722052\n        /* \"#utility.yul\":7895:7896   */\n      0x00\n        /* \"#utility.yul\":7887:7893   */\n      dup3\n        /* \"#utility.yul\":7883:7897   */\n      add\n        /* \"#utility.yul\":7876:7934   */\n      mstore\n        /* \"#utility.yul\":7968:7977   */\n      0x656a656374656400000000000000000000000000000000000000000000000000\n        /* \"#utility.yul\":7963:7965   */\n      0x20\n        /* \"#utility.yul\":7955:7961   */\n      dup3\n        /* \"#utility.yul\":7951:7966   */\n      add\n        /* \"#utility.yul\":7944:7978   */\n      mstore\n        /* \"#utility.yul\":7759:7985   */\n      pop\n      jump\t// out\n        /* \"#utility.yul\":7991:8357   */\n    tag_195:\n        /* \"#utility.yul\":8133:8136   */\n      0x00\n        /* \"#utility.yul\":8154:8221   */\n      tag_302\n        /* \"#utility.yul\":8218:8220   */\n      0x27\n        /* \"#utility.yul\":8213:8216   */\n      dup4\n        /* \"#utility.yul\":8154:8221   */\n      tag_189\n      jump\t// in\n    tag_302:\n        /* \"#utility.yul\":8147:8221   */\n      swap2\n      pop\n        /* \"#utility.yul\":8230:8323   */\n      tag_303\n        /* \"#utility.yul\":8319:8322   */\n      dup3\n        /* \"#utility.yul\":8230:8323   */\n      tag_194\n      jump\t// in\n    tag_303:\n        /* \"#utility.yul\":8348:8350   */\n      0x40\n        /* \"#utility.yul\":8343:8346   */\n      dup3\n        /* \"#utility.yul\":8339:8351   */\n      add\n        /* \"#utility.yul\":8332:8351   */\n      swap1\n      pop\n        /* \"#utility.yul\":7991:8357   */\n      swap2\n      swap1\n      pop\n      jump\t// out\n        /* \"#utility.yul\":8363:8782   */\n    tag_68:\n        /* \"#utility.yul\":8529:8533   */\n      0x00\n        /* \"#utility.yul\":8567:8569   */\n      0x20\n        /* \"#utility.yul\":8556:8565   */\n      dup3\n        /* \"#utility.yul\":8552:8570   */\n      add\n        /* \"#utility.yul\":8544:8570   */\n      swap1\n      pop\n        /* \"#utility.yul\":8616:8625   */\n      dup2\n        /* \"#utility.yul\":8610:8614   */\n      dup2\n        /* \"#utility.yul\":8606:8626   */\n      sub\n        /* \"#utility.yul\":8602:8603   */\n      0x00\n        /* \"#utility.yul\":8591:8600   */\n      dup4\n        /* \"#utility.yul\":8587:8604   */\n      add\n        /* \"#utility.yul\":8580:8627   */\n      mstore\n        /* \"#utility.yul\":8644:8775   */\n      tag_305\n        /* \"#utility.yul\":8770:8774   */\n      dup2\n        /* \"#utility.yul\":8644:8775   */\n      tag_195\n      jump\t// in\n    tag_305:\n        /* \"#utility.yul\":8636:8775   */\n      swap1\n      pop\n        /* \"#utility.yul\":8363:8782   */\n      swap2\n      swap1\n      pop\n      jump\t// out\n        /* \"#utility.yul\":8788:9171   */\n    tag_196:\n        /* \"#utility.yul\":8928:8962   */\n      0x736d61727420636f6e747261637420646f65736e206e6f74206861766520656e\n        /* \"#utility.yul\":8924:8925   */\n      0x00\n        /* \"#utility.yul\":8916:8922   */\n      dup3\n        /* \"#utility.yul\":8912:8926   */\n      add\n        /* \"#utility.yul\":8905:8963   */\n      mstore\n        /* \"#utility.yul\":8997:9031   */\n      0x6f7567682066756e647320666f72207468697320616d6f756e74202e2e207573\n        /* \"#utility.yul\":8992:8994   */\n      0x20\n        /* \"#utility.yul\":8984:8990   */\n      dup3\n        /* \"#utility.yul\":8980:8995   */\n      add\n        /* \"#utility.yul\":8973:9032   */\n      mstore\n        /* \"#utility.yul\":9066:9100   */\n      0x6520616e20616d6f756e74206c6f776572207468616e2074686174206f662074\n        /* \"#utility.yul\":9061:9063   */\n      0x40\n        /* \"#utility.yul\":9053:9059   */\n      dup3\n        /* \"#utility.yul\":9049:9064   */\n      add\n        /* \"#utility.yul\":9042:9101   */\n      mstore\n        /* \"#utility.yul\":9135:9163   */\n      0x686520736d61727420636f6e74726163742062616c616e636520000000000000\n        /* \"#utility.yul\":9130:9132   */\n      0x60\n        /* \"#utility.yul\":9122:9128   */\n      dup3\n        /* \"#utility.yul\":9118:9133   */\n      add\n        /* \"#utility.yul\":9111:9164   */\n      mstore\n        /* \"#utility.yul\":8788:9171   */\n      pop\n      jump\t// out\n        /* \"#utility.yul\":9177:9545   */\n    tag_197:\n        /* \"#utility.yul\":9319:9322   */\n      0x00\n        /* \"#utility.yul\":9340:9408   */\n      tag_308\n        /* \"#utility.yul\":9404:9407   */\n      0x7a\n        /* \"#utility.yul\":9399:9402   */\n      dup4\n        /* \"#utility.yul\":9340:9408   */\n      tag_189\n      jump\t// in\n    tag_308:\n        /* \"#utility.yul\":9333:9408   */\n      swap2\n      pop\n        /* \"#utility.yul\":9417:9510   */\n      tag_309\n        /* \"#utility.yul\":9506:9509   */\n      dup3\n        /* \"#utility.yul\":9417:9510   */\n      tag_196\n      jump\t// in\n    tag_309:\n        /* \"#utility.yul\":9535:9538   */\n      0x80\n        /* \"#utility.yul\":9530:9533   */\n      dup3\n        /* \"#utility.yul\":9526:9539   */\n      add\n        /* \"#utility.yul\":9519:9539   */\n      swap1\n      pop\n        /* \"#utility.yul\":9177:9545   */\n      swap2\n      swap1\n      pop\n      jump\t// out\n        /* \"#utility.yul\":9551:9970   */\n    tag_71:\n        /* \"#utility.yul\":9717:9721   */\n      0x00\n        /* \"#utility.yul\":9755:9757   */\n      0x20\n        /* \"#utility.yul\":9744:9753   */\n      dup3\n        /* \"#utility.yul\":9740:9758   */\n      add\n        /* \"#utility.yul\":9732:9758   */\n      swap1\n      pop\n        /* \"#utility.yul\":9804:9813   */\n      dup2\n        /* \"#utility.yul\":9798:9802   */\n      dup2\n        /* \"#utility.yul\":9794:9814   */\n      sub\n        /* \"#utility.yul\":9790:9791   */\n      0x00\n        /* \"#utility.yul\":9779:9788   */\n      dup4\n        /* \"#utility.yul\":9775:9792   */\n      add\n        /* \"#utility.yul\":9768:9815   */\n      mstore\n        /* \"#utility.yul\":9832:9963   */\n      tag_311\n        /* \"#utility.yul\":9958:9962   */\n      dup2\n        /* \"#utility.yul\":9832:9963   */\n      tag_197\n      jump\t// in\n    tag_311:\n        /* \"#utility.yul\":9824:9963   */\n      swap1\n      pop\n        /* \"#utility.yul\":9551:9970   */\n      swap2\n      swap1\n      pop\n      jump\t// out\n        /* \"#utility.yul\":9976:10154   */\n    tag_198:\n        /* \"#utility.yul\":10116:10146   */\n      0x53686f756c64206e6f7420626520612030783020206164647265737300000000\n        /* \"#utility.yul\":10112:10113   */\n      0x00\n        /* \"#utility.yul\":10104:10110   */\n      dup3\n        /* \"#utility.yul\":10100:10114   */\n      add\n        /* \"#utility.yul\":10093:10147   */\n      mstore\n        /* \"#utility.yul\":9976:10154   */\n      pop\n      jump\t// out\n        /* \"#utility.yul\":10160:10526   */\n    tag_199:\n        /* \"#utility.yul\":10302:10305   */\n      0x00\n        /* \"#utility.yul\":10323:10390   */\n      tag_314\n        /* \"#utility.yul\":10387:10389   */\n      0x1c\n        /* \"#utility.yul\":10382:10385   */\n      dup4\n        /* \"#utility.yul\":10323:10390   */\n      tag_189\n      jump\t// in\n    tag_314:\n        /* \"#utility.yul\":10316:10390   */\n      swap2\n      pop\n        /* \"#utility.yul\":10399:10492   */\n      tag_315\n        /* \"#utility.yul\":10488:10491   */\n      dup3\n        /* \"#utility.yul\":10399:10492   */\n      tag_198\n      jump\t// in\n    tag_315:\n        /* \"#utility.yul\":10517:10519   */\n      0x20\n        /* \"#utility.yul\":10512:10515   */\n      dup3\n        /* \"#utility.yul\":10508:10520   */\n      add\n        /* \"#utility.yul\":10501:10520   */\n      swap1\n      pop\n        /* \"#utility.yul\":10160:10526   */\n      swap2\n      swap1\n      pop\n      jump\t// out\n        /* \"#utility.yul\":10532:10951   */\n    tag_74:\n        /* \"#utility.yul\":10698:10702   */\n      0x00\n        /* \"#utility.yul\":10736:10738   */\n      0x20\n        /* \"#utility.yul\":10725:10734   */\n      dup3\n        /* \"#utility.yul\":10721:10739   */\n      add\n        /* \"#utility.yul\":10713:10739   */\n      swap1\n      pop\n        /* \"#utility.yul\":10785:10794   */\n      dup2\n        /* \"#utility.yul\":10779:10783   */\n      dup2\n        /* \"#utility.yul\":10775:10795   */\n      sub\n        /* \"#utility.yul\":10771:10772   */\n      0x00\n        /* \"#utility.yul\":10760:10769   */\n      dup4\n        /* \"#utility.yul\":10756:10773   */\n      add\n        /* \"#utility.yul\":10749:10796   */\n      mstore\n        /* \"#utility.yul\":10813:10944   */\n      tag_317\n        /* \"#utility.yul\":10939:10943   */\n      dup2\n        /* \"#utility.yul\":10813:10944   */\n      tag_199\n      jump\t// in\n    tag_317:\n        /* \"#utility.yul\":10805:10944   */\n      swap1\n      pop\n        /* \"#utility.yul\":10532:10951   */\n      swap2\n      swap1\n      pop\n      jump\t// out\n        /* \"#utility.yul\":10957:11191   */\n    tag_200:\n        /* \"#utility.yul\":11097:11131   */\n      0x617070726f76616c20636f756e742073686f756c64206265206c6f7765722074\n        /* \"#utility.yul\":11093:11094   */\n      0x00\n        /* \"#utility.yul\":11085:11091   */\n      dup3\n        /* \"#utility.yul\":11081:11095   */\n      add\n        /* \"#utility.yul\":11074:11132   */\n      mstore\n        /* \"#utility.yul\":11166:11183   */\n      0x68616e204f776e65722047726f75700000000000000000000000000000000000\n        /* \"#utility.yul\":11161:11163   */\n      0x20\n        /* \"#utility.yul\":11153:11159   */\n      dup3\n        /* \"#utility.yul\":11149:11164   */\n      add\n        /* \"#utility.yul\":11142:11184   */\n      mstore\n        /* \"#utility.yul\":10957:11191   */\n      pop\n      jump\t// out\n        /* \"#utility.yul\":11197:11563   */\n    tag_201:\n        /* \"#utility.yul\":11339:11342   */\n      0x00\n        /* \"#utility.yul\":11360:11427   */\n      tag_320\n        /* \"#utility.yul\":11424:11426   */\n      0x2f\n        /* \"#utility.yul\":11419:11422   */\n      dup4\n        /* \"#utility.yul\":11360:11427   */\n      tag_189\n      jump\t// in\n    tag_320:\n        /* \"#utility.yul\":11353:11427   */\n      swap2\n      pop\n        /* \"#utility.yul\":11436:11529   */\n      tag_321\n        /* \"#utility.yul\":11525:11528   */\n      dup3\n        /* \"#utility.yul\":11436:11529   */\n      tag_200\n      jump\t// in\n    tag_321:\n        /* \"#utility.yul\":11554:11556   */\n      0x40\n        /* \"#utility.yul\":11549:11552   */\n      dup3\n        /* \"#utility.yul\":11545:11557   */\n      add\n        /* \"#utility.yul\":11538:11557   */\n      swap1\n      pop\n        /* \"#utility.yul\":11197:11563   */\n      swap2\n      swap1\n      pop\n      jump\t// out\n        /* \"#utility.yul\":11569:11988   */\n    tag_77:\n        /* \"#utility.yul\":11735:11739   */\n      0x00\n        /* \"#utility.yul\":11773:11775   */\n      0x20\n        /* \"#utility.yul\":11762:11771   */\n      dup3\n        /* \"#utility.yul\":11758:11776   */\n      add\n        /* \"#utility.yul\":11750:11776   */\n      swap1\n      pop\n        /* \"#utility.yul\":11822:11831   */\n      dup2\n        /* \"#utility.yul\":11816:11820   */\n      dup2\n        /* \"#utility.yul\":11812:11832   */\n      sub\n        /* \"#utility.yul\":11808:11809   */\n      0x00\n        /* \"#utility.yul\":11797:11806   */\n      dup4\n        /* \"#utility.yul\":11793:11810   */\n      add\n        /* \"#utility.yul\":11786:11833   */\n      mstore\n        /* \"#utility.yul\":11850:11981   */\n      tag_323\n        /* \"#utility.yul\":11976:11980   */\n      dup2\n        /* \"#utility.yul\":11850:11981   */\n      tag_201\n      jump\t// in\n    tag_323:\n        /* \"#utility.yul\":11842:11981   */\n      swap1\n      pop\n        /* \"#utility.yul\":11569:11988   */\n      swap2\n      swap1\n      pop\n      jump\t// out\n        /* \"#utility.yul\":11994:12174   */\n    tag_202:\n        /* \"#utility.yul\":12042:12119   */\n      0x4e487b7100000000000000000000000000000000000000000000000000000000\n        /* \"#utility.yul\":12039:12040   */\n      0x00\n        /* \"#utility.yul\":12032:12120   */\n      mstore\n        /* \"#utility.yul\":12139:12143   */\n      0x11\n        /* \"#utility.yul\":12136:12137   */\n      0x04\n        /* \"#utility.yul\":12129:12144   */\n      mstore\n        /* \"#utility.yul\":12163:12167   */\n      0x24\n        /* \"#utility.yul\":12160:12161   */\n      0x00\n        /* \"#utility.yul\":12153:12168   */\n      revert\n        /* \"#utility.yul\":12180:12371   */\n    tag_81:\n        /* \"#utility.yul\":12220:12223   */\n      0x00\n        /* \"#utility.yul\":12239:12259   */\n      tag_326\n        /* \"#utility.yul\":12257:12258   */\n      dup3\n        /* \"#utility.yul\":12239:12259   */\n      tag_175\n      jump\t// in\n    tag_326:\n        /* \"#utility.yul\":12234:12259   */\n      swap2\n      pop\n        /* \"#utility.yul\":12273:12293   */\n      tag_327\n        /* \"#utility.yul\":12291:12292   */\n      dup4\n        /* \"#utility.yul\":12273:12293   */\n      tag_175\n      jump\t// in\n    tag_327:\n        /* \"#utility.yul\":12268:12293   */\n      swap3\n      pop\n        /* \"#utility.yul\":12316:12317   */\n      dup3\n        /* \"#utility.yul\":12313:12314   */\n      dup3\n        /* \"#utility.yul\":12309:12318   */\n      add\n        /* \"#utility.yul\":12302:12318   */\n      swap1\n      pop\n        /* \"#utility.yul\":12337:12340   */\n      dup1\n        /* \"#utility.yul\":12334:12335   */\n      dup3\n        /* \"#utility.yul\":12331:12341   */\n      gt\n        /* \"#utility.yul\":12328:12364   */\n      iszero\n      tag_328\n      jumpi\n        /* \"#utility.yul\":12344:12362   */\n      tag_329\n      tag_202\n      jump\t// in\n    tag_329:\n        /* \"#utility.yul\":12328:12364   */\n    tag_328:\n        /* \"#utility.yul\":12180:12371   */\n      swap3\n      swap2\n      pop\n      pop\n      jump\t// out\n        /* \"#utility.yul\":12377:12613   */\n    tag_203:\n        /* \"#utility.yul\":12517:12551   */\n      0x6e65772074786e207375626d69747465642e2e2e2e206f6e6c79206f6e652070\n        /* \"#utility.yul\":12513:12514   */\n      0x00\n        /* \"#utility.yul\":12505:12511   */\n      dup3\n        /* \"#utility.yul\":12501:12515   */\n      add\n        /* \"#utility.yul\":12494:12552   */\n      mstore\n        /* \"#utility.yul\":12586:12605   */\n      0x6172747920617070726f766573202e2e20000000000000000000000000000000\n        /* \"#utility.yul\":12581:12583   */\n      0x20\n        /* \"#utility.yul\":12573:12579   */\n      dup3\n        /* \"#utility.yul\":12569:12584   */\n      add\n        /* \"#utility.yul\":12562:12606   */\n      mstore\n        /* \"#utility.yul\":12377:12613   */\n      pop\n      jump\t// out\n        /* \"#utility.yul\":12619:12985   */\n    tag_204:\n        /* \"#utility.yul\":12761:12764   */\n      0x00\n        /* \"#utility.yul\":12782:12849   */\n      tag_332\n        /* \"#utility.yul\":12846:12848   */\n      0x31\n        /* \"#utility.yul\":12841:12844   */\n      dup4\n        /* \"#utility.yul\":12782:12849   */\n      tag_189\n      jump\t// in\n    tag_332:\n        /* \"#utility.yul\":12775:12849   */\n      swap2\n      pop\n        /* \"#utility.yul\":12858:12951   */\n      tag_333\n        /* \"#utility.yul\":12947:12950   */\n      dup3\n        /* \"#utility.yul\":12858:12951   */\n      tag_203\n      jump\t// in\n    tag_333:\n        /* \"#utility.yul\":12976:12978   */\n      0x40\n        /* \"#utility.yul\":12971:12974   */\n      dup3\n        /* \"#utility.yul\":12967:12979   */\n      add\n        /* \"#utility.yul\":12960:12979   */\n      swap1\n      pop\n        /* \"#utility.yul\":12619:12985   */\n      swap2\n      swap1\n      pop\n      jump\t// out\n        /* \"#utility.yul\":12991:13410   */\n    tag_85:\n        /* \"#utility.yul\":13157:13161   */\n      0x00\n        /* \"#utility.yul\":13195:13197   */\n      0x20\n        /* \"#utility.yul\":13184:13193   */\n      dup3\n        /* \"#utility.yul\":13180:13198   */\n      add\n        /* \"#utility.yul\":13172:13198   */\n      swap1\n      pop\n        /* \"#utility.yul\":13244:13253   */\n      dup2\n        /* \"#utility.yul\":13238:13242   */\n      dup2\n        /* \"#utility.yul\":13234:13254   */\n      sub\n        /* \"#utility.yul\":13230:13231   */\n      0x00\n        /* \"#utility.yul\":13219:13228   */\n      dup4\n        /* \"#utility.yul\":13215:13232   */\n      add\n        /* \"#utility.yul\":13208:13255   */\n      mstore\n        /* \"#utility.yul\":13272:13403   */\n      tag_335\n        /* \"#utility.yul\":13398:13402   */\n      dup2\n        /* \"#utility.yul\":13272:13403   */\n      tag_204\n      jump\t// in\n    tag_335:\n        /* \"#utility.yul\":13264:13403   */\n      swap1\n      pop\n        /* \"#utility.yul\":12991:13410   */\n      swap2\n      swap1\n      pop\n      jump\t// out\n        /* \"#utility.yul\":13416:13649   */\n    tag_205:\n        /* \"#utility.yul\":13556:13590   */\n      0x7468697320616464726573732068617320616c726561647920617070726f7665\n        /* \"#utility.yul\":13552:13553   */\n      0x00\n        /* \"#utility.yul\":13544:13550   */\n      dup3\n        /* \"#utility.yul\":13540:13554   */\n      add\n        /* \"#utility.yul\":13533:13591   */\n      mstore\n        /* \"#utility.yul\":13625:13641   */\n      0x64206f722072656a656374656420000000000000000000000000000000000000\n        /* \"#utility.yul\":13620:13622   */\n      0x20\n        /* \"#utility.yul\":13612:13618   */\n      dup3\n        /* \"#utility.yul\":13608:13623   */\n      add\n        /* \"#utility.yul\":13601:13642   */\n      mstore\n        /* \"#utility.yul\":13416:13649   */\n      pop\n      jump\t// out\n        /* \"#utility.yul\":13655:14021   */\n    tag_206:\n        /* \"#utility.yul\":13797:13800   */\n      0x00\n        /* \"#utility.yul\":13818:13885   */\n      tag_338\n        /* \"#utility.yul\":13882:13884   */\n      0x2e\n        /* \"#utility.yul\":13877:13880   */\n      dup4\n        /* \"#utility.yul\":13818:13885   */\n      tag_189\n      jump\t// in\n    tag_338:\n        /* \"#utility.yul\":13811:13885   */\n      swap2\n      pop\n        /* \"#utility.yul\":13894:13987   */\n      tag_339\n        /* \"#utility.yul\":13983:13986   */\n      dup3\n        /* \"#utility.yul\":13894:13987   */\n      tag_205\n      jump\t// in\n    tag_339:\n        /* \"#utility.yul\":14012:14014   */\n      0x40\n        /* \"#utility.yul\":14007:14010   */\n      dup3\n        /* \"#utility.yul\":14003:14015   */\n      add\n        /* \"#utility.yul\":13996:14015   */\n      swap1\n      pop\n        /* \"#utility.yul\":13655:14021   */\n      swap2\n      swap1\n      pop\n      jump\t// out\n        /* \"#utility.yul\":14027:14446   */\n    tag_104:\n        /* \"#utility.yul\":14193:14197   */\n      0x00\n        /* \"#utility.yul\":14231:14233   */\n      0x20\n        /* \"#utility.yul\":14220:14229   */\n      dup3\n        /* \"#utility.yul\":14216:14234   */\n      add\n        /* \"#utility.yul\":14208:14234   */\n      swap1\n      pop\n        /* \"#utility.yul\":14280:14289   */\n      dup2\n        /* \"#utility.yul\":14274:14278   */\n      dup2\n        /* \"#utility.yul\":14270:14290   */\n      sub\n        /* \"#utility.yul\":14266:14267   */\n      0x00\n        /* \"#utility.yul\":14255:14264   */\n      dup4\n        /* \"#utility.yul\":14251:14268   */\n      add\n        /* \"#utility.yul\":14244:14291   */\n      mstore\n        /* \"#utility.yul\":14308:14439   */\n      tag_341\n        /* \"#utility.yul\":14434:14438   */\n      dup2\n        /* \"#utility.yul\":14308:14439   */\n      tag_206\n      jump\t// in\n    tag_341:\n        /* \"#utility.yul\":14300:14439   */\n      swap1\n      pop\n        /* \"#utility.yul\":14027:14446   */\n      swap2\n      swap1\n      pop\n      jump\t// out\n        /* \"#utility.yul\":14452:14685   */\n    tag_108:\n        /* \"#utility.yul\":14491:14494   */\n      0x00\n        /* \"#utility.yul\":14514:14538   */\n      tag_343\n        /* \"#utility.yul\":14532:14537   */\n      dup3\n        /* \"#utility.yul\":14514:14538   */\n      tag_175\n      jump\t// in\n    tag_343:\n        /* \"#utility.yul\":14505:14538   */\n      swap2\n      pop\n        /* \"#utility.yul\":14560:14626   */\n      0xffffffffffffffffffffffffffffffffffffffffffffffffffffffffffffffff\n        /* \"#utility.yul\":14553:14558   */\n      dup3\n        /* \"#utility.yul\":14550:14627   */\n      sub\n        /* \"#utility.yul\":14547:14650   */\n      tag_344\n      jumpi\n        /* \"#utility.yul\":14630:14648   */\n      tag_345\n      tag_202\n      jump\t// in\n    tag_345:\n        /* \"#utility.yul\":14547:14650   */\n    tag_344:\n        /* \"#utility.yul\":14677:14678   */\n      0x01\n        /* \"#utility.yul\":14670:14675   */\n      dup3\n        /* \"#utility.yul\":14666:14679   */\n      add\n        /* \"#utility.yul\":14659:14679   */\n      swap1\n      pop\n        /* \"#utility.yul\":14452:14685   */\n      swap2\n      swap1\n      pop\n      jump\t// out\n        /* \"#utility.yul\":14691:14871   */\n    tag_207:\n        /* \"#utility.yul\":14739:14816   */\n      0x4e487b7100000000000000000000000000000000000000000000000000000000\n        /* \"#utility.yul\":14736:14737   */\n      0x00\n        /* \"#utility.yul\":14729:14817   */\n      mstore\n        /* \"#utility.yul\":14836:14840   */\n      0x12\n        /* \"#utility.yul\":14833:14834   */\n      0x04\n        /* \"#utility.yul\":14826:14841   */\n      mstore\n        /* \"#utility.yul\":14860:14864   */\n      0x24\n        /* \"#utility.yul\":14857:14858   */\n      0x00\n        /* \"#utility.yul\":14850:14865   */\n      revert\n        /* \"#utility.yul\":14877:15062   */\n    tag_110:\n        /* \"#utility.yul\":14917:14918   */\n      0x00\n        /* \"#utility.yul\":14934:14954   */\n      tag_348\n        /* \"#utility.yul\":14952:14953   */\n      dup3\n        /* \"#utility.yul\":14934:14954   */\n      tag_175\n      jump\t// in\n    tag_348:\n        /* \"#utility.yul\":14929:14954   */\n      swap2\n      pop\n        /* \"#utility.yul\":14968:14988   */\n      tag_349\n        /* \"#utility.yul\":14986:14987   */\n      dup4\n        /* \"#utility.yul\":14968:14988   */\n      tag_175\n      jump\t// in\n    tag_349:\n        /* \"#utility.yul\":14963:14988   */\n      swap3\n      pop\n        /* \"#utility.yul\":15007:15008   */\n      dup3\n        /* \"#utility.yul\":14997:15032   */\n      tag_350\n      jumpi\n        /* \"#utility.yul\":15012:15030   */\n      tag_351\n      tag_207\n      jump\t// in\n    tag_351:\n        /* \"#utility.yul\":14997:15032   */\n    tag_350:\n        /* \"#utility.yul\":15054:15055   */\n      dup3\n        /* \"#utility.yul\":15051:15052   */\n      dup3\n        /* \"#utility.yul\":15047:15056   */\n      div\n        /* \"#utility.yul\":15042:15056   */\n      swap1\n      pop\n        /* \"#utility.yul\":14877:15062   */\n      swap3\n      swap2\n      pop\n      pop\n      jump\t// out\n        /* \"#utility.yul\":15068:15242   */\n    tag_208:\n        /* \"#utility.yul\":15208:15234   */\n      0x7472616e73616374696f6e20697320617070726f766564200000000000000000\n        /* \"#utility.yul\":15204:15205   */\n      0x00\n        /* \"#utility.yul\":15196:15202   */\n      dup3\n        /* \"#utility.yul\":15192:15206   */\n      add\n        /* \"#utility.yul\":15185:15235   */\n      mstore\n        /* \"#utility.yul\":15068:15242   */\n      pop\n      jump\t// out\n        /* \"#utility.yul\":15248:15614   */\n    tag_209:\n        /* \"#utility.yul\":15390:15393   */\n      0x00\n        /* \"#utility.yul\":15411:15478   */\n      tag_354\n        /* \"#utility.yul\":15475:15477   */\n      0x18\n        /* \"#utility.yul\":15470:15473   */\n      dup4\n        /* \"#utility.yul\":15411:15478   */\n      tag_189\n      jump\t// in\n    tag_354:\n        /* \"#utility.yul\":15404:15478   */\n      swap2\n      pop\n        /* \"#utility.yul\":15487:15580   */\n      tag_355\n        /* \"#utility.yul\":15576:15579   */\n      dup3\n        /* \"#utility.yul\":15487:15580   */\n      tag_208\n      jump\t// in\n    tag_355:\n        /* \"#utility.yul\":15605:15607   */\n      0x20\n        /* \"#utility.yul\":15600:15603   */\n      dup3\n        /* \"#utility.yul\":15596:15608   */\n      add\n        /* \"#utility.yul\":15589:15608   */\n      swap1\n      pop\n        /* \"#utility.yul\":15248:15614   */\n      swap2\n      swap1\n      pop\n      jump\t// out\n        /* \"#utility.yul\":15620:16039   */\n    tag_116:\n        /* \"#utility.yul\":15786:15790   */\n      0x00\n        /* \"#utility.yul\":15824:15826   */\n      0x20\n        /* \"#utility.yul\":15813:15822   */\n      dup3\n        /* \"#utility.yul\":15809:15827   */\n      add\n        /* \"#utility.yul\":15801:15827   */\n      swap1\n      pop\n        /* \"#utility.yul\":15873:15882   */\n      dup2\n        /* \"#utility.yul\":15867:15871   */\n      dup2\n        /* \"#utility.yul\":15863:15883   */\n      sub\n        /* \"#utility.yul\":15859:15860   */\n      0x00\n        /* \"#utility.yul\":15848:15857   */\n      dup4\n        /* \"#utility.yul\":15844:15861   */\n      add\n        /* \"#utility.yul\":15837:15884   */\n      mstore\n        /* \"#utility.yul\":15901:16032   */\n      tag_357\n        /* \"#utility.yul\":16027:16031   */\n      dup2\n        /* \"#utility.yul\":15901:16032   */\n      tag_209\n      jump\t// in\n    tag_357:\n        /* \"#utility.yul\":15893:16032   */\n      swap1\n      pop\n        /* \"#utility.yul\":15620:16039   */\n      swap2\n      swap1\n      pop\n      jump\t// out\n        /* \"#utility.yul\":16045:16222   */\n    tag_210:\n        /* \"#utility.yul\":16185:16214   */\n      0x5468697320706172747920646f6573206e6f7420617070726f76650000000000\n        /* \"#utility.yul\":16181:16182   */\n      0x00\n        /* \"#utility.yul\":16173:16179   */\n      dup3\n        /* \"#utility.yul\":16169:16183   */\n      add\n        /* \"#utility.yul\":16162:16215   */\n      mstore\n        /* \"#utility.yul\":16045:16222   */\n      pop\n      jump\t// out\n        /* \"#utility.yul\":16228:16594   */\n    tag_211:\n        /* \"#utility.yul\":16370:16373   */\n      0x00\n        /* \"#utility.yul\":16391:16458   */\n      tag_360\n        /* \"#utility.yul\":16455:16457   */\n      0x1b\n        /* \"#utility.yul\":16450:16453   */\n      dup4\n        /* \"#utility.yul\":16391:16458   */\n      tag_189\n      jump\t// in\n    tag_360:\n        /* \"#utility.yul\":16384:16458   */\n      swap2\n      pop\n        /* \"#utility.yul\":16467:16560   */\n      tag_361\n        /* \"#utility.yul\":16556:16559   */\n      dup3\n        /* \"#utility.yul\":16467:16560   */\n      tag_210\n      jump\t// in\n    tag_361:\n        /* \"#utility.yul\":16585:16587   */\n      0x20\n        /* \"#utility.yul\":16580:16583   */\n      dup3\n        /* \"#utility.yul\":16576:16588   */\n      add\n        /* \"#utility.yul\":16569:16588   */\n      swap1\n      pop\n        /* \"#utility.yul\":16228:16594   */\n      swap2\n      swap1\n      pop\n      jump\t// out\n        /* \"#utility.yul\":16600:17019   */\n    tag_143:\n        /* \"#utility.yul\":16766:16770   */\n      0x00\n        /* \"#utility.yul\":16804:16806   */\n      0x20\n        /* \"#utility.yul\":16793:16802   */\n      dup3\n        /* \"#utility.yul\":16789:16807   */\n      add\n        /* \"#utility.yul\":16781:16807   */\n      swap1\n      pop\n        /* \"#utility.yul\":16853:16862   */\n      dup2\n        /* \"#utility.yul\":16847:16851   */\n      dup2\n        /* \"#utility.yul\":16843:16863   */\n      sub\n        /* \"#utility.yul\":16839:16840   */\n      0x00\n        /* \"#utility.yul\":16828:16837   */\n      dup4\n        /* \"#utility.yul\":16824:16841   */\n      add\n        /* \"#utility.yul\":16817:16864   */\n      mstore\n        /* \"#utility.yul\":16881:17012   */\n      tag_363\n        /* \"#utility.yul\":17007:17011   */\n      dup2\n        /* \"#utility.yul\":16881:17012   */\n      tag_211\n      jump\t// in\n    tag_363:\n        /* \"#utility.yul\":16873:17012   */\n      swap1\n      pop\n        /* \"#utility.yul\":16600:17019   */\n      swap2\n      swap1\n      pop\n      jump\t// out\n        /* \"#utility.yul\":17025:17172   */\n    tag_212:\n        /* \"#utility.yul\":17126:17137   */\n      0x00\n        /* \"#utility.yul\":17163:17166   */\n      dup2\n        /* \"#utility.yul\":17148:17166   */\n      swap1\n      pop\n        /* \"#utility.yul\":17025:17172   */\n      swap3\n      swap2\n      pop\n      pop\n      jump\t// out\n        /* \"#utility.yul\":17178:17292   */\n    tag_213:\n      pop\n      jump\t// out\n        /* \"#utility.yul\":17298:17696   */\n    tag_214:\n        /* \"#utility.yul\":17457:17460   */\n      0x00\n        /* \"#utility.yul\":17478:17561   */\n      tag_367\n        /* \"#utility.yul\":17559:17560   */\n      0x00\n        /* \"#utility.yul\":17554:17557   */\n      dup4\n        /* \"#utility.yul\":17478:17561   */\n      tag_212\n      jump\t// in\n    tag_367:\n        /* \"#utility.yul\":17471:17561   */\n      swap2\n      pop\n        /* \"#utility.yul\":17570:17663   */\n      tag_368\n        /* \"#utility.yul\":17659:17662   */\n      dup3\n        /* \"#utility.yul\":17570:17663   */\n      tag_213\n      jump\t// in\n    tag_368:\n        /* \"#utility.yul\":17688:17689   */\n      0x00\n        /* \"#utility.yul\":17683:17686   */\n      dup3\n        /* \"#utility.yul\":17679:17690   */\n      add\n        /* \"#utility.yul\":17672:17690   */\n      swap1\n      pop\n        /* \"#utility.yul\":17298:17696   */\n      swap2\n      swap1\n      pop\n      jump\t// out\n        /* \"#utility.yul\":17702:18081   */\n    tag_157:\n        /* \"#utility.yul\":17886:17889   */\n      0x00\n        /* \"#utility.yul\":17908:18055   */\n      tag_370\n        /* \"#utility.yul\":18051:18054   */\n      dup3\n        /* \"#utility.yul\":17908:18055   */\n      tag_214\n      jump\t// in\n    tag_370:\n        /* \"#utility.yul\":17901:18055   */\n      swap2\n      pop\n        /* \"#utility.yul\":18072:18075   */\n      dup2\n        /* \"#utility.yul\":18065:18075   */\n      swap1\n      pop\n        /* \"#utility.yul\":17702:18081   */\n      swap2\n      swap1\n      pop\n      jump\t// out\n        /* \"#utility.yul\":18087:18253   */\n    tag_215:\n        /* \"#utility.yul\":18227:18245   */\n      0x4641494c454420455845435554494f4e00000000000000000000000000000000\n        /* \"#utility.yul\":18223:18224   */\n      0x00\n        /* \"#utility.yul\":18215:18221   */\n      dup3\n        /* \"#utility.yul\":18211:18225   */\n      add\n        /* \"#utility.yul\":18204:18246   */\n      mstore\n        /* \"#utility.yul\":18087:18253   */\n      pop\n      jump\t// out\n        /* \"#utility.yul\":18259:18625   */\n    tag_216:\n        /* \"#utility.yul\":18401:18404   */\n      0x00\n        /* \"#utility.yul\":18422:18489   */\n      tag_373\n        /* \"#utility.yul\":18486:18488   */\n      0x10\n        /* \"#utility.yul\":18481:18484   */\n      dup4\n        /* \"#utility.yul\":18422:18489   */\n      tag_189\n      jump\t// in\n    tag_373:\n        /* \"#utility.yul\":18415:18489   */\n      swap2\n      pop\n        /* \"#utility.yul\":18498:18591   */\n      tag_374\n        /* \"#utility.yul\":18587:18590   */\n      dup3\n        /* \"#utility.yul\":18498:18591   */\n      tag_215\n      jump\t// in\n    tag_374:\n        /* \"#utility.yul\":18616:18618   */\n      0x20\n        /* \"#utility.yul\":18611:18614   */\n      dup3\n        /* \"#utility.yul\":18607:18619   */\n      add\n        /* \"#utility.yul\":18600:18619   */\n      swap1\n      pop\n        /* \"#utility.yul\":18259:18625   */\n      swap2\n      swap1\n      pop\n      jump\t// out\n        /* \"#utility.yul\":18631:19050   */\n    tag_163:\n        /* \"#utility.yul\":18797:18801   */\n      0x00\n        /* \"#utility.yul\":18835:18837   */\n      0x20\n        /* \"#utility.yul\":18824:18833   */\n      dup3\n        /* \"#utility.yul\":18820:18838   */\n      add\n        /* \"#utility.yul\":18812:18838   */\n      swap1\n      pop\n        /* \"#utility.yul\":18884:18893   */\n      dup2\n        /* \"#utility.yul\":18878:18882   */\n      dup2\n        /* \"#utility.yul\":18874:18894   */\n      sub\n        /* \"#utility.yul\":18870:18871   */\n      0x00\n        /* \"#utility.yul\":18859:18868   */\n      dup4\n        /* \"#utility.yul\":18855:18872   */\n      add\n        /* \"#utility.yul\":18848:18895   */\n      mstore\n        /* \"#utility.yul\":18912:19043   */\n      tag_376\n        /* \"#utility.yul\":19038:19042   */\n      dup2\n        /* \"#utility.yul\":18912:19043   */\n      tag_216\n      jump\t// in\n    tag_376:\n        /* \"#utility.yul\":18904:19043   */\n      swap1\n      pop\n        /* \"#utility.yul\":18631:19050   */\n      swap2\n      swap1\n      pop\n      jump\t// out\n        /* \"#utility.yul\":19056:19224   */\n    tag_217:\n        /* \"#utility.yul\":19196:19216   */\n      0x455845435554494f4e20434f4d504c4554450000000000000000000000000000\n        /* \"#utility.yul\":19192:19193   */\n      0x00\n        /* \"#utility.yul\":19184:19190   */\n      dup3\n        /* \"#utility.yul\":19180:19194   */\n      add\n        /* \"#utility.yul\":19173:19217   */\n      mstore\n        /* \"#utility.yul\":19056:19224   */\n      pop\n      jump\t// out\n        /* \"#utility.yul\":19230:19596   */\n    tag_218:\n        /* \"#utility.yul\":19372:19375   */\n      0x00\n        /* \"#utility.yul\":19393:19460   */\n      tag_379\n        /* \"#utility.yul\":19457:19459   */\n      0x12\n        /* \"#utility.yul\":19452:19455   */\n      dup4\n        /* \"#utility.yul\":19393:19460   */\n      tag_189\n      jump\t// in\n    tag_379:\n        /* \"#utility.yul\":19386:19460   */\n      swap2\n      pop\n        /* \"#utility.yul\":19469:19562   */\n      tag_380\n        /* \"#utility.yul\":19558:19561   */\n      dup3\n        /* \"#utility.yul\":19469:19562   */\n      tag_217\n      jump\t// in\n    tag_380:\n        /* \"#utility.yul\":19587:19589   */\n      0x20\n        /* \"#utility.yul\":19582:19585   */\n      dup3\n        /* \"#utility.yul\":19578:19590   */\n      add\n        /* \"#utility.yul\":19571:19590   */\n      swap1\n      pop\n        /* \"#utility.yul\":19230:19596   */\n      swap2\n      swap1\n      pop\n      jump\t// out\n        /* \"#utility.yul\":19602:20021   */\n    tag_167:\n        /* \"#utility.yul\":19768:19772   */\n      0x00\n        /* \"#utility.yul\":19806:19808   */\n      0x20\n        /* \"#utility.yul\":19795:19804   */\n      dup3\n        /* \"#utility.yul\":19791:19809   */\n      add\n        /* \"#utility.yul\":19783:19809   */\n      swap1\n      pop\n        /* \"#utility.yul\":19855:19864   */\n      dup2\n        /* \"#utility.yul\":19849:19853   */\n      dup2\n        /* \"#utility.yul\":19845:19865   */\n      sub\n        /* \"#utility.yul\":19841:19842   */\n      0x00\n        /* \"#utility.yul\":19830:19839   */\n      dup4\n        /* \"#utility.yul\":19826:19843   */\n      add\n        /* \"#utility.yul\":19819:19866   */\n      mstore\n        /* \"#utility.yul\":19883:20014   */\n      tag_382\n        /* \"#utility.yul\":20009:20013   */\n      dup2\n        /* \"#utility.yul\":19883:20014   */\n      tag_218\n      jump\t// in\n    tag_382:\n        /* \"#utility.yul\":19875:20014   */\n      swap1\n      pop\n        /* \"#utility.yul\":19602:20021   */\n      swap2\n      swap1\n      pop\n      jump\t// out\n\n    auxdata: 0xa2646970667358221220d01723d63f624eafeadba9c84cd8c09eb3779930b391b8ea418be1df4cbd70ae64736f6c63430008120033\n}\n",
				"bytecode": {
					"linkReferences": {},
					"object": "60806040523480156200001157600080fd5b50604051620020993803806200209983398181016040528101906200003791906200040c565b60005b81518160ff161015620001e9573073ffffffffffffffffffffffffffffffffffffffff16828260ff16815181106200007757620000766200045d565b5b602002602001015173ffffffffffffffffffffffffffffffffffffffff1603620000d8576040517f08c379a0000000000000000000000000000000000000000000000000000000008152600401620000cf9062000513565b60405180910390fd5b6001828260ff1681518110620000f357620000f26200045d565b5b60200260200101519080600181540180825580915050600190039060005260206000200160009091909190916101000a81548173ffffffffffffffffffffffffffffffffffffffff021916908373ffffffffffffffffffffffffffffffffffffffff160217905550600160026000848460ff16815181106200017a57620001796200045d565b5b602002602001015173ffffffffffffffffffffffffffffffffffffffff1673ffffffffffffffffffffffffffffffffffffffff16815260200190815260200160002060006101000a81548160ff0219169083151502179055508080620001e09062000571565b9150506200003a565b5060008060006101000a81548160ff021916908360028111156200021257620002116200059f565b5b021790555050620005ce565b6000604051905090565b600080fd5b600080fd5b600080fd5b6000601f19601f8301169050919050565b7f4e487b7100000000000000000000000000000000000000000000000000000000600052604160045260246000fd5b620002828262000237565b810181811067ffffffffffffffff82111715620002a457620002a362000248565b5b80604052505050565b6000620002b96200021e565b9050620002c7828262000277565b919050565b600067ffffffffffffffff821115620002ea57620002e962000248565b5b602082029050602081019050919050565b600080fd5b600073ffffffffffffffffffffffffffffffffffffffff82169050919050565b60006200032d8262000300565b9050919050565b6200033f8162000320565b81146200034b57600080fd5b50565b6000815190506200035f8162000334565b92915050565b60006200037c6200037684620002cc565b620002ad565b90508083825260208201905060208402830185811115620003a257620003a1620002fb565b5b835b81811015620003cf5780620003ba88826200034e565b845260208401935050602081019050620003a4565b5050509392505050565b600082601f830112620003f157620003f062000232565b5b81516200040384826020860162000365565b91505092915050565b60006020828403121562000425576200042462000228565b5b600082015167ffffffffffffffff8111156200044657620004456200022d565b5b6200045484828501620003d9565b91505092915050565b7f4e487b7100000000000000000000000000000000000000000000000000000000600052603260045260246000fd5b600082825260208201905092915050565b7f536d61727420436f6e747261637420416464726573732063616e6e6f7420626560008201527f2070617274206f6620746865204f776e65727300000000000000000000000000602082015250565b6000620004fb6033836200048c565b915062000508826200049d565b604082019050919050565b600060208201905081810360008301526200052e81620004ec565b9050919050565b7f4e487b7100000000000000000000000000000000000000000000000000000000600052601160045260246000fd5b600060ff82169050919050565b60006200057e8262000564565b915060ff820362000594576200059362000535565b5b600182019050919050565b7f4e487b7100000000000000000000000000000000000000000000000000000000600052602160045260246000fd5b611abb80620005de6000396000f3fe608060405234801561001057600080fd5b506004361061009e5760003560e01c80636f9fb98a116100665780636f9fb98a14610147578063cbb0f3bb14610165578063cd22900214610195578063cfe682701461019f578063f49d884d146101bd5761009e565b80631079eca2146100a35780632985d569146100bf5780632f54bf6e146100ef57806340b66b381461011f5780636884d0a614610129575b600080fd5b6100bd60048036038101906100b89190611089565b6101db565b005b6100d960048036038101906100d49190611107565b61058e565b6040516100e691906111be565b60405180910390f35b610109600480360381019061010491906111d9565b6105bd565b6040516101169190611221565b60405180910390f35b6101276105dd565b005b610131610921565b60405161013e919061124b565b60405180910390f35b61014f610927565b60405161015c919061124b565b60405180910390f35b61017f600480360381019061017a9190611266565b61092f565b60405161018c91906112a2565b60405180910390f35b61019d61096e565b005b6101a7610cb4565b6040516101b491906112a2565b60405180910390f35b6101c5610cda565b6040516101d291906111be565b60405180910390f35b600260003373ffffffffffffffffffffffffffffffffffffffff1673ffffffffffffffffffffffffffffffffffffffff16815260200190815260200160002060009054906101000a900460ff16610267576040517f08c379a000000000000000000000000000000000000000000000000000000000815260040161025e90611340565b60405180910390fd5b3073ffffffffffffffffffffffffffffffffffffffff163373ffffffffffffffffffffffffffffffffffffffff16036102d5576040517f08c379a00000000000000000000000000000000000000000000000000000000081526004016102cc906113d2565b60405180910390fd5b600060028111156102e9576102e8611147565b5b60008054906101000a900460ff16600281111561030957610308611147565b5b14610349576040517f08c379a000000000000000000000000000000000000000000000000000000000815260040161034090611464565b60405180910390fd5b80471161038b576040517f08c379a000000000000000000000000000000000000000000000000000000000815260040161038290611542565b60405180910390fd5b600073ffffffffffffffffffffffffffffffffffffffff168273ffffffffffffffffffffffffffffffffffffffff16036103fa576040517f08c379a00000000000000000000000000000000000000000000000000000000081526004016103f1906115ae565b60405180910390fd5b60018054905060055410610443576040517f08c379a000000000000000000000000000000000000000000000000000000000815260040161043a90611640565b60405180910390fd5b81600460006101000a81548173ffffffffffffffffffffffffffffffffffffffff021916908373ffffffffffffffffffffffffffffffffffffffff1602179055506000600360003373ffffffffffffffffffffffffffffffffffffffff1673ffffffffffffffffffffffffffffffffffffffff1681526020019081526020016000206000600554815260200190815260200160002060006101000a81548160ff021916908360028111156104fa576104f9611147565b5b0217905550600160055461050e919061168f565b60058190555060008060006101000a81548160ff0219169083600281111561053957610538611147565b5b02179055503373ffffffffffffffffffffffffffffffffffffffff167f32b28307b48215ea3a4bc71ae793fbbbfcdcb49b19167ca1bdc3c3077e5e75d560405161058290611735565b60405180910390a25050565b60036020528160005260406000206020528060005260406000206000915091509054906101000a900460ff1681565b60026020528060005260406000206000915054906101000a900460ff1681565b600260003373ffffffffffffffffffffffffffffffffffffffff1673ffffffffffffffffffffffffffffffffffffffff16815260200190815260200160002060009054906101000a900460ff16610669576040517f08c379a000000000000000000000000000000000000000000000000000000000815260040161066090611340565b60405180910390fd5b3073ffffffffffffffffffffffffffffffffffffffff163373ffffffffffffffffffffffffffffffffffffffff16036106d7576040517f08c379a00000000000000000000000000000000000000000000000000000000081526004016106ce906113d2565b60405180910390fd5b600060028111156106eb576106ea611147565b5b60008054906101000a900460ff16600281111561070b5761070a611147565b5b1461074b576040517f08c379a000000000000000000000000000000000000000000000000000000000815260040161074290611464565b60405180910390fd5b6000600281111561075f5761075e611147565b5b600360003373ffffffffffffffffffffffffffffffffffffffff1673ffffffffffffffffffffffffffffffffffffffff1681526020019081526020016000206000600554815260200190815260200160002060009054906101000a900460ff1660028111156107d1576107d0611147565b5b14610811576040517f08c379a0000000000000000000000000000000000000000000000000000000008152600401610808906117c7565b60405180910390fd5b6001600360003373ffffffffffffffffffffffffffffffffffffffff1673ffffffffffffffffffffffffffffffffffffffff1681526020019081526020016000206000600554815260200190815260200160002060006101000a81548160ff0219169083600281111561088757610886611147565b5b02179055506005600081548092919061089f906117e7565b9190505550600160026001805490506108b8919061185e565b6108c2919061168f565b600554036108d3576108d2610ceb565b5b3373ffffffffffffffffffffffffffffffffffffffff167f32b28307b48215ea3a4bc71ae793fbbbfcdcb49b19167ca1bdc3c3077e5e75d5604051610917906118db565b60405180910390a2565b60055481565b600047905090565b6001818154811061093f57600080fd5b906000526020600020016000915054906101000a900473ffffffffffffffffffffffffffffffffffffffff1681565b600260003373ffffffffffffffffffffffffffffffffffffffff1673ffffffffffffffffffffffffffffffffffffffff16815260200190815260200160002060009054906101000a900460ff166109fa576040517f08c379a00000000000000000000000000000000000000000000000000000000081526004016109f190611340565b60405180910390fd5b3073ffffffffffffffffffffffffffffffffffffffff163373ffffffffffffffffffffffffffffffffffffffff1603610a68576040517f08c379a0000000000000000000000000000000000000000000000000000000008152600401610a5f906113d2565b60405180910390fd5b60006002811115610a7c57610a7b611147565b5b60008054906101000a900460ff166002811115610a9c57610a9b611147565b5b14610adc576040517f08c379a0000000000000000000000000000000000000000000000000000000008152600401610ad390611464565b60405180910390fd5b60018054905060055410610b25576040517f08c379a0000000000000000000000000000000000000000000000000000000008152600401610b1c90611640565b60405180910390fd5b60006002811115610b3957610b38611147565b5b600360003373ffffffffffffffffffffffffffffffffffffffff1673ffffffffffffffffffffffffffffffffffffffff1681526020019081526020016000206000600554815260200190815260200160002060009054906101000a900460ff166002811115610bab57610baa611147565b5b14610beb576040517f08c379a0000000000000000000000000000000000000000000000000000000008152600401610be2906117c7565b60405180910390fd5b6002600360003373ffffffffffffffffffffffffffffffffffffffff1673ffffffffffffffffffffffffffffffffffffffff1681526020019081526020016000206000600554815260200190815260200160002060006101000a81548160ff02191690836002811115610c6157610c60611147565b5b02179055503373ffffffffffffffffffffffffffffffffffffffff167f2e554d5cbb2e17448cad88a483da6016cba4c6940c8723fb68d14cda1de4108f604051610caa90611947565b60405180910390a2565b600460009054906101000a900473ffffffffffffffffffffffffffffffffffffffff1681565b60008054906101000a900460ff1681565b600260003373ffffffffffffffffffffffffffffffffffffffff1673ffffffffffffffffffffffffffffffffffffffff16815260200190815260200160002060009054906101000a900460ff16610d77576040517f08c379a0000000000000000000000000000000000000000000000000000000008152600401610d6e90611340565b60405180910390fd5b3073ffffffffffffffffffffffffffffffffffffffff163373ffffffffffffffffffffffffffffffffffffffff1603610de5576040517f08c379a0000000000000000000000000000000000000000000000000000000008152600401610ddc906113d2565b60405180910390fd5b60006002811115610df957610df8611147565b5b60008054906101000a900460ff166002811115610e1957610e18611147565b5b14610e59576040517f08c379a0000000000000000000000000000000000000000000000000000000008152600401610e5090611464565b60405180910390fd5b60004790506000600460009054906101000a900473ffffffffffffffffffffffffffffffffffffffff1673ffffffffffffffffffffffffffffffffffffffff1682604051610ea690611998565b60006040518083038185875af1925050503d8060008114610ee3576040519150601f19603f3d011682016040523d82523d6000602084013e610ee8565b606091505b5050905080610f2c576040517f08c379a0000000000000000000000000000000000000000000000000000000008152600401610f23906119f9565b60405180910390fd5b60016000806101000a81548160ff02191690836002811115610f5157610f50611147565b5b021790555060006005819055506000600460006101000a81548173ffffffffffffffffffffffffffffffffffffffff021916908373ffffffffffffffffffffffffffffffffffffffff1602179055503373ffffffffffffffffffffffffffffffffffffffff167f3b60d8a40db278d18a836f1f84e64063127b2377c94afa9724d8b0fa230d6d6d604051610fe490611a65565b60405180910390a25050565b600080fd5b600073ffffffffffffffffffffffffffffffffffffffff82169050919050565b600061102082610ff5565b9050919050565b61103081611015565b811461103b57600080fd5b50565b60008135905061104d81611027565b92915050565b6000819050919050565b61106681611053565b811461107157600080fd5b50565b6000813590506110838161105d565b92915050565b600080604083850312156110a05761109f610ff0565b5b60006110ae8582860161103e565b92505060206110bf85828601611074565b9150509250929050565b60006110d482610ff5565b9050919050565b6110e4816110c9565b81146110ef57600080fd5b50565b600081359050611101816110db565b92915050565b6000806040838503121561111e5761111d610ff0565b5b600061112c858286016110f2565b925050602061113d85828601611074565b9150509250929050565b7f4e487b7100000000000000000000000000000000000000000000000000000000600052602160045260246000fd5b6003811061118757611186611147565b5b50565b600081905061119882611176565b919050565b60006111a88261118a565b9050919050565b6111b88161119d565b82525050565b60006020820190506111d360008301846111af565b92915050565b6000602082840312156111ef576111ee610ff0565b5b60006111fd848285016110f2565b91505092915050565b60008115159050919050565b61121b81611206565b82525050565b60006020820190506112366000830184611212565b92915050565b61124581611053565b82525050565b6000602082019050611260600083018461123c565b92915050565b60006020828403121561127c5761127b610ff0565b5b600061128a84828501611074565b91505092915050565b61129c81611015565b82525050565b60006020820190506112b76000830184611293565b92915050565b600082825260208201905092915050565b7f546869732061646472657373206973206e6f742070617274206f66207468652060008201527f4f776e6572732047726f75702000000000000000000000000000000000000000602082015250565b600061132a602d836112bd565b9150611335826112ce565b604082019050919050565b600060208201905081810360008301526113598161131d565b9050919050565b7f54686520736d61727420636f6e7472616374206973206e6f7420416c6c6f776560008201527f6420746f2063616c6c20746869732066756e6374696f6e000000000000000000602082015250565b60006113bc6037836112bd565b91506113c782611360565b604082019050919050565b600060208201905081810360008301526113eb816113af565b9050919050565b7f54786e206d7573742065697468657220626520417070726f766564206f72205260008201527f656a656374656400000000000000000000000000000000000000000000000000602082015250565b600061144e6027836112bd565b9150611459826113f2565b604082019050919050565b6000602082019050818103600083015261147d81611441565b9050919050565b7f736d61727420636f6e747261637420646f65736e206e6f74206861766520656e60008201527f6f7567682066756e647320666f72207468697320616d6f756e74202e2e20757360208201527f6520616e20616d6f756e74206c6f776572207468616e2074686174206f66207460408201527f686520736d61727420636f6e74726163742062616c616e636520000000000000606082015250565b600061152c607a836112bd565b915061153782611484565b608082019050919050565b6000602082019050818103600083015261155b8161151f565b9050919050565b7f53686f756c64206e6f7420626520612030783020206164647265737300000000600082015250565b6000611598601c836112bd565b91506115a382611562565b602082019050919050565b600060208201905081810360008301526115c78161158b565b9050919050565b7f617070726f76616c20636f756e742073686f756c64206265206c6f776572207460008201527f68616e204f776e65722047726f75700000000000000000000000000000000000602082015250565b600061162a602f836112bd565b9150611635826115ce565b604082019050919050565b600060208201905081810360008301526116598161161d565b9050919050565b7f4e487b7100000000000000000000000000000000000000000000000000000000600052601160045260246000fd5b600061169a82611053565b91506116a583611053565b92508282019050808211156116bd576116bc611660565b5b92915050565b7f6e65772074786e207375626d69747465642e2e2e2e206f6e6c79206f6e65207060008201527f6172747920617070726f766573202e2e20000000000000000000000000000000602082015250565b600061171f6031836112bd565b915061172a826116c3565b604082019050919050565b6000602082019050818103600083015261174e81611712565b9050919050565b7f7468697320616464726573732068617320616c726561647920617070726f766560008201527f64206f722072656a656374656420000000000000000000000000000000000000602082015250565b60006117b1602e836112bd565b91506117bc82611755565b604082019050919050565b600060208201905081810360008301526117e0816117a4565b9050919050565b60006117f282611053565b91507fffffffffffffffffffffffffffffffffffffffffffffffffffffffffffffffff820361182457611823611660565b5b600182019050919050565b7f4e487b7100000000000000000000000000000000000000000000000000000000600052601260045260246000fd5b600061186982611053565b915061187483611053565b9250826118845761188361182f565b5b828204905092915050565b7f7472616e73616374696f6e20697320617070726f766564200000000000000000600082015250565b60006118c56018836112bd565b91506118d08261188f565b602082019050919050565b600060208201905081810360008301526118f4816118b8565b9050919050565b7f5468697320706172747920646f6573206e6f7420617070726f76650000000000600082015250565b6000611931601b836112bd565b915061193c826118fb565b602082019050919050565b6000602082019050818103600083015261196081611924565b9050919050565b600081905092915050565b50565b6000611982600083611967565b915061198d82611972565b600082019050919050565b60006119a382611975565b9150819050919050565b7f4641494c454420455845435554494f4e00000000000000000000000000000000600082015250565b60006119e36010836112bd565b91506119ee826119ad565b602082019050919050565b60006020820190508181036000830152611a12816119d6565b9050919050565b7f455845435554494f4e20434f4d504c4554450000000000000000000000000000600082015250565b6000611a4f6012836112bd565b9150611a5a82611a19565b602082019050919050565b60006020820190508181036000830152611a7e81611a42565b905091905056fea2646970667358221220d01723d63f624eafeadba9c84cd8c09eb3779930b391b8ea418be1df4cbd70ae64736f6c63430008120033",
					"opcodes": "PUSH1 0x80 PUSH1 0x40 MSTORE CALLVALUE DUP1 ISZERO PUSH3 0x11 JUMPI PUSH1 0x0 DUP1 REVERT JUMPDEST POP PUSH1 0x40 MLOAD PUSH3 0x2099 CODESIZE SUB DUP1 PUSH3 0x2099 DUP4 CODECOPY DUP2 DUP2 ADD PUSH1 0x40 MSTORE DUP2 ADD SWAP1 PUSH3 0x37 SWAP2 SWAP1 PUSH3 0x40C JUMP JUMPDEST PUSH1 0x0 JUMPDEST DUP2 MLOAD DUP2 PUSH1 0xFF AND LT ISZERO PUSH3 0x1E9 JUMPI ADDRESS PUSH20 0xFFFFFFFFFFFFFFFFFFFFFFFFFFFFFFFFFFFFFFFF AND DUP3 DUP3 PUSH1 0xFF AND DUP2 MLOAD DUP2 LT PUSH3 0x77 JUMPI PUSH3 0x76 PUSH3 0x45D JUMP JUMPDEST JUMPDEST PUSH1 0x20 MUL PUSH1 0x20 ADD ADD MLOAD PUSH20 0xFFFFFFFFFFFFFFFFFFFFFFFFFFFFFFFFFFFFFFFF AND SUB PUSH3 0xD8 JUMPI PUSH1 0x40 MLOAD PUSH32 0x8C379A000000000000000000000000000000000000000000000000000000000 DUP2 MSTORE PUSH1 0x4 ADD PUSH3 0xCF SWAP1 PUSH3 0x513 JUMP JUMPDEST PUSH1 0x40 MLOAD DUP1 SWAP2 SUB SWAP1 REVERT JUMPDEST PUSH1 0x1 DUP3 DUP3 PUSH1 0xFF AND DUP2 MLOAD DUP2 LT PUSH3 0xF3 JUMPI PUSH3 0xF2 PUSH3 0x45D JUMP JUMPDEST JUMPDEST PUSH1 0x20 MUL PUSH1 0x20 ADD ADD MLOAD SWAP1 DUP1 PUSH1 0x1 DUP2 SLOAD ADD DUP1 DUP3 SSTORE DUP1 SWAP2 POP POP PUSH1 0x1 SWAP1 SUB SWAP1 PUSH1 0x0 MSTORE PUSH1 0x20 PUSH1 0x0 KECCAK256 ADD PUSH1 0x0 SWAP1 SWAP2 SWAP1 SWAP2 SWAP1 SWAP2 PUSH2 0x100 EXP DUP2 SLOAD DUP2 PUSH20 0xFFFFFFFFFFFFFFFFFFFFFFFFFFFFFFFFFFFFFFFF MUL NOT AND SWAP1 DUP4 PUSH20 0xFFFFFFFFFFFFFFFFFFFFFFFFFFFFFFFFFFFFFFFF AND MUL OR SWAP1 SSTORE POP PUSH1 0x1 PUSH1 0x2 PUSH1 0x0 DUP5 DUP5 PUSH1 0xFF AND DUP2 MLOAD DUP2 LT PUSH3 0x17A JUMPI PUSH3 0x179 PUSH3 0x45D JUMP JUMPDEST JUMPDEST PUSH1 0x20 MUL PUSH1 0x20 ADD ADD MLOAD PUSH20 0xFFFFFFFFFFFFFFFFFFFFFFFFFFFFFFFFFFFFFFFF AND PUSH20 0xFFFFFFFFFFFFFFFFFFFFFFFFFFFFFFFFFFFFFFFF AND DUP2 MSTORE PUSH1 0x20 ADD SWAP1 DUP2 MSTORE PUSH1 0x20 ADD PUSH1 0x0 KECCAK256 PUSH1 0x0 PUSH2 0x100 EXP DUP2 SLOAD DUP2 PUSH1 0xFF MUL NOT AND SWAP1 DUP4 ISZERO ISZERO MUL OR SWAP1 SSTORE POP DUP1 DUP1 PUSH3 0x1E0 SWAP1 PUSH3 0x571 JUMP JUMPDEST SWAP2 POP POP PUSH3 0x3A JUMP JUMPDEST POP PUSH1 0x0 DUP1 PUSH1 0x0 PUSH2 0x100 EXP DUP2 SLOAD DUP2 PUSH1 0xFF MUL NOT AND SWAP1 DUP4 PUSH1 0x2 DUP2 GT ISZERO PUSH3 0x212 JUMPI PUSH3 0x211 PUSH3 0x59F JUMP JUMPDEST JUMPDEST MUL OR SWAP1 SSTORE POP POP PUSH3 0x5CE JUMP JUMPDEST PUSH1 0x0 PUSH1 0x40 MLOAD SWAP1 POP SWAP1 JUMP JUMPDEST PUSH1 0x0 DUP1 REVERT JUMPDEST PUSH1 0x0 DUP1 REVERT JUMPDEST PUSH1 0x0 DUP1 REVERT JUMPDEST PUSH1 0x0 PUSH1 0x1F NOT PUSH1 0x1F DUP4 ADD AND SWAP1 POP SWAP2 SWAP1 POP JUMP JUMPDEST PUSH32 0x4E487B7100000000000000000000000000000000000000000000000000000000 PUSH1 0x0 MSTORE PUSH1 0x41 PUSH1 0x4 MSTORE PUSH1 0x24 PUSH1 0x0 REVERT JUMPDEST PUSH3 0x282 DUP3 PUSH3 0x237 JUMP JUMPDEST DUP2 ADD DUP2 DUP2 LT PUSH8 0xFFFFFFFFFFFFFFFF DUP3 GT OR ISZERO PUSH3 0x2A4 JUMPI PUSH3 0x2A3 PUSH3 0x248 JUMP JUMPDEST JUMPDEST DUP1 PUSH1 0x40 MSTORE POP POP POP JUMP JUMPDEST PUSH1 0x0 PUSH3 0x2B9 PUSH3 0x21E JUMP JUMPDEST SWAP1 POP PUSH3 0x2C7 DUP3 DUP3 PUSH3 0x277 JUMP JUMPDEST SWAP2 SWAP1 POP JUMP JUMPDEST PUSH1 0x0 PUSH8 0xFFFFFFFFFFFFFFFF DUP3 GT ISZERO PUSH3 0x2EA JUMPI PUSH3 0x2E9 PUSH3 0x248 JUMP JUMPDEST JUMPDEST PUSH1 0x20 DUP3 MUL SWAP1 POP PUSH1 0x20 DUP2 ADD SWAP1 POP SWAP2 SWAP1 POP JUMP JUMPDEST PUSH1 0x0 DUP1 REVERT JUMPDEST PUSH1 0x0 PUSH20 0xFFFFFFFFFFFFFFFFFFFFFFFFFFFFFFFFFFFFFFFF DUP3 AND SWAP1 POP SWAP2 SWAP1 POP JUMP JUMPDEST PUSH1 0x0 PUSH3 0x32D DUP3 PUSH3 0x300 JUMP JUMPDEST SWAP1 POP SWAP2 SWAP1 POP JUMP JUMPDEST PUSH3 0x33F DUP2 PUSH3 0x320 JUMP JUMPDEST DUP2 EQ PUSH3 0x34B JUMPI PUSH1 0x0 DUP1 REVERT JUMPDEST POP JUMP JUMPDEST PUSH1 0x0 DUP2 MLOAD SWAP1 POP PUSH3 0x35F DUP2 PUSH3 0x334 JUMP JUMPDEST SWAP3 SWAP2 POP POP JUMP JUMPDEST PUSH1 0x0 PUSH3 0x37C PUSH3 0x376 DUP5 PUSH3 0x2CC JUMP JUMPDEST PUSH3 0x2AD JUMP JUMPDEST SWAP1 POP DUP1 DUP4 DUP3 MSTORE PUSH1 0x20 DUP3 ADD SWAP1 POP PUSH1 0x20 DUP5 MUL DUP4 ADD DUP6 DUP2 GT ISZERO PUSH3 0x3A2 JUMPI PUSH3 0x3A1 PUSH3 0x2FB JUMP JUMPDEST JUMPDEST DUP4 JUMPDEST DUP2 DUP2 LT ISZERO PUSH3 0x3CF JUMPI DUP1 PUSH3 0x3BA DUP9 DUP3 PUSH3 0x34E JUMP JUMPDEST DUP5 MSTORE PUSH1 0x20 DUP5 ADD SWAP4 POP POP PUSH1 0x20 DUP2 ADD SWAP1 POP PUSH3 0x3A4 JUMP JUMPDEST POP POP POP SWAP4 SWAP3 POP POP POP JUMP JUMPDEST PUSH1 0x0 DUP3 PUSH1 0x1F DUP4 ADD SLT PUSH3 0x3F1 JUMPI PUSH3 0x3F0 PUSH3 0x232 JUMP JUMPDEST JUMPDEST DUP2 MLOAD PUSH3 0x403 DUP5 DUP3 PUSH1 0x20 DUP7 ADD PUSH3 0x365 JUMP JUMPDEST SWAP2 POP POP SWAP3 SWAP2 POP POP JUMP JUMPDEST PUSH1 0x0 PUSH1 0x20 DUP3 DUP5 SUB SLT ISZERO PUSH3 0x425 JUMPI PUSH3 0x424 PUSH3 0x228 JUMP JUMPDEST JUMPDEST PUSH1 0x0 DUP3 ADD MLOAD PUSH8 0xFFFFFFFFFFFFFFFF DUP2 GT ISZERO PUSH3 0x446 JUMPI PUSH3 0x445 PUSH3 0x22D JUMP JUMPDEST JUMPDEST PUSH3 0x454 DUP5 DUP3 DUP6 ADD PUSH3 0x3D9 JUMP JUMPDEST SWAP2 POP POP SWAP3 SWAP2 POP POP JUMP JUMPDEST PUSH32 0x4E487B7100000000000000000000000000000000000000000000000000000000 PUSH1 0x0 MSTORE PUSH1 0x32 PUSH1 0x4 MSTORE PUSH1 0x24 PUSH1 0x0 REVERT JUMPDEST PUSH1 0x0 DUP3 DUP3 MSTORE PUSH1 0x20 DUP3 ADD SWAP1 POP SWAP3 SWAP2 POP POP JUMP JUMPDEST PUSH32 0x536D61727420436F6E747261637420416464726573732063616E6E6F74206265 PUSH1 0x0 DUP3 ADD MSTORE PUSH32 0x2070617274206F6620746865204F776E65727300000000000000000000000000 PUSH1 0x20 DUP3 ADD MSTORE POP JUMP JUMPDEST PUSH1 0x0 PUSH3 0x4FB PUSH1 0x33 DUP4 PUSH3 0x48C JUMP JUMPDEST SWAP2 POP PUSH3 0x508 DUP3 PUSH3 0x49D JUMP JUMPDEST PUSH1 0x40 DUP3 ADD SWAP1 POP SWAP2 SWAP1 POP JUMP JUMPDEST PUSH1 0x0 PUSH1 0x20 DUP3 ADD SWAP1 POP DUP2 DUP2 SUB PUSH1 0x0 DUP4 ADD MSTORE PUSH3 0x52E DUP2 PUSH3 0x4EC JUMP JUMPDEST SWAP1 POP SWAP2 SWAP1 POP JUMP JUMPDEST PUSH32 0x4E487B7100000000000000000000000000000000000000000000000000000000 PUSH1 0x0 MSTORE PUSH1 0x11 PUSH1 0x4 MSTORE PUSH1 0x24 PUSH1 0x0 REVERT JUMPDEST PUSH1 0x0 PUSH1 0xFF DUP3 AND SWAP1 POP SWAP2 SWAP1 POP JUMP JUMPDEST PUSH1 0x0 PUSH3 0x57E DUP3 PUSH3 0x564 JUMP JUMPDEST SWAP2 POP PUSH1 0xFF DUP3 SUB PUSH3 0x594 JUMPI PUSH3 0x593 PUSH3 0x535 JUMP JUMPDEST JUMPDEST PUSH1 0x1 DUP3 ADD SWAP1 POP SWAP2 SWAP1 POP JUMP JUMPDEST PUSH32 0x4E487B7100000000000000000000000000000000000000000000000000000000 PUSH1 0x0 MSTORE PUSH1 0x21 PUSH1 0x4 MSTORE PUSH1 0x24 PUSH1 0x0 REVERT JUMPDEST PUSH2 0x1ABB DUP1 PUSH3 0x5DE PUSH1 0x0 CODECOPY PUSH1 0x0 RETURN INVALID PUSH1 0x80 PUSH1 0x40 MSTORE CALLVALUE DUP1 ISZERO PUSH2 0x10 JUMPI PUSH1 0x0 DUP1 REVERT JUMPDEST POP PUSH1 0x4 CALLDATASIZE LT PUSH2 0x9E JUMPI PUSH1 0x0 CALLDATALOAD PUSH1 0xE0 SHR DUP1 PUSH4 0x6F9FB98A GT PUSH2 0x66 JUMPI DUP1 PUSH4 0x6F9FB98A EQ PUSH2 0x147 JUMPI DUP1 PUSH4 0xCBB0F3BB EQ PUSH2 0x165 JUMPI DUP1 PUSH4 0xCD229002 EQ PUSH2 0x195 JUMPI DUP1 PUSH4 0xCFE68270 EQ PUSH2 0x19F JUMPI DUP1 PUSH4 0xF49D884D EQ PUSH2 0x1BD JUMPI PUSH2 0x9E JUMP JUMPDEST DUP1 PUSH4 0x1079ECA2 EQ PUSH2 0xA3 JUMPI DUP1 PUSH4 0x2985D569 EQ PUSH2 0xBF JUMPI DUP1 PUSH4 0x2F54BF6E EQ PUSH2 0xEF JUMPI DUP1 PUSH4 0x40B66B38 EQ PUSH2 0x11F JUMPI DUP1 PUSH4 0x6884D0A6 EQ PUSH2 0x129 JUMPI JUMPDEST PUSH1 0x0 DUP1 REVERT JUMPDEST PUSH2 0xBD PUSH1 0x4 DUP1 CALLDATASIZE SUB DUP2 ADD SWAP1 PUSH2 0xB8 SWAP2 SWAP1 PUSH2 0x1089 JUMP JUMPDEST PUSH2 0x1DB JUMP JUMPDEST STOP JUMPDEST PUSH2 0xD9 PUSH1 0x4 DUP1 CALLDATASIZE SUB DUP2 ADD SWAP1 PUSH2 0xD4 SWAP2 SWAP1 PUSH2 0x1107 JUMP JUMPDEST PUSH2 0x58E JUMP JUMPDEST PUSH1 0x40 MLOAD PUSH2 0xE6 SWAP2 SWAP1 PUSH2 0x11BE JUMP JUMPDEST PUSH1 0x40 MLOAD DUP1 SWAP2 SUB SWAP1 RETURN JUMPDEST PUSH2 0x109 PUSH1 0x4 DUP1 CALLDATASIZE SUB DUP2 ADD SWAP1 PUSH2 0x104 SWAP2 SWAP1 PUSH2 0x11D9 JUMP JUMPDEST PUSH2 0x5BD JUMP JUMPDEST PUSH1 0x40 MLOAD PUSH2 0x116 SWAP2 SWAP1 PUSH2 0x1221 JUMP JUMPDEST PUSH1 0x40 MLOAD DUP1 SWAP2 SUB SWAP1 RETURN JUMPDEST PUSH2 0x127 PUSH2 0x5DD JUMP JUMPDEST STOP JUMPDEST PUSH2 0x131 PUSH2 0x921 JUMP JUMPDEST PUSH1 0x40 MLOAD PUSH2 0x13E SWAP2 SWAP1 PUSH2 0x124B JUMP JUMPDEST PUSH1 0x40 MLOAD DUP1 SWAP2 SUB SWAP1 RETURN JUMPDEST PUSH2 0x14F PUSH2 0x927 JUMP JUMPDEST PUSH1 0x40 MLOAD PUSH2 0x15C SWAP2 SWAP1 PUSH2 0x124B JUMP JUMPDEST PUSH1 0x40 MLOAD DUP1 SWAP2 SUB SWAP1 RETURN JUMPDEST PUSH2 0x17F PUSH1 0x4 DUP1 CALLDATASIZE SUB DUP2 ADD SWAP1 PUSH2 0x17A SWAP2 SWAP1 PUSH2 0x1266 JUMP JUMPDEST PUSH2 0x92F JUMP JUMPDEST PUSH1 0x40 MLOAD PUSH2 0x18C SWAP2 SWAP1 PUSH2 0x12A2 JUMP JUMPDEST PUSH1 0x40 MLOAD DUP1 SWAP2 SUB SWAP1 RETURN JUMPDEST PUSH2 0x19D PUSH2 0x96E JUMP JUMPDEST STOP JUMPDEST PUSH2 0x1A7 PUSH2 0xCB4 JUMP JUMPDEST PUSH1 0x40 MLOAD PUSH2 0x1B4 SWAP2 SWAP1 PUSH2 0x12A2 JUMP JUMPDEST PUSH1 0x40 MLOAD DUP1 SWAP2 SUB SWAP1 RETURN JUMPDEST PUSH2 0x1C5 PUSH2 0xCDA JUMP JUMPDEST PUSH1 0x40 MLOAD PUSH2 0x1D2 SWAP2 SWAP1 PUSH2 0x11BE JUMP JUMPDEST PUSH1 0x40 MLOAD DUP1 SWAP2 SUB SWAP1 RETURN JUMPDEST PUSH1 0x2 PUSH1 0x0 CALLER PUSH20 0xFFFFFFFFFFFFFFFFFFFFFFFFFFFFFFFFFFFFFFFF AND PUSH20 0xFFFFFFFFFFFFFFFFFFFFFFFFFFFFFFFFFFFFFFFF AND DUP2 MSTORE PUSH1 0x20 ADD SWAP1 DUP2 MSTORE PUSH1 0x20 ADD PUSH1 0x0 KECCAK256 PUSH1 0x0 SWAP1 SLOAD SWAP1 PUSH2 0x100 EXP SWAP1 DIV PUSH1 0xFF AND PUSH2 0x267 JUMPI PUSH1 0x40 MLOAD PUSH32 0x8C379A000000000000000000000000000000000000000000000000000000000 DUP2 MSTORE PUSH1 0x4 ADD PUSH2 0x25E SWAP1 PUSH2 0x1340 JUMP JUMPDEST PUSH1 0x40 MLOAD DUP1 SWAP2 SUB SWAP1 REVERT JUMPDEST ADDRESS PUSH20 0xFFFFFFFFFFFFFFFFFFFFFFFFFFFFFFFFFFFFFFFF AND CALLER PUSH20 0xFFFFFFFFFFFFFFFFFFFFFFFFFFFFFFFFFFFFFFFF AND SUB PUSH2 0x2D5 JUMPI PUSH1 0x40 MLOAD PUSH32 0x8C379A000000000000000000000000000000000000000000000000000000000 DUP2 MSTORE PUSH1 0x4 ADD PUSH2 0x2CC SWAP1 PUSH2 0x13D2 JUMP JUMPDEST PUSH1 0x40 MLOAD DUP1 SWAP2 SUB SWAP1 REVERT JUMPDEST PUSH1 0x0 PUSH1 0x2 DUP2 GT ISZERO PUSH2 0x2E9 JUMPI PUSH2 0x2E8 PUSH2 0x1147 JUMP JUMPDEST JUMPDEST PUSH1 0x0 DUP1 SLOAD SWAP1 PUSH2 0x100 EXP SWAP1 DIV PUSH1 0xFF AND PUSH1 0x2 DUP2 GT ISZERO PUSH2 0x309 JUMPI PUSH2 0x308 PUSH2 0x1147 JUMP JUMPDEST JUMPDEST EQ PUSH2 0x349 JUMPI PUSH1 0x40 MLOAD PUSH32 0x8C379A000000000000000000000000000000000000000000000000000000000 DUP2 MSTORE PUSH1 0x4 ADD PUSH2 0x340 SWAP1 PUSH2 0x1464 JUMP JUMPDEST PUSH1 0x40 MLOAD DUP1 SWAP2 SUB SWAP1 REVERT JUMPDEST DUP1 SELFBALANCE GT PUSH2 0x38B JUMPI PUSH1 0x40 MLOAD PUSH32 0x8C379A000000000000000000000000000000000000000000000000000000000 DUP2 MSTORE PUSH1 0x4 ADD PUSH2 0x382 SWAP1 PUSH2 0x1542 JUMP JUMPDEST PUSH1 0x40 MLOAD DUP1 SWAP2 SUB SWAP1 REVERT JUMPDEST PUSH1 0x0 PUSH20 0xFFFFFFFFFFFFFFFFFFFFFFFFFFFFFFFFFFFFFFFF AND DUP3 PUSH20 0xFFFFFFFFFFFFFFFFFFFFFFFFFFFFFFFFFFFFFFFF AND SUB PUSH2 0x3FA JUMPI PUSH1 0x40 MLOAD PUSH32 0x8C379A000000000000000000000000000000000000000000000000000000000 DUP2 MSTORE PUSH1 0x4 ADD PUSH2 0x3F1 SWAP1 PUSH2 0x15AE JUMP JUMPDEST PUSH1 0x40 MLOAD DUP1 SWAP2 SUB SWAP1 REVERT JUMPDEST PUSH1 0x1 DUP1 SLOAD SWAP1 POP PUSH1 0x5 SLOAD LT PUSH2 0x443 JUMPI PUSH1 0x40 MLOAD PUSH32 0x8C379A000000000000000000000000000000000000000000000000000000000 DUP2 MSTORE PUSH1 0x4 ADD PUSH2 0x43A SWAP1 PUSH2 0x1640 JUMP JUMPDEST PUSH1 0x40 MLOAD DUP1 SWAP2 SUB SWAP1 REVERT JUMPDEST DUP2 PUSH1 0x4 PUSH1 0x0 PUSH2 0x100 EXP DUP2 SLOAD DUP2 PUSH20 0xFFFFFFFFFFFFFFFFFFFFFFFFFFFFFFFFFFFFFFFF MUL NOT AND SWAP1 DUP4 PUSH20 0xFFFFFFFFFFFFFFFFFFFFFFFFFFFFFFFFFFFFFFFF AND MUL OR SWAP1 SSTORE POP PUSH1 0x0 PUSH1 0x3 PUSH1 0x0 CALLER PUSH20 0xFFFFFFFFFFFFFFFFFFFFFFFFFFFFFFFFFFFFFFFF AND PUSH20 0xFFFFFFFFFFFFFFFFFFFFFFFFFFFFFFFFFFFFFFFF AND DUP2 MSTORE PUSH1 0x20 ADD SWAP1 DUP2 MSTORE PUSH1 0x20 ADD PUSH1 0x0 KECCAK256 PUSH1 0x0 PUSH1 0x5 SLOAD DUP2 MSTORE PUSH1 0x20 ADD SWAP1 DUP2 MSTORE PUSH1 0x20 ADD PUSH1 0x0 KECCAK256 PUSH1 0x0 PUSH2 0x100 EXP DUP2 SLOAD DUP2 PUSH1 0xFF MUL NOT AND SWAP1 DUP4 PUSH1 0x2 DUP2 GT ISZERO PUSH2 0x4FA JUMPI PUSH2 0x4F9 PUSH2 0x1147 JUMP JUMPDEST JUMPDEST MUL OR SWAP1 SSTORE POP PUSH1 0x1 PUSH1 0x5 SLOAD PUSH2 0x50E SWAP2 SWAP1 PUSH2 0x168F JUMP JUMPDEST PUSH1 0x5 DUP2 SWAP1 SSTORE POP PUSH1 0x0 DUP1 PUSH1 0x0 PUSH2 0x100 EXP DUP2 SLOAD DUP2 PUSH1 0xFF MUL NOT AND SWAP1 DUP4 PUSH1 0x2 DUP2 GT ISZERO PUSH2 0x539 JUMPI PUSH2 0x538 PUSH2 0x1147 JUMP JUMPDEST JUMPDEST MUL OR SWAP1 SSTORE POP CALLER PUSH20 0xFFFFFFFFFFFFFFFFFFFFFFFFFFFFFFFFFFFFFFFF AND PUSH32 0x32B28307B48215EA3A4BC71AE793FBBBFCDCB49B19167CA1BDC3C3077E5E75D5 PUSH1 0x40 MLOAD PUSH2 0x582 SWAP1 PUSH2 0x1735 JUMP JUMPDEST PUSH1 0x40 MLOAD DUP1 SWAP2 SUB SWAP1 LOG2 POP POP JUMP JUMPDEST PUSH1 0x3 PUSH1 0x20 MSTORE DUP2 PUSH1 0x0 MSTORE PUSH1 0x40 PUSH1 0x0 KECCAK256 PUSH1 0x20 MSTORE DUP1 PUSH1 0x0 MSTORE PUSH1 0x40 PUSH1 0x0 KECCAK256 PUSH1 0x0 SWAP2 POP SWAP2 POP SWAP1 SLOAD SWAP1 PUSH2 0x100 EXP SWAP1 DIV PUSH1 0xFF AND DUP2 JUMP JUMPDEST PUSH1 0x2 PUSH1 0x20 MSTORE DUP1 PUSH1 0x0 MSTORE PUSH1 0x40 PUSH1 0x0 KECCAK256 PUSH1 0x0 SWAP2 POP SLOAD SWAP1 PUSH2 0x100 EXP SWAP1 DIV PUSH1 0xFF AND DUP2 JUMP JUMPDEST PUSH1 0x2 PUSH1 0x0 CALLER PUSH20 0xFFFFFFFFFFFFFFFFFFFFFFFFFFFFFFFFFFFFFFFF AND PUSH20 0xFFFFFFFFFFFFFFFFFFFFFFFFFFFFFFFFFFFFFFFF AND DUP2 MSTORE PUSH1 0x20 ADD SWAP1 DUP2 MSTORE PUSH1 0x20 ADD PUSH1 0x0 KECCAK256 PUSH1 0x0 SWAP1 SLOAD SWAP1 PUSH2 0x100 EXP SWAP1 DIV PUSH1 0xFF AND PUSH2 0x669 JUMPI PUSH1 0x40 MLOAD PUSH32 0x8C379A000000000000000000000000000000000000000000000000000000000 DUP2 MSTORE PUSH1 0x4 ADD PUSH2 0x660 SWAP1 PUSH2 0x1340 JUMP JUMPDEST PUSH1 0x40 MLOAD DUP1 SWAP2 SUB SWAP1 REVERT JUMPDEST ADDRESS PUSH20 0xFFFFFFFFFFFFFFFFFFFFFFFFFFFFFFFFFFFFFFFF AND CALLER PUSH20 0xFFFFFFFFFFFFFFFFFFFFFFFFFFFFFFFFFFFFFFFF AND SUB PUSH2 0x6D7 JUMPI PUSH1 0x40 MLOAD PUSH32 0x8C379A000000000000000000000000000000000000000000000000000000000 DUP2 MSTORE PUSH1 0x4 ADD PUSH2 0x6CE SWAP1 PUSH2 0x13D2 JUMP JUMPDEST PUSH1 0x40 MLOAD DUP1 SWAP2 SUB SWAP1 REVERT JUMPDEST PUSH1 0x0 PUSH1 0x2 DUP2 GT ISZERO PUSH2 0x6EB JUMPI PUSH2 0x6EA PUSH2 0x1147 JUMP JUMPDEST JUMPDEST PUSH1 0x0 DUP1 SLOAD SWAP1 PUSH2 0x100 EXP SWAP1 DIV PUSH1 0xFF AND PUSH1 0x2 DUP2 GT ISZERO PUSH2 0x70B JUMPI PUSH2 0x70A PUSH2 0x1147 JUMP JUMPDEST JUMPDEST EQ PUSH2 0x74B JUMPI PUSH1 0x40 MLOAD PUSH32 0x8C379A000000000000000000000000000000000000000000000000000000000 DUP2 MSTORE PUSH1 0x4 ADD PUSH2 0x742 SWAP1 PUSH2 0x1464 JUMP JUMPDEST PUSH1 0x40 MLOAD DUP1 SWAP2 SUB SWAP1 REVERT JUMPDEST PUSH1 0x0 PUSH1 0x2 DUP2 GT ISZERO PUSH2 0x75F JUMPI PUSH2 0x75E PUSH2 0x1147 JUMP JUMPDEST JUMPDEST PUSH1 0x3 PUSH1 0x0 CALLER PUSH20 0xFFFFFFFFFFFFFFFFFFFFFFFFFFFFFFFFFFFFFFFF AND PUSH20 0xFFFFFFFFFFFFFFFFFFFFFFFFFFFFFFFFFFFFFFFF AND DUP2 MSTORE PUSH1 0x20 ADD SWAP1 DUP2 MSTORE PUSH1 0x20 ADD PUSH1 0x0 KECCAK256 PUSH1 0x0 PUSH1 0x5 SLOAD DUP2 MSTORE PUSH1 0x20 ADD SWAP1 DUP2 MSTORE PUSH1 0x20 ADD PUSH1 0x0 KECCAK256 PUSH1 0x0 SWAP1 SLOAD SWAP1 PUSH2 0x100 EXP SWAP1 DIV PUSH1 0xFF AND PUSH1 0x2 DUP2 GT ISZERO PUSH2 0x7D1 JUMPI PUSH2 0x7D0 PUSH2 0x1147 JUMP JUMPDEST JUMPDEST EQ PUSH2 0x811 JUMPI PUSH1 0x40 MLOAD PUSH32 0x8C379A000000000000000000000000000000000000000000000000000000000 DUP2 MSTORE PUSH1 0x4 ADD PUSH2 0x808 SWAP1 PUSH2 0x17C7 JUMP JUMPDEST PUSH1 0x40 MLOAD DUP1 SWAP2 SUB SWAP1 REVERT JUMPDEST PUSH1 0x1 PUSH1 0x3 PUSH1 0x0 CALLER PUSH20 0xFFFFFFFFFFFFFFFFFFFFFFFFFFFFFFFFFFFFFFFF AND PUSH20 0xFFFFFFFFFFFFFFFFFFFFFFFFFFFFFFFFFFFFFFFF AND DUP2 MSTORE PUSH1 0x20 ADD SWAP1 DUP2 MSTORE PUSH1 0x20 ADD PUSH1 0x0 KECCAK256 PUSH1 0x0 PUSH1 0x5 SLOAD DUP2 MSTORE PUSH1 0x20 ADD SWAP1 DUP2 MSTORE PUSH1 0x20 ADD PUSH1 0x0 KECCAK256 PUSH1 0x0 PUSH2 0x100 EXP DUP2 SLOAD DUP2 PUSH1 0xFF MUL NOT AND SWAP1 DUP4 PUSH1 0x2 DUP2 GT ISZERO PUSH2 0x887 JUMPI PUSH2 0x886 PUSH2 0x1147 JUMP JUMPDEST JUMPDEST MUL OR SWAP1 SSTORE POP PUSH1 0x5 PUSH1 0x0 DUP2 SLOAD DUP1 SWAP3 SWAP2 SWAP1 PUSH2 0x89F SWAP1 PUSH2 0x17E7 JUMP JUMPDEST SWAP2 SWAP1 POP SSTORE POP PUSH1 0x1 PUSH1 0x2 PUSH1 0x1 DUP1 SLOAD SWAP1 POP PUSH2 0x8B8 SWAP2 SWAP1 PUSH2 0x185E JUMP JUMPDEST PUSH2 0x8C2 SWAP2 SWAP1 PUSH2 0x168F JUMP JUMPDEST PUSH1 0x5 SLOAD SUB PUSH2 0x8D3 JUMPI PUSH2 0x8D2 PUSH2 0xCEB JUMP JUMPDEST JUMPDEST CALLER PUSH20 0xFFFFFFFFFFFFFFFFFFFFFFFFFFFFFFFFFFFFFFFF AND PUSH32 0x32B28307B48215EA3A4BC71AE793FBBBFCDCB49B19167CA1BDC3C3077E5E75D5 PUSH1 0x40 MLOAD PUSH2 0x917 SWAP1 PUSH2 0x18DB JUMP JUMPDEST PUSH1 0x40 MLOAD DUP1 SWAP2 SUB SWAP1 LOG2 JUMP JUMPDEST PUSH1 0x5 SLOAD DUP2 JUMP JUMPDEST PUSH1 0x0 SELFBALANCE SWAP1 POP SWAP1 JUMP JUMPDEST PUSH1 0x1 DUP2 DUP2 SLOAD DUP2 LT PUSH2 0x93F JUMPI PUSH1 0x0 DUP1 REVERT JUMPDEST SWAP1 PUSH1 0x0 MSTORE PUSH1 0x20 PUSH1 0x0 KECCAK256 ADD PUSH1 0x0 SWAP2 POP SLOAD SWAP1 PUSH2 0x100 EXP SWAP1 DIV PUSH20 0xFFFFFFFFFFFFFFFFFFFFFFFFFFFFFFFFFFFFFFFF AND DUP2 JUMP JUMPDEST PUSH1 0x2 PUSH1 0x0 CALLER PUSH20 0xFFFFFFFFFFFFFFFFFFFFFFFFFFFFFFFFFFFFFFFF AND PUSH20 0xFFFFFFFFFFFFFFFFFFFFFFFFFFFFFFFFFFFFFFFF AND DUP2 MSTORE PUSH1 0x20 ADD SWAP1 DUP2 MSTORE PUSH1 0x20 ADD PUSH1 0x0 KECCAK256 PUSH1 0x0 SWAP1 SLOAD SWAP1 PUSH2 0x100 EXP SWAP1 DIV PUSH1 0xFF AND PUSH2 0x9FA JUMPI PUSH1 0x40 MLOAD PUSH32 0x8C379A000000000000000000000000000000000000000000000000000000000 DUP2 MSTORE PUSH1 0x4 ADD PUSH2 0x9F1 SWAP1 PUSH2 0x1340 JUMP JUMPDEST PUSH1 0x40 MLOAD DUP1 SWAP2 SUB SWAP1 REVERT JUMPDEST ADDRESS PUSH20 0xFFFFFFFFFFFFFFFFFFFFFFFFFFFFFFFFFFFFFFFF AND CALLER PUSH20 0xFFFFFFFFFFFFFFFFFFFFFFFFFFFFFFFFFFFFFFFF AND SUB PUSH2 0xA68 JUMPI PUSH1 0x40 MLOAD PUSH32 0x8C379A000000000000000000000000000000000000000000000000000000000 DUP2 MSTORE PUSH1 0x4 ADD PUSH2 0xA5F SWAP1 PUSH2 0x13D2 JUMP JUMPDEST PUSH1 0x40 MLOAD DUP1 SWAP2 SUB SWAP1 REVERT JUMPDEST PUSH1 0x0 PUSH1 0x2 DUP2 GT ISZERO PUSH2 0xA7C JUMPI PUSH2 0xA7B PUSH2 0x1147 JUMP JUMPDEST JUMPDEST PUSH1 0x0 DUP1 SLOAD SWAP1 PUSH2 0x100 EXP SWAP1 DIV PUSH1 0xFF AND PUSH1 0x2 DUP2 GT ISZERO PUSH2 0xA9C JUMPI PUSH2 0xA9B PUSH2 0x1147 JUMP JUMPDEST JUMPDEST EQ PUSH2 0xADC JUMPI PUSH1 0x40 MLOAD PUSH32 0x8C379A000000000000000000000000000000000000000000000000000000000 DUP2 MSTORE PUSH1 0x4 ADD PUSH2 0xAD3 SWAP1 PUSH2 0x1464 JUMP JUMPDEST PUSH1 0x40 MLOAD DUP1 SWAP2 SUB SWAP1 REVERT JUMPDEST PUSH1 0x1 DUP1 SLOAD SWAP1 POP PUSH1 0x5 SLOAD LT PUSH2 0xB25 JUMPI PUSH1 0x40 MLOAD PUSH32 0x8C379A000000000000000000000000000000000000000000000000000000000 DUP2 MSTORE PUSH1 0x4 ADD PUSH2 0xB1C SWAP1 PUSH2 0x1640 JUMP JUMPDEST PUSH1 0x40 MLOAD DUP1 SWAP2 SUB SWAP1 REVERT JUMPDEST PUSH1 0x0 PUSH1 0x2 DUP2 GT ISZERO PUSH2 0xB39 JUMPI PUSH2 0xB38 PUSH2 0x1147 JUMP JUMPDEST JUMPDEST PUSH1 0x3 PUSH1 0x0 CALLER PUSH20 0xFFFFFFFFFFFFFFFFFFFFFFFFFFFFFFFFFFFFFFFF AND PUSH20 0xFFFFFFFFFFFFFFFFFFFFFFFFFFFFFFFFFFFFFFFF AND DUP2 MSTORE PUSH1 0x20 ADD SWAP1 DUP2 MSTORE PUSH1 0x20 ADD PUSH1 0x0 KECCAK256 PUSH1 0x0 PUSH1 0x5 SLOAD DUP2 MSTORE PUSH1 0x20 ADD SWAP1 DUP2 MSTORE PUSH1 0x20 ADD PUSH1 0x0 KECCAK256 PUSH1 0x0 SWAP1 SLOAD SWAP1 PUSH2 0x100 EXP SWAP1 DIV PUSH1 0xFF AND PUSH1 0x2 DUP2 GT ISZERO PUSH2 0xBAB JUMPI PUSH2 0xBAA PUSH2 0x1147 JUMP JUMPDEST JUMPDEST EQ PUSH2 0xBEB JUMPI PUSH1 0x40 MLOAD PUSH32 0x8C379A000000000000000000000000000000000000000000000000000000000 DUP2 MSTORE PUSH1 0x4 ADD PUSH2 0xBE2 SWAP1 PUSH2 0x17C7 JUMP JUMPDEST PUSH1 0x40 MLOAD DUP1 SWAP2 SUB SWAP1 REVERT JUMPDEST PUSH1 0x2 PUSH1 0x3 PUSH1 0x0 CALLER PUSH20 0xFFFFFFFFFFFFFFFFFFFFFFFFFFFFFFFFFFFFFFFF AND PUSH20 0xFFFFFFFFFFFFFFFFFFFFFFFFFFFFFFFFFFFFFFFF AND DUP2 MSTORE PUSH1 0x20 ADD SWAP1 DUP2 MSTORE PUSH1 0x20 ADD PUSH1 0x0 KECCAK256 PUSH1 0x0 PUSH1 0x5 SLOAD DUP2 MSTORE PUSH1 0x20 ADD SWAP1 DUP2 MSTORE PUSH1 0x20 ADD PUSH1 0x0 KECCAK256 PUSH1 0x0 PUSH2 0x100 EXP DUP2 SLOAD DUP2 PUSH1 0xFF MUL NOT AND SWAP1 DUP4 PUSH1 0x2 DUP2 GT ISZERO PUSH2 0xC61 JUMPI PUSH2 0xC60 PUSH2 0x1147 JUMP JUMPDEST JUMPDEST MUL OR SWAP1 SSTORE POP CALLER PUSH20 0xFFFFFFFFFFFFFFFFFFFFFFFFFFFFFFFFFFFFFFFF AND PUSH32 0x2E554D5CBB2E17448CAD88A483DA6016CBA4C6940C8723FB68D14CDA1DE4108F PUSH1 0x40 MLOAD PUSH2 0xCAA SWAP1 PUSH2 0x1947 JUMP JUMPDEST PUSH1 0x40 MLOAD DUP1 SWAP2 SUB SWAP1 LOG2 JUMP JUMPDEST PUSH1 0x4 PUSH1 0x0 SWAP1 SLOAD SWAP1 PUSH2 0x100 EXP SWAP1 DIV PUSH20 0xFFFFFFFFFFFFFFFFFFFFFFFFFFFFFFFFFFFFFFFF AND DUP2 JUMP JUMPDEST PUSH1 0x0 DUP1 SLOAD SWAP1 PUSH2 0x100 EXP SWAP1 DIV PUSH1 0xFF AND DUP2 JUMP JUMPDEST PUSH1 0x2 PUSH1 0x0 CALLER PUSH20 0xFFFFFFFFFFFFFFFFFFFFFFFFFFFFFFFFFFFFFFFF AND PUSH20 0xFFFFFFFFFFFFFFFFFFFFFFFFFFFFFFFFFFFFFFFF AND DUP2 MSTORE PUSH1 0x20 ADD SWAP1 DUP2 MSTORE PUSH1 0x20 ADD PUSH1 0x0 KECCAK256 PUSH1 0x0 SWAP1 SLOAD SWAP1 PUSH2 0x100 EXP SWAP1 DIV PUSH1 0xFF AND PUSH2 0xD77 JUMPI PUSH1 0x40 MLOAD PUSH32 0x8C379A000000000000000000000000000000000000000000000000000000000 DUP2 MSTORE PUSH1 0x4 ADD PUSH2 0xD6E SWAP1 PUSH2 0x1340 JUMP JUMPDEST PUSH1 0x40 MLOAD DUP1 SWAP2 SUB SWAP1 REVERT JUMPDEST ADDRESS PUSH20 0xFFFFFFFFFFFFFFFFFFFFFFFFFFFFFFFFFFFFFFFF AND CALLER PUSH20 0xFFFFFFFFFFFFFFFFFFFFFFFFFFFFFFFFFFFFFFFF AND SUB PUSH2 0xDE5 JUMPI PUSH1 0x40 MLOAD PUSH32 0x8C379A000000000000000000000000000000000000000000000000000000000 DUP2 MSTORE PUSH1 0x4 ADD PUSH2 0xDDC SWAP1 PUSH2 0x13D2 JUMP JUMPDEST PUSH1 0x40 MLOAD DUP1 SWAP2 SUB SWAP1 REVERT JUMPDEST PUSH1 0x0 PUSH1 0x2 DUP2 GT ISZERO PUSH2 0xDF9 JUMPI PUSH2 0xDF8 PUSH2 0x1147 JUMP JUMPDEST JUMPDEST PUSH1 0x0 DUP1 SLOAD SWAP1 PUSH2 0x100 EXP SWAP1 DIV PUSH1 0xFF AND PUSH1 0x2 DUP2 GT ISZERO PUSH2 0xE19 JUMPI PUSH2 0xE18 PUSH2 0x1147 JUMP JUMPDEST JUMPDEST EQ PUSH2 0xE59 JUMPI PUSH1 0x40 MLOAD PUSH32 0x8C379A000000000000000000000000000000000000000000000000000000000 DUP2 MSTORE PUSH1 0x4 ADD PUSH2 0xE50 SWAP1 PUSH2 0x1464 JUMP JUMPDEST PUSH1 0x40 MLOAD DUP1 SWAP2 SUB SWAP1 REVERT JUMPDEST PUSH1 0x0 SELFBALANCE SWAP1 POP PUSH1 0x0 PUSH1 0x4 PUSH1 0x0 SWAP1 SLOAD SWAP1 PUSH2 0x100 EXP SWAP1 DIV PUSH20 0xFFFFFFFFFFFFFFFFFFFFFFFFFFFFFFFFFFFFFFFF AND PUSH20 0xFFFFFFFFFFFFFFFFFFFFFFFFFFFFFFFFFFFFFFFF AND DUP3 PUSH1 0x40 MLOAD PUSH2 0xEA6 SWAP1 PUSH2 0x1998 JUMP JUMPDEST PUSH1 0x0 PUSH1 0x40 MLOAD DUP1 DUP4 SUB DUP2 DUP6 DUP8 GAS CALL SWAP3 POP POP POP RETURNDATASIZE DUP1 PUSH1 0x0 DUP2 EQ PUSH2 0xEE3 JUMPI PUSH1 0x40 MLOAD SWAP2 POP PUSH1 0x1F NOT PUSH1 0x3F RETURNDATASIZE ADD AND DUP3 ADD PUSH1 0x40 MSTORE RETURNDATASIZE DUP3 MSTORE RETURNDATASIZE PUSH1 0x0 PUSH1 0x20 DUP5 ADD RETURNDATACOPY PUSH2 0xEE8 JUMP JUMPDEST PUSH1 0x60 SWAP2 POP JUMPDEST POP POP SWAP1 POP DUP1 PUSH2 0xF2C JUMPI PUSH1 0x40 MLOAD PUSH32 0x8C379A000000000000000000000000000000000000000000000000000000000 DUP2 MSTORE PUSH1 0x4 ADD PUSH2 0xF23 SWAP1 PUSH2 0x19F9 JUMP JUMPDEST PUSH1 0x40 MLOAD DUP1 SWAP2 SUB SWAP1 REVERT JUMPDEST PUSH1 0x1 PUSH1 0x0 DUP1 PUSH2 0x100 EXP DUP2 SLOAD DUP2 PUSH1 0xFF MUL NOT AND SWAP1 DUP4 PUSH1 0x2 DUP2 GT ISZERO PUSH2 0xF51 JUMPI PUSH2 0xF50 PUSH2 0x1147 JUMP JUMPDEST JUMPDEST MUL OR SWAP1 SSTORE POP PUSH1 0x0 PUSH1 0x5 DUP2 SWAP1 SSTORE POP PUSH1 0x0 PUSH1 0x4 PUSH1 0x0 PUSH2 0x100 EXP DUP2 SLOAD DUP2 PUSH20 0xFFFFFFFFFFFFFFFFFFFFFFFFFFFFFFFFFFFFFFFF MUL NOT AND SWAP1 DUP4 PUSH20 0xFFFFFFFFFFFFFFFFFFFFFFFFFFFFFFFFFFFFFFFF AND MUL OR SWAP1 SSTORE POP CALLER PUSH20 0xFFFFFFFFFFFFFFFFFFFFFFFFFFFFFFFFFFFFFFFF AND PUSH32 0x3B60D8A40DB278D18A836F1F84E64063127B2377C94AFA9724D8B0FA230D6D6D PUSH1 0x40 MLOAD PUSH2 0xFE4 SWAP1 PUSH2 0x1A65 JUMP JUMPDEST PUSH1 0x40 MLOAD DUP1 SWAP2 SUB SWAP1 LOG2 POP POP JUMP JUMPDEST PUSH1 0x0 DUP1 REVERT JUMPDEST PUSH1 0x0 PUSH20 0xFFFFFFFFFFFFFFFFFFFFFFFFFFFFFFFFFFFFFFFF DUP3 AND SWAP1 POP SWAP2 SWAP1 POP JUMP JUMPDEST PUSH1 0x0 PUSH2 0x1020 DUP3 PUSH2 0xFF5 JUMP JUMPDEST SWAP1 POP SWAP2 SWAP1 POP JUMP JUMPDEST PUSH2 0x1030 DUP2 PUSH2 0x1015 JUMP JUMPDEST DUP2 EQ PUSH2 0x103B JUMPI PUSH1 0x0 DUP1 REVERT JUMPDEST POP JUMP JUMPDEST PUSH1 0x0 DUP2 CALLDATALOAD SWAP1 POP PUSH2 0x104D DUP2 PUSH2 0x1027 JUMP JUMPDEST SWAP3 SWAP2 POP POP JUMP JUMPDEST PUSH1 0x0 DUP2 SWAP1 POP SWAP2 SWAP1 POP JUMP JUMPDEST PUSH2 0x1066 DUP2 PUSH2 0x1053 JUMP JUMPDEST DUP2 EQ PUSH2 0x1071 JUMPI PUSH1 0x0 DUP1 REVERT JUMPDEST POP JUMP JUMPDEST PUSH1 0x0 DUP2 CALLDATALOAD SWAP1 POP PUSH2 0x1083 DUP2 PUSH2 0x105D JUMP JUMPDEST SWAP3 SWAP2 POP POP JUMP JUMPDEST PUSH1 0x0 DUP1 PUSH1 0x40 DUP4 DUP6 SUB SLT ISZERO PUSH2 0x10A0 JUMPI PUSH2 0x109F PUSH2 0xFF0 JUMP JUMPDEST JUMPDEST PUSH1 0x0 PUSH2 0x10AE DUP6 DUP3 DUP7 ADD PUSH2 0x103E JUMP JUMPDEST SWAP3 POP POP PUSH1 0x20 PUSH2 0x10BF DUP6 DUP3 DUP7 ADD PUSH2 0x1074 JUMP JUMPDEST SWAP2 POP POP SWAP3 POP SWAP3 SWAP1 POP JUMP JUMPDEST PUSH1 0x0 PUSH2 0x10D4 DUP3 PUSH2 0xFF5 JUMP JUMPDEST SWAP1 POP SWAP2 SWAP1 POP JUMP JUMPDEST PUSH2 0x10E4 DUP2 PUSH2 0x10C9 JUMP JUMPDEST DUP2 EQ PUSH2 0x10EF JUMPI PUSH1 0x0 DUP1 REVERT JUMPDEST POP JUMP JUMPDEST PUSH1 0x0 DUP2 CALLDATALOAD SWAP1 POP PUSH2 0x1101 DUP2 PUSH2 0x10DB JUMP JUMPDEST SWAP3 SWAP2 POP POP JUMP JUMPDEST PUSH1 0x0 DUP1 PUSH1 0x40 DUP4 DUP6 SUB SLT ISZERO PUSH2 0x111E JUMPI PUSH2 0x111D PUSH2 0xFF0 JUMP JUMPDEST JUMPDEST PUSH1 0x0 PUSH2 0x112C DUP6 DUP3 DUP7 ADD PUSH2 0x10F2 JUMP JUMPDEST SWAP3 POP POP PUSH1 0x20 PUSH2 0x113D DUP6 DUP3 DUP7 ADD PUSH2 0x1074 JUMP JUMPDEST SWAP2 POP POP SWAP3 POP SWAP3 SWAP1 POP JUMP JUMPDEST PUSH32 0x4E487B7100000000000000000000000000000000000000000000000000000000 PUSH1 0x0 MSTORE PUSH1 0x21 PUSH1 0x4 MSTORE PUSH1 0x24 PUSH1 0x0 REVERT JUMPDEST PUSH1 0x3 DUP2 LT PUSH2 0x1187 JUMPI PUSH2 0x1186 PUSH2 0x1147 JUMP JUMPDEST JUMPDEST POP JUMP JUMPDEST PUSH1 0x0 DUP2 SWAP1 POP PUSH2 0x1198 DUP3 PUSH2 0x1176 JUMP JUMPDEST SWAP2 SWAP1 POP JUMP JUMPDEST PUSH1 0x0 PUSH2 0x11A8 DUP3 PUSH2 0x118A JUMP JUMPDEST SWAP1 POP SWAP2 SWAP1 POP JUMP JUMPDEST PUSH2 0x11B8 DUP2 PUSH2 0x119D JUMP JUMPDEST DUP3 MSTORE POP POP JUMP JUMPDEST PUSH1 0x0 PUSH1 0x20 DUP3 ADD SWAP1 POP PUSH2 0x11D3 PUSH1 0x0 DUP4 ADD DUP5 PUSH2 0x11AF JUMP JUMPDEST SWAP3 SWAP2 POP POP JUMP JUMPDEST PUSH1 0x0 PUSH1 0x20 DUP3 DUP5 SUB SLT ISZERO PUSH2 0x11EF JUMPI PUSH2 0x11EE PUSH2 0xFF0 JUMP JUMPDEST JUMPDEST PUSH1 0x0 PUSH2 0x11FD DUP5 DUP3 DUP6 ADD PUSH2 0x10F2 JUMP JUMPDEST SWAP2 POP POP SWAP3 SWAP2 POP POP JUMP JUMPDEST PUSH1 0x0 DUP2 ISZERO ISZERO SWAP1 POP SWAP2 SWAP1 POP JUMP JUMPDEST PUSH2 0x121B DUP2 PUSH2 0x1206 JUMP JUMPDEST DUP3 MSTORE POP POP JUMP JUMPDEST PUSH1 0x0 PUSH1 0x20 DUP3 ADD SWAP1 POP PUSH2 0x1236 PUSH1 0x0 DUP4 ADD DUP5 PUSH2 0x1212 JUMP JUMPDEST SWAP3 SWAP2 POP POP JUMP JUMPDEST PUSH2 0x1245 DUP2 PUSH2 0x1053 JUMP JUMPDEST DUP3 MSTORE POP POP JUMP JUMPDEST PUSH1 0x0 PUSH1 0x20 DUP3 ADD SWAP1 POP PUSH2 0x1260 PUSH1 0x0 DUP4 ADD DUP5 PUSH2 0x123C JUMP JUMPDEST SWAP3 SWAP2 POP POP JUMP JUMPDEST PUSH1 0x0 PUSH1 0x20 DUP3 DUP5 SUB SLT ISZERO PUSH2 0x127C JUMPI PUSH2 0x127B PUSH2 0xFF0 JUMP JUMPDEST JUMPDEST PUSH1 0x0 PUSH2 0x128A DUP5 DUP3 DUP6 ADD PUSH2 0x1074 JUMP JUMPDEST SWAP2 POP POP SWAP3 SWAP2 POP POP JUMP JUMPDEST PUSH2 0x129C DUP2 PUSH2 0x1015 JUMP JUMPDEST DUP3 MSTORE POP POP JUMP JUMPDEST PUSH1 0x0 PUSH1 0x20 DUP3 ADD SWAP1 POP PUSH2 0x12B7 PUSH1 0x0 DUP4 ADD DUP5 PUSH2 0x1293 JUMP JUMPDEST SWAP3 SWAP2 POP POP JUMP JUMPDEST PUSH1 0x0 DUP3 DUP3 MSTORE PUSH1 0x20 DUP3 ADD SWAP1 POP SWAP3 SWAP2 POP POP JUMP JUMPDEST PUSH32 0x546869732061646472657373206973206E6F742070617274206F662074686520 PUSH1 0x0 DUP3 ADD MSTORE PUSH32 0x4F776E6572732047726F75702000000000000000000000000000000000000000 PUSH1 0x20 DUP3 ADD MSTORE POP JUMP JUMPDEST PUSH1 0x0 PUSH2 0x132A PUSH1 0x2D DUP4 PUSH2 0x12BD JUMP JUMPDEST SWAP2 POP PUSH2 0x1335 DUP3 PUSH2 0x12CE JUMP JUMPDEST PUSH1 0x40 DUP3 ADD SWAP1 POP SWAP2 SWAP1 POP JUMP JUMPDEST PUSH1 0x0 PUSH1 0x20 DUP3 ADD SWAP1 POP DUP2 DUP2 SUB PUSH1 0x0 DUP4 ADD MSTORE PUSH2 0x1359 DUP2 PUSH2 0x131D JUMP JUMPDEST SWAP1 POP SWAP2 SWAP1 POP JUMP JUMPDEST PUSH32 0x54686520736D61727420636F6E7472616374206973206E6F7420416C6C6F7765 PUSH1 0x0 DUP3 ADD MSTORE PUSH32 0x6420746F2063616C6C20746869732066756E6374696F6E000000000000000000 PUSH1 0x20 DUP3 ADD MSTORE POP JUMP JUMPDEST PUSH1 0x0 PUSH2 0x13BC PUSH1 0x37 DUP4 PUSH2 0x12BD JUMP JUMPDEST SWAP2 POP PUSH2 0x13C7 DUP3 PUSH2 0x1360 JUMP JUMPDEST PUSH1 0x40 DUP3 ADD SWAP1 POP SWAP2 SWAP1 POP JUMP JUMPDEST PUSH1 0x0 PUSH1 0x20 DUP3 ADD SWAP1 POP DUP2 DUP2 SUB PUSH1 0x0 DUP4 ADD MSTORE PUSH2 0x13EB DUP2 PUSH2 0x13AF JUMP JUMPDEST SWAP1 POP SWAP2 SWAP1 POP JUMP JUMPDEST PUSH32 0x54786E206D7573742065697468657220626520417070726F766564206F722052 PUSH1 0x0 DUP3 ADD MSTORE PUSH32 0x656A656374656400000000000000000000000000000000000000000000000000 PUSH1 0x20 DUP3 ADD MSTORE POP JUMP JUMPDEST PUSH1 0x0 PUSH2 0x144E PUSH1 0x27 DUP4 PUSH2 0x12BD JUMP JUMPDEST SWAP2 POP PUSH2 0x1459 DUP3 PUSH2 0x13F2 JUMP JUMPDEST PUSH1 0x40 DUP3 ADD SWAP1 POP SWAP2 SWAP1 POP JUMP JUMPDEST PUSH1 0x0 PUSH1 0x20 DUP3 ADD SWAP1 POP DUP2 DUP2 SUB PUSH1 0x0 DUP4 ADD MSTORE PUSH2 0x147D DUP2 PUSH2 0x1441 JUMP JUMPDEST SWAP1 POP SWAP2 SWAP1 POP JUMP JUMPDEST PUSH32 0x736D61727420636F6E747261637420646F65736E206E6F74206861766520656E PUSH1 0x0 DUP3 ADD MSTORE PUSH32 0x6F7567682066756E647320666F72207468697320616D6F756E74202E2E207573 PUSH1 0x20 DUP3 ADD MSTORE PUSH32 0x6520616E20616D6F756E74206C6F776572207468616E2074686174206F662074 PUSH1 0x40 DUP3 ADD MSTORE PUSH32 0x686520736D61727420636F6E74726163742062616C616E636520000000000000 PUSH1 0x60 DUP3 ADD MSTORE POP JUMP JUMPDEST PUSH1 0x0 PUSH2 0x152C PUSH1 0x7A DUP4 PUSH2 0x12BD JUMP JUMPDEST SWAP2 POP PUSH2 0x1537 DUP3 PUSH2 0x1484 JUMP JUMPDEST PUSH1 0x80 DUP3 ADD SWAP1 POP SWAP2 SWAP1 POP JUMP JUMPDEST PUSH1 0x0 PUSH1 0x20 DUP3 ADD SWAP1 POP DUP2 DUP2 SUB PUSH1 0x0 DUP4 ADD MSTORE PUSH2 0x155B DUP2 PUSH2 0x151F JUMP JUMPDEST SWAP1 POP SWAP2 SWAP1 POP JUMP JUMPDEST PUSH32 0x53686F756C64206E6F7420626520612030783020206164647265737300000000 PUSH1 0x0 DUP3 ADD MSTORE POP JUMP JUMPDEST PUSH1 0x0 PUSH2 0x1598 PUSH1 0x1C DUP4 PUSH2 0x12BD JUMP JUMPDEST SWAP2 POP PUSH2 0x15A3 DUP3 PUSH2 0x1562 JUMP JUMPDEST PUSH1 0x20 DUP3 ADD SWAP1 POP SWAP2 SWAP1 POP JUMP JUMPDEST PUSH1 0x0 PUSH1 0x20 DUP3 ADD SWAP1 POP DUP2 DUP2 SUB PUSH1 0x0 DUP4 ADD MSTORE PUSH2 0x15C7 DUP2 PUSH2 0x158B JUMP JUMPDEST SWAP1 POP SWAP2 SWAP1 POP JUMP JUMPDEST PUSH32 0x617070726F76616C20636F756E742073686F756C64206265206C6F7765722074 PUSH1 0x0 DUP3 ADD MSTORE PUSH32 0x68616E204F776E65722047726F75700000000000000000000000000000000000 PUSH1 0x20 DUP3 ADD MSTORE POP JUMP JUMPDEST PUSH1 0x0 PUSH2 0x162A PUSH1 0x2F DUP4 PUSH2 0x12BD JUMP JUMPDEST SWAP2 POP PUSH2 0x1635 DUP3 PUSH2 0x15CE JUMP JUMPDEST PUSH1 0x40 DUP3 ADD SWAP1 POP SWAP2 SWAP1 POP JUMP JUMPDEST PUSH1 0x0 PUSH1 0x20 DUP3 ADD SWAP1 POP DUP2 DUP2 SUB PUSH1 0x0 DUP4 ADD MSTORE PUSH2 0x1659 DUP2 PUSH2 0x161D JUMP JUMPDEST SWAP1 POP SWAP2 SWAP1 POP JUMP JUMPDEST PUSH32 0x4E487B7100000000000000000000000000000000000000000000000000000000 PUSH1 0x0 MSTORE PUSH1 0x11 PUSH1 0x4 MSTORE PUSH1 0x24 PUSH1 0x0 REVERT JUMPDEST PUSH1 0x0 PUSH2 0x169A DUP3 PUSH2 0x1053 JUMP JUMPDEST SWAP2 POP PUSH2 0x16A5 DUP4 PUSH2 0x1053 JUMP JUMPDEST SWAP3 POP DUP3 DUP3 ADD SWAP1 POP DUP1 DUP3 GT ISZERO PUSH2 0x16BD JUMPI PUSH2 0x16BC PUSH2 0x1660 JUMP JUMPDEST JUMPDEST SWAP3 SWAP2 POP POP JUMP JUMPDEST PUSH32 0x6E65772074786E207375626D69747465642E2E2E2E206F6E6C79206F6E652070 PUSH1 0x0 DUP3 ADD MSTORE PUSH32 0x6172747920617070726F766573202E2E20000000000000000000000000000000 PUSH1 0x20 DUP3 ADD MSTORE POP JUMP JUMPDEST PUSH1 0x0 PUSH2 0x171F PUSH1 0x31 DUP4 PUSH2 0x12BD JUMP JUMPDEST SWAP2 POP PUSH2 0x172A DUP3 PUSH2 0x16C3 JUMP JUMPDEST PUSH1 0x40 DUP3 ADD SWAP1 POP SWAP2 SWAP1 POP JUMP JUMPDEST PUSH1 0x0 PUSH1 0x20 DUP3 ADD SWAP1 POP DUP2 DUP2 SUB PUSH1 0x0 DUP4 ADD MSTORE PUSH2 0x174E DUP2 PUSH2 0x1712 JUMP JUMPDEST SWAP1 POP SWAP2 SWAP1 POP JUMP JUMPDEST PUSH32 0x7468697320616464726573732068617320616C726561647920617070726F7665 PUSH1 0x0 DUP3 ADD MSTORE PUSH32 0x64206F722072656A656374656420000000000000000000000000000000000000 PUSH1 0x20 DUP3 ADD MSTORE POP JUMP JUMPDEST PUSH1 0x0 PUSH2 0x17B1 PUSH1 0x2E DUP4 PUSH2 0x12BD JUMP JUMPDEST SWAP2 POP PUSH2 0x17BC DUP3 PUSH2 0x1755 JUMP JUMPDEST PUSH1 0x40 DUP3 ADD SWAP1 POP SWAP2 SWAP1 POP JUMP JUMPDEST PUSH1 0x0 PUSH1 0x20 DUP3 ADD SWAP1 POP DUP2 DUP2 SUB PUSH1 0x0 DUP4 ADD MSTORE PUSH2 0x17E0 DUP2 PUSH2 0x17A4 JUMP JUMPDEST SWAP1 POP SWAP2 SWAP1 POP JUMP JUMPDEST PUSH1 0x0 PUSH2 0x17F2 DUP3 PUSH2 0x1053 JUMP JUMPDEST SWAP2 POP PUSH32 0xFFFFFFFFFFFFFFFFFFFFFFFFFFFFFFFFFFFFFFFFFFFFFFFFFFFFFFFFFFFFFFFF DUP3 SUB PUSH2 0x1824 JUMPI PUSH2 0x1823 PUSH2 0x1660 JUMP JUMPDEST JUMPDEST PUSH1 0x1 DUP3 ADD SWAP1 POP SWAP2 SWAP1 POP JUMP JUMPDEST PUSH32 0x4E487B7100000000000000000000000000000000000000000000000000000000 PUSH1 0x0 MSTORE PUSH1 0x12 PUSH1 0x4 MSTORE PUSH1 0x24 PUSH1 0x0 REVERT JUMPDEST PUSH1 0x0 PUSH2 0x1869 DUP3 PUSH2 0x1053 JUMP JUMPDEST SWAP2 POP PUSH2 0x1874 DUP4 PUSH2 0x1053 JUMP JUMPDEST SWAP3 POP DUP3 PUSH2 0x1884 JUMPI PUSH2 0x1883 PUSH2 0x182F JUMP JUMPDEST JUMPDEST DUP3 DUP3 DIV SWAP1 POP SWAP3 SWAP2 POP POP JUMP JUMPDEST PUSH32 0x7472616E73616374696F6E20697320617070726F766564200000000000000000 PUSH1 0x0 DUP3 ADD MSTORE POP JUMP JUMPDEST PUSH1 0x0 PUSH2 0x18C5 PUSH1 0x18 DUP4 PUSH2 0x12BD JUMP JUMPDEST SWAP2 POP PUSH2 0x18D0 DUP3 PUSH2 0x188F JUMP JUMPDEST PUSH1 0x20 DUP3 ADD SWAP1 POP SWAP2 SWAP1 POP JUMP JUMPDEST PUSH1 0x0 PUSH1 0x20 DUP3 ADD SWAP1 POP DUP2 DUP2 SUB PUSH1 0x0 DUP4 ADD MSTORE PUSH2 0x18F4 DUP2 PUSH2 0x18B8 JUMP JUMPDEST SWAP1 POP SWAP2 SWAP1 POP JUMP JUMPDEST PUSH32 0x5468697320706172747920646F6573206E6F7420617070726F76650000000000 PUSH1 0x0 DUP3 ADD MSTORE POP JUMP JUMPDEST PUSH1 0x0 PUSH2 0x1931 PUSH1 0x1B DUP4 PUSH2 0x12BD JUMP JUMPDEST SWAP2 POP PUSH2 0x193C DUP3 PUSH2 0x18FB JUMP JUMPDEST PUSH1 0x20 DUP3 ADD SWAP1 POP SWAP2 SWAP1 POP JUMP JUMPDEST PUSH1 0x0 PUSH1 0x20 DUP3 ADD SWAP1 POP DUP2 DUP2 SUB PUSH1 0x0 DUP4 ADD MSTORE PUSH2 0x1960 DUP2 PUSH2 0x1924 JUMP JUMPDEST SWAP1 POP SWAP2 SWAP1 POP JUMP JUMPDEST PUSH1 0x0 DUP2 SWAP1 POP SWAP3 SWAP2 POP POP JUMP JUMPDEST POP JUMP JUMPDEST PUSH1 0x0 PUSH2 0x1982 PUSH1 0x0 DUP4 PUSH2 0x1967 JUMP JUMPDEST SWAP2 POP PUSH2 0x198D DUP3 PUSH2 0x1972 JUMP JUMPDEST PUSH1 0x0 DUP3 ADD SWAP1 POP SWAP2 SWAP1 POP JUMP JUMPDEST PUSH1 0x0 PUSH2 0x19A3 DUP3 PUSH2 0x1975 JUMP JUMPDEST SWAP2 POP DUP2 SWAP1 POP SWAP2 SWAP1 POP JUMP JUMPDEST PUSH32 0x4641494C454420455845435554494F4E00000000000000000000000000000000 PUSH1 0x0 DUP3 ADD MSTORE POP JUMP JUMPDEST PUSH1 0x0 PUSH2 0x19E3 PUSH1 0x10 DUP4 PUSH2 0x12BD JUMP JUMPDEST SWAP2 POP PUSH2 0x19EE DUP3 PUSH2 0x19AD JUMP JUMPDEST PUSH1 0x20 DUP3 ADD SWAP1 POP SWAP2 SWAP1 POP JUMP JUMPDEST PUSH1 0x0 PUSH1 0x20 DUP3 ADD SWAP1 POP DUP2 DUP2 SUB PUSH1 0x0 DUP4 ADD MSTORE PUSH2 0x1A12 DUP2 PUSH2 0x19D6 JUMP JUMPDEST SWAP1 POP SWAP2 SWAP1 POP JUMP JUMPDEST PUSH32 0x455845435554494F4E20434F4D504C4554450000000000000000000000000000 PUSH1 0x0 DUP3 ADD MSTORE POP JUMP JUMPDEST PUSH1 0x0 PUSH2 0x1A4F PUSH1 0x12 DUP4 PUSH2 0x12BD JUMP JUMPDEST SWAP2 POP PUSH2 0x1A5A DUP3 PUSH2 0x1A19 JUMP JUMPDEST PUSH1 0x20 DUP3 ADD SWAP1 POP SWAP2 SWAP1 POP JUMP JUMPDEST PUSH1 0x0 PUSH1 0x20 DUP3 ADD SWAP1 POP DUP2 DUP2 SUB PUSH1 0x0 DUP4 ADD MSTORE PUSH2 0x1A7E DUP2 PUSH2 0x1A42 JUMP JUMPDEST SWAP1 POP SWAP2 SWAP1 POP JUMP INVALID LOG2 PUSH5 0x6970667358 0x22 SLT KECCAK256 0xD0 OR 0x23 0xD6 EXTCODEHASH PUSH3 0x4EAFEA 0xDB 0xA9 0xC8 0x4C 0xD8 0xC0 SWAP15 0xB3 PUSH24 0x9930B391B8EA418BE1DF4CBD70AE64736F6C634300081200 CALLER "
				},
				"gasEstimates": {
					"creation": {
						"codeDepositCost": "1368600",
						"executionCost": "infinite",
						"totalCost": "infinite"
					},
					"external": {
						"approvalCount()": "2518",
						"approvalOfSubmittedTxn()": "infinite",
						"getContractBalance()": "339",
						"isOwner(address)": "2890",
						"memberApprovalStatus(address,uint256)": "3199",
						"pendingTransaction()": "2580",
						"rejectedTransaction()": "42119",
						"statusOfTxn()": "2645",
						"sumbitTransaction(address,uint256)": "infinite",
						"walletGroupOwners(uint256)": "4978"
					},
					"internal": {
						"executeApprovedTxn()": "infinite"
					}
				},
				"methodIdentifiers": {
					"approvalCount()": "6884d0a6",
					"approvalOfSubmittedTxn()": "40b66b38",
					"getContractBalance()": "6f9fb98a",
					"isOwner(address)": "2f54bf6e",
					"memberApprovalStatus(address,uint256)": "2985d569",
					"pendingTransaction()": "cfe68270",
					"rejectedTransaction()": "cd229002",
					"statusOfTxn()": "f49d884d",
					"sumbitTransaction(address,uint256)": "1079eca2",
					"walletGroupOwners(uint256)": "cbb0f3bb"
				}
			},
			"storageLayout": {
				"storage": [
					{
						"astId": 8,
						"contract": "MultiSigWallet.sol:MultiSigWallet",
						"label": "statusOfTxn",
						"offset": 0,
						"slot": "0",
						"type": "t_enum(TransactionStatus)5"
					},
					{
						"astId": 29,
						"contract": "MultiSigWallet.sol:MultiSigWallet",
						"label": "walletGroupOwners",
						"offset": 0,
						"slot": "1",
						"type": "t_array(t_address_payable)dyn_storage"
					},
					{
						"astId": 33,
						"contract": "MultiSigWallet.sol:MultiSigWallet",
						"label": "isOwner",
						"offset": 0,
						"slot": "2",
						"type": "t_mapping(t_address,t_bool)"
					},
					{
						"astId": 40,
						"contract": "MultiSigWallet.sol:MultiSigWallet",
						"label": "memberApprovalStatus",
						"offset": 0,
						"slot": "3",
						"type": "t_mapping(t_address,t_mapping(t_uint256,t_enum(TransactionStatus)5))"
					},
					{
						"astId": 42,
						"contract": "MultiSigWallet.sol:MultiSigWallet",
						"label": "pendingTransaction",
						"offset": 0,
						"slot": "4",
						"type": "t_address_payable"
					},
					{
						"astId": 44,
						"contract": "MultiSigWallet.sol:MultiSigWallet",
						"label": "approvalCount",
						"offset": 0,
						"slot": "5",
						"type": "t_uint256"
					}
				],
				"types": {
					"t_address": {
						"encoding": "inplace",
						"label": "address",
						"numberOfBytes": "20"
					},
					"t_address_payable": {
						"encoding": "inplace",
						"label": "address payable",
						"numberOfBytes": "20"
					},
					"t_array(t_address_payable)dyn_storage": {
						"base": "t_address_payable",
						"encoding": "dynamic_array",
						"label": "address payable[]",
						"numberOfBytes": "32"
					},
					"t_bool": {
						"encoding": "inplace",
						"label": "bool",
						"numberOfBytes": "1"
					},
					"t_enum(TransactionStatus)5": {
						"encoding": "inplace",
						"label": "enum MultiSigWallet.TransactionStatus",
						"numberOfBytes": "1"
					},
					"t_mapping(t_address,t_bool)": {
						"encoding": "mapping",
						"key": "t_address",
						"label": "mapping(address => bool)",
						"numberOfBytes": "32",
						"value": "t_bool"
					},
					"t_mapping(t_address,t_mapping(t_uint256,t_enum(TransactionStatus)5))": {
						"encoding": "mapping",
						"key": "t_address",
						"label": "mapping(address => mapping(uint256 => enum MultiSigWallet.TransactionStatus))",
						"numberOfBytes": "32",
						"value": "t_mapping(t_uint256,t_enum(TransactionStatus)5)"
					},
					"t_mapping(t_uint256,t_enum(TransactionStatus)5)": {
						"encoding": "mapping",
						"key": "t_uint256",
						"label": "mapping(uint256 => enum MultiSigWallet.TransactionStatus)",
						"numberOfBytes": "32",
						"value": "t_enum(TransactionStatus)5"
					},
					"t_uint256": {
						"encoding": "inplace",
						"label": "uint256",
						"numberOfBytes": "32"
					}
				}
			},
			"userdoc": {
				"kind": "user",
				"methods": {},
				"version": 1
			}
		}
	}
}