{
	"EtherWallet.sol": {
		"SimpleCustomWallet": {
			"abi": [
				{
					"inputs": [
						{
							"internalType": "address payable",
							"name": "_owner",
							"type": "address"
						}
					],
					"stateMutability": "nonpayable",
					"type": "constructor"
				},
				{
					"anonymous": false,
					"inputs": [
						{
							"indexed": true,
							"internalType": "address",
							"name": "sender",
							"type": "address"
						},
						{
							"indexed": false,
							"internalType": "uint256",
							"name": "amount",
							"type": "uint256"
						}
					],
					"name": "moneyDeposited",
					"type": "event"
				},
				{
					"anonymous": false,
					"inputs": [
						{
							"indexed": true,
							"internalType": "address",
							"name": "sender",
							"type": "address"
						},
						{
							"indexed": false,
							"internalType": "uint256",
							"name": "amount",
							"type": "uint256"
						}
					],
					"name": "moneyWithdrawn",
					"type": "event"
				},
				{
					"inputs": [],
					"name": "sendMoneyToContract",
					"outputs": [],
					"stateMutability": "payable",
					"type": "function"
				},
				{
					"inputs": [],
					"name": "withdrawFromContract",
					"outputs": [],
					"stateMutability": "payable",
					"type": "function"
				},
				{
					"stateMutability": "payable",
					"type": "receive"
				}
			],
			"devdoc": {
				"kind": "dev",
				"methods": {},
				"version": 1
			},
			"evm": {
				"assembly": "    /* \"EtherWallet.sol\":61:1229  contract SimpleCustomWallet {... */\n  mstore(0x40, 0x80)\n    /* \"EtherWallet.sol\":357:425  constructor(address payable _owner){... */\n  callvalue\n  dup1\n  iszero\n  tag_1\n  jumpi\n  0x00\n  dup1\n  revert\ntag_1:\n  pop\n  mload(0x40)\n  sub(codesize, bytecodeSize)\n  dup1\n  bytecodeSize\n  dup4\n  codecopy\n  dup2\n  dup2\n  add\n  0x40\n  mstore\n  dup2\n  add\n  swap1\n  tag_2\n  swap2\n  swap1\n  tag_3\n  jump\t// in\ntag_2:\n    /* \"EtherWallet.sol\":411:417  _owner */\n  dup1\n    /* \"EtherWallet.sol\":403:408  owner */\n  0x00\n  dup1\n    /* \"EtherWallet.sol\":403:417  owner = _owner */\n  0x0100\n  exp\n  dup2\n  sload\n  dup2\n  0xffffffffffffffffffffffffffffffffffffffff\n  mul\n  not\n  and\n  swap1\n  dup4\n  0xffffffffffffffffffffffffffffffffffffffff\n  and\n  mul\n  or\n  swap1\n  sstore\n  pop\n    /* \"EtherWallet.sol\":357:425  constructor(address payable _owner){... */\n  pop\n    /* \"EtherWallet.sol\":61:1229  contract SimpleCustomWallet {... */\n  jump(tag_6)\n    /* \"#utility.yul\":88:205   */\ntag_8:\n    /* \"#utility.yul\":197:198   */\n  0x00\n    /* \"#utility.yul\":194:195   */\n  dup1\n    /* \"#utility.yul\":187:199   */\n  revert\n    /* \"#utility.yul\":334:460   */\ntag_10:\n    /* \"#utility.yul\":371:378   */\n  0x00\n    /* \"#utility.yul\":411:453   */\n  0xffffffffffffffffffffffffffffffffffffffff\n    /* \"#utility.yul\":404:409   */\n  dup3\n    /* \"#utility.yul\":400:454   */\n  and\n    /* \"#utility.yul\":389:454   */\n  swap1\n  pop\n    /* \"#utility.yul\":334:460   */\n  swap2\n  swap1\n  pop\n  jump\t// out\n    /* \"#utility.yul\":466:570   */\ntag_11:\n    /* \"#utility.yul\":511:518   */\n  0x00\n    /* \"#utility.yul\":540:564   */\n  tag_20\n    /* \"#utility.yul\":558:563   */\n  dup3\n    /* \"#utility.yul\":540:564   */\n  tag_10\n  jump\t// in\ntag_20:\n    /* \"#utility.yul\":529:564   */\n  swap1\n  pop\n    /* \"#utility.yul\":466:570   */\n  swap2\n  swap1\n  pop\n  jump\t// out\n    /* \"#utility.yul\":576:714   */\ntag_12:\n    /* \"#utility.yul\":657:689   */\n  tag_22\n    /* \"#utility.yul\":683:688   */\n  dup2\n    /* \"#utility.yul\":657:689   */\n  tag_11\n  jump\t// in\ntag_22:\n    /* \"#utility.yul\":650:655   */\n  dup2\n    /* \"#utility.yul\":647:690   */\n  eq\n    /* \"#utility.yul\":637:708   */\n  tag_23\n  jumpi\n    /* \"#utility.yul\":704:705   */\n  0x00\n    /* \"#utility.yul\":701:702   */\n  dup1\n    /* \"#utility.yul\":694:706   */\n  revert\n    /* \"#utility.yul\":637:708   */\ntag_23:\n    /* \"#utility.yul\":576:714   */\n  pop\n  jump\t// out\n    /* \"#utility.yul\":720:879   */\ntag_13:\n    /* \"#utility.yul\":785:790   */\n  0x00\n    /* \"#utility.yul\":816:822   */\n  dup2\n    /* \"#utility.yul\":810:823   */\n  mload\n    /* \"#utility.yul\":801:823   */\n  swap1\n  pop\n    /* \"#utility.yul\":832:873   */\n  tag_25\n    /* \"#utility.yul\":867:872   */\n  dup2\n    /* \"#utility.yul\":832:873   */\n  tag_12\n  jump\t// in\ntag_25:\n    /* \"#utility.yul\":720:879   */\n  swap3\n  swap2\n  pop\n  pop\n  jump\t// out\n    /* \"#utility.yul\":885:1252   */\ntag_3:\n    /* \"#utility.yul\":963:969   */\n  0x00\n    /* \"#utility.yul\":1012:1014   */\n  0x20\n    /* \"#utility.yul\":1000:1009   */\n  dup3\n    /* \"#utility.yul\":991:998   */\n  dup5\n    /* \"#utility.yul\":987:1010   */\n  sub\n    /* \"#utility.yul\":983:1015   */\n  slt\n    /* \"#utility.yul\":980:1099   */\n  iszero\n  tag_27\n  jumpi\n    /* \"#utility.yul\":1018:1097   */\n  tag_28\n  tag_8\n  jump\t// in\ntag_28:\n    /* \"#utility.yul\":980:1099   */\ntag_27:\n    /* \"#utility.yul\":1138:1139   */\n  0x00\n    /* \"#utility.yul\":1163:1235   */\n  tag_29\n    /* \"#utility.yul\":1227:1234   */\n  dup5\n    /* \"#utility.yul\":1218:1224   */\n  dup3\n    /* \"#utility.yul\":1207:1216   */\n  dup6\n    /* \"#utility.yul\":1203:1225   */\n  add\n    /* \"#utility.yul\":1163:1235   */\n  tag_13\n  jump\t// in\ntag_29:\n    /* \"#utility.yul\":1153:1235   */\n  swap2\n  pop\n    /* \"#utility.yul\":1109:1245   */\n  pop\n    /* \"#utility.yul\":885:1252   */\n  swap3\n  swap2\n  pop\n  pop\n  jump\t// out\n    /* \"EtherWallet.sol\":61:1229  contract SimpleCustomWallet {... */\ntag_6:\n  dataSize(sub_0)\n  dup1\n  dataOffset(sub_0)\n  0x00\n  codecopy\n  0x00\n  return\nstop\n\nsub_0: assembly {\n        /* \"EtherWallet.sol\":61:1229  contract SimpleCustomWallet {... */\n      mstore(0x40, 0x80)\n      jumpi(tag_1, lt(calldatasize, 0x04))\n      shr(0xe0, calldataload(0x00))\n      dup1\n      0x5f589e42\n      eq\n      tag_3\n      jumpi\n      dup1\n      0x8aecbc51\n      eq\n      tag_4\n      jumpi\n      jump(tag_2)\n    tag_1:\n      jumpi(tag_2, calldatasize)\n        /* \"EtherWallet.sol\":551:572  sendMoneyToContract() */\n      tag_7\n        /* \"EtherWallet.sol\":551:570  sendMoneyToContract */\n      tag_8\n        /* \"EtherWallet.sol\":551:572  sendMoneyToContract() */\n      jump\t// in\n    tag_7:\n        /* \"EtherWallet.sol\":61:1229  contract SimpleCustomWallet {... */\n      stop\n    tag_2:\n      0x00\n      dup1\n      revert\n        /* \"EtherWallet.sol\":924:1222  function withdrawFromContract ()  payable onlyOwner public  {... */\n    tag_3:\n      tag_9\n      tag_10\n      jump\t// in\n    tag_9:\n      stop\n        /* \"EtherWallet.sol\":590:916  function sendMoneyToContract () payable public {... */\n    tag_4:\n      tag_11\n      tag_8\n      jump\t// in\n    tag_11:\n      stop\n    tag_8:\n        /* \"EtherWallet.sol\":678:682  this */\n      address\n        /* \"EtherWallet.sol\":656:683  msg.sender != address(this) */\n      0xffffffffffffffffffffffffffffffffffffffff\n      and\n        /* \"EtherWallet.sol\":656:666  msg.sender */\n      caller\n        /* \"EtherWallet.sol\":656:683  msg.sender != address(this) */\n      0xffffffffffffffffffffffffffffffffffffffff\n      and\n      sub\n        /* \"EtherWallet.sol\":648:723  require(msg.sender != address(this), \"Sender cannot be the smart contract\") */\n      tag_13\n      jumpi\n      mload(0x40)\n      0x08c379a000000000000000000000000000000000000000000000000000000000\n      dup2\n      mstore\n      0x04\n      add\n      tag_14\n      swap1\n      tag_15\n      jump\t// in\n    tag_14:\n      mload(0x40)\n      dup1\n      swap2\n      sub\n      swap1\n      revert\n    tag_13:\n        /* \"EtherWallet.sol\":295:302  3 ether */\n      0x29a2241af62c0000\n        /* \"EtherWallet.sol\":742:751  msg.value */\n      callvalue\n        /* \"EtherWallet.sol\":742:767  msg.value >= amountToSend */\n      lt\n      iszero\n        /* \"EtherWallet.sol\":734:799  require(msg.value >= amountToSend, \"Amount to send is 0.1 ether\") */\n      tag_16\n      jumpi\n      mload(0x40)\n      0x08c379a000000000000000000000000000000000000000000000000000000000\n      dup2\n      mstore\n      0x04\n      add\n      tag_17\n      swap1\n      tag_18\n      jump\t// in\n    tag_17:\n      mload(0x40)\n      dup1\n      swap2\n      sub\n      swap1\n      revert\n    tag_16:\n        /* \"EtherWallet.sol\":839:843  true */\n      0x01\n        /* \"EtherWallet.sol\":810:824  hasAddressPaid */\n      dup1\n        /* \"EtherWallet.sol\":810:836  hasAddressPaid[msg.sender] */\n      0x00\n        /* \"EtherWallet.sol\":825:835  msg.sender */\n      caller\n        /* \"EtherWallet.sol\":810:836  hasAddressPaid[msg.sender] */\n      0xffffffffffffffffffffffffffffffffffffffff\n      and\n      0xffffffffffffffffffffffffffffffffffffffff\n      and\n      dup2\n      mstore\n      0x20\n      add\n      swap1\n      dup2\n      mstore\n      0x20\n      add\n      0x00\n      keccak256\n      0x00\n        /* \"EtherWallet.sol\":810:843  hasAddressPaid[msg.sender] = true */\n      0x0100\n      exp\n      dup2\n      sload\n      dup2\n      0xff\n      mul\n      not\n      and\n      swap1\n      dup4\n      iszero\n      iszero\n      mul\n      or\n      swap1\n      sstore\n      pop\n        /* \"EtherWallet.sol\":880:890  msg.sender */\n      caller\n        /* \"EtherWallet.sol\":865:902  moneyDeposited(msg.sender, msg.value) */\n      0xffffffffffffffffffffffffffffffffffffffff\n      and\n      0x6ce798768a0eadfedda07e18a4866e01bda8fd2a6fc1552680f72f49e2b57c13\n        /* \"EtherWallet.sol\":892:901  msg.value */\n      callvalue\n        /* \"EtherWallet.sol\":865:902  moneyDeposited(msg.sender, msg.value) */\n      mload(0x40)\n      tag_19\n      swap2\n      swap1\n      tag_20\n      jump\t// in\n    tag_19:\n      mload(0x40)\n      dup1\n      swap2\n      sub\n      swap1\n      log2\n        /* \"EtherWallet.sol\":590:916  function sendMoneyToContract () payable public {... */\n      jump\t// out\n        /* \"EtherWallet.sol\":924:1222  function withdrawFromContract ()  payable onlyOwner public  {... */\n    tag_10:\n        /* \"EtherWallet.sol\":482:487  owner */\n      0x00\n      dup1\n      sload\n      swap1\n      0x0100\n      exp\n      swap1\n      div\n      0xffffffffffffffffffffffffffffffffffffffff\n      and\n        /* \"EtherWallet.sol\":468:487  msg.sender == owner */\n      0xffffffffffffffffffffffffffffffffffffffff\n      and\n        /* \"EtherWallet.sol\":468:478  msg.sender */\n      caller\n        /* \"EtherWallet.sol\":468:487  msg.sender == owner */\n      0xffffffffffffffffffffffffffffffffffffffff\n      and\n      eq\n        /* \"EtherWallet.sol\":460:488  require(msg.sender == owner) */\n      tag_22\n      jumpi\n      0x00\n      dup1\n      revert\n    tag_22:\n        /* \"EtherWallet.sol\":995:1017  uint balanceOfContract */\n      0x00\n        /* \"EtherWallet.sol\":1020:1041  address(this).balance */\n      selfbalance\n        /* \"EtherWallet.sol\":995:1041  uint balanceOfContract = address(this).balance */\n      swap1\n      pop\n        /* \"EtherWallet.sol\":1053:1065  bool success */\n      0x00\n        /* \"EtherWallet.sol\":1069:1079  msg.sender */\n      caller\n        /* \"EtherWallet.sol\":1069:1084  msg.sender.call */\n      0xffffffffffffffffffffffffffffffffffffffff\n      and\n        /* \"EtherWallet.sol\":1092:1109  balanceOfContract */\n      dup3\n        /* \"EtherWallet.sol\":1069:1114  msg.sender.call{value: balanceOfContract}(\"\") */\n      mload(0x40)\n      tag_24\n      swap1\n      tag_25\n      jump\t// in\n    tag_24:\n      0x00\n      mload(0x40)\n      dup1\n      dup4\n      sub\n      dup2\n      dup6\n      dup8\n      gas\n      call\n      swap3\n      pop\n      pop\n      pop\n      returndatasize\n      dup1\n      0x00\n      dup2\n      eq\n      tag_28\n      jumpi\n      mload(0x40)\n      swap2\n      pop\n      and(add(returndatasize, 0x3f), not(0x1f))\n      dup3\n      add\n      0x40\n      mstore\n      returndatasize\n      dup3\n      mstore\n      returndatasize\n      0x00\n      0x20\n      dup5\n      add\n      returndatacopy\n      jump(tag_27)\n    tag_28:\n      0x60\n      swap2\n      pop\n    tag_27:\n      pop\n        /* \"EtherWallet.sol\":1052:1114  (bool success,)= msg.sender.call{value: balanceOfContract}(\"\") */\n      pop\n      swap1\n      pop\n        /* \"EtherWallet.sol\":1133:1140  success */\n      dup1\n        /* \"EtherWallet.sol\":1125:1155  require(success, \"Failed TXN\") */\n      tag_29\n      jumpi\n      mload(0x40)\n      0x08c379a000000000000000000000000000000000000000000000000000000000\n      dup2\n      mstore\n      0x04\n      add\n      tag_30\n      swap1\n      tag_31\n      jump\t// in\n    tag_30:\n      mload(0x40)\n      dup1\n      swap2\n      sub\n      swap1\n      revert\n    tag_29:\n        /* \"EtherWallet.sol\":1188:1198  msg.sender */\n      caller\n        /* \"EtherWallet.sol\":1173:1210  moneyWithdrawn(msg.sender, msg.value) */\n      0xffffffffffffffffffffffffffffffffffffffff\n      and\n      0x630898e2c2f457e1126e20e444ed2807734fc741f763c11e28d5777781c6928a\n        /* \"EtherWallet.sol\":1200:1209  msg.value */\n      callvalue\n        /* \"EtherWallet.sol\":1173:1210  moneyWithdrawn(msg.sender, msg.value) */\n      mload(0x40)\n      tag_32\n      swap2\n      swap1\n      tag_20\n      jump\t// in\n    tag_32:\n      mload(0x40)\n      dup1\n      swap2\n      sub\n      swap1\n      log2\n        /* \"EtherWallet.sol\":984:1222  {... */\n      pop\n      pop\n        /* \"EtherWallet.sol\":924:1222  function withdrawFromContract ()  payable onlyOwner public  {... */\n      jump\t// out\n        /* \"#utility.yul\":7:176   */\n    tag_33:\n        /* \"#utility.yul\":91:102   */\n      0x00\n        /* \"#utility.yul\":125:131   */\n      dup3\n        /* \"#utility.yul\":120:123   */\n      dup3\n        /* \"#utility.yul\":113:132   */\n      mstore\n        /* \"#utility.yul\":165:169   */\n      0x20\n        /* \"#utility.yul\":160:163   */\n      dup3\n        /* \"#utility.yul\":156:170   */\n      add\n        /* \"#utility.yul\":141:170   */\n      swap1\n      pop\n        /* \"#utility.yul\":7:176   */\n      swap3\n      swap2\n      pop\n      pop\n      jump\t// out\n        /* \"#utility.yul\":182:404   */\n    tag_34:\n        /* \"#utility.yul\":322:356   */\n      0x53656e6465722063616e6e6f742062652074686520736d61727420636f6e7472\n        /* \"#utility.yul\":318:319   */\n      0x00\n        /* \"#utility.yul\":310:316   */\n      dup3\n        /* \"#utility.yul\":306:320   */\n      add\n        /* \"#utility.yul\":299:357   */\n      mstore\n        /* \"#utility.yul\":391:396   */\n      0x6163740000000000000000000000000000000000000000000000000000000000\n        /* \"#utility.yul\":386:388   */\n      0x20\n        /* \"#utility.yul\":378:384   */\n      dup3\n        /* \"#utility.yul\":374:389   */\n      add\n        /* \"#utility.yul\":367:397   */\n      mstore\n        /* \"#utility.yul\":182:404   */\n      pop\n      jump\t// out\n        /* \"#utility.yul\":410:776   */\n    tag_35:\n        /* \"#utility.yul\":552:555   */\n      0x00\n        /* \"#utility.yul\":573:640   */\n      tag_49\n        /* \"#utility.yul\":637:639   */\n      0x23\n        /* \"#utility.yul\":632:635   */\n      dup4\n        /* \"#utility.yul\":573:640   */\n      tag_33\n      jump\t// in\n    tag_49:\n        /* \"#utility.yul\":566:640   */\n      swap2\n      pop\n        /* \"#utility.yul\":649:742   */\n      tag_50\n        /* \"#utility.yul\":738:741   */\n      dup3\n        /* \"#utility.yul\":649:742   */\n      tag_34\n      jump\t// in\n    tag_50:\n        /* \"#utility.yul\":767:769   */\n      0x40\n        /* \"#utility.yul\":762:765   */\n      dup3\n        /* \"#utility.yul\":758:770   */\n      add\n        /* \"#utility.yul\":751:770   */\n      swap1\n      pop\n        /* \"#utility.yul\":410:776   */\n      swap2\n      swap1\n      pop\n      jump\t// out\n        /* \"#utility.yul\":782:1201   */\n    tag_15:\n        /* \"#utility.yul\":948:952   */\n      0x00\n        /* \"#utility.yul\":986:988   */\n      0x20\n        /* \"#utility.yul\":975:984   */\n      dup3\n        /* \"#utility.yul\":971:989   */\n      add\n        /* \"#utility.yul\":963:989   */\n      swap1\n      pop\n        /* \"#utility.yul\":1035:1044   */\n      dup2\n        /* \"#utility.yul\":1029:1033   */\n      dup2\n        /* \"#utility.yul\":1025:1045   */\n      sub\n        /* \"#utility.yul\":1021:1022   */\n      0x00\n        /* \"#utility.yul\":1010:1019   */\n      dup4\n        /* \"#utility.yul\":1006:1023   */\n      add\n        /* \"#utility.yul\":999:1046   */\n      mstore\n        /* \"#utility.yul\":1063:1194   */\n      tag_52\n        /* \"#utility.yul\":1189:1193   */\n      dup2\n        /* \"#utility.yul\":1063:1194   */\n      tag_35\n      jump\t// in\n    tag_52:\n        /* \"#utility.yul\":1055:1194   */\n      swap1\n      pop\n        /* \"#utility.yul\":782:1201   */\n      swap2\n      swap1\n      pop\n      jump\t// out\n        /* \"#utility.yul\":1207:1384   */\n    tag_36:\n        /* \"#utility.yul\":1347:1376   */\n      0x416d6f756e7420746f2073656e6420697320302e312065746865720000000000\n        /* \"#utility.yul\":1343:1344   */\n      0x00\n        /* \"#utility.yul\":1335:1341   */\n      dup3\n        /* \"#utility.yul\":1331:1345   */\n      add\n        /* \"#utility.yul\":1324:1377   */\n      mstore\n        /* \"#utility.yul\":1207:1384   */\n      pop\n      jump\t// out\n        /* \"#utility.yul\":1390:1756   */\n    tag_37:\n        /* \"#utility.yul\":1532:1535   */\n      0x00\n        /* \"#utility.yul\":1553:1620   */\n      tag_55\n        /* \"#utility.yul\":1617:1619   */\n      0x1b\n        /* \"#utility.yul\":1612:1615   */\n      dup4\n        /* \"#utility.yul\":1553:1620   */\n      tag_33\n      jump\t// in\n    tag_55:\n        /* \"#utility.yul\":1546:1620   */\n      swap2\n      pop\n        /* \"#utility.yul\":1629:1722   */\n      tag_56\n        /* \"#utility.yul\":1718:1721   */\n      dup3\n        /* \"#utility.yul\":1629:1722   */\n      tag_36\n      jump\t// in\n    tag_56:\n        /* \"#utility.yul\":1747:1749   */\n      0x20\n        /* \"#utility.yul\":1742:1745   */\n      dup3\n        /* \"#utility.yul\":1738:1750   */\n      add\n        /* \"#utility.yul\":1731:1750   */\n      swap1\n      pop\n        /* \"#utility.yul\":1390:1756   */\n      swap2\n      swap1\n      pop\n      jump\t// out\n        /* \"#utility.yul\":1762:2181   */\n    tag_18:\n        /* \"#utility.yul\":1928:1932   */\n      0x00\n        /* \"#utility.yul\":1966:1968   */\n      0x20\n        /* \"#utility.yul\":1955:1964   */\n      dup3\n        /* \"#utility.yul\":1951:1969   */\n      add\n        /* \"#utility.yul\":1943:1969   */\n      swap1\n      pop\n        /* \"#utility.yul\":2015:2024   */\n      dup2\n        /* \"#utility.yul\":2009:2013   */\n      dup2\n        /* \"#utility.yul\":2005:2025   */\n      sub\n        /* \"#utility.yul\":2001:2002   */\n      0x00\n        /* \"#utility.yul\":1990:1999   */\n      dup4\n        /* \"#utility.yul\":1986:2003   */\n      add\n        /* \"#utility.yul\":1979:2026   */\n      mstore\n        /* \"#utility.yul\":2043:2174   */\n      tag_58\n        /* \"#utility.yul\":2169:2173   */\n      dup2\n        /* \"#utility.yul\":2043:2174   */\n      tag_37\n      jump\t// in\n    tag_58:\n        /* \"#utility.yul\":2035:2174   */\n      swap1\n      pop\n        /* \"#utility.yul\":1762:2181   */\n      swap2\n      swap1\n      pop\n      jump\t// out\n        /* \"#utility.yul\":2187:2264   */\n    tag_38:\n        /* \"#utility.yul\":2224:2231   */\n      0x00\n        /* \"#utility.yul\":2253:2258   */\n      dup2\n        /* \"#utility.yul\":2242:2258   */\n      swap1\n      pop\n        /* \"#utility.yul\":2187:2264   */\n      swap2\n      swap1\n      pop\n      jump\t// out\n        /* \"#utility.yul\":2270:2388   */\n    tag_39:\n        /* \"#utility.yul\":2357:2381   */\n      tag_61\n        /* \"#utility.yul\":2375:2380   */\n      dup2\n        /* \"#utility.yul\":2357:2381   */\n      tag_38\n      jump\t// in\n    tag_61:\n        /* \"#utility.yul\":2352:2355   */\n      dup3\n        /* \"#utility.yul\":2345:2382   */\n      mstore\n        /* \"#utility.yul\":2270:2388   */\n      pop\n      pop\n      jump\t// out\n        /* \"#utility.yul\":2394:2616   */\n    tag_20:\n        /* \"#utility.yul\":2487:2491   */\n      0x00\n        /* \"#utility.yul\":2525:2527   */\n      0x20\n        /* \"#utility.yul\":2514:2523   */\n      dup3\n        /* \"#utility.yul\":2510:2528   */\n      add\n        /* \"#utility.yul\":2502:2528   */\n      swap1\n      pop\n        /* \"#utility.yul\":2538:2609   */\n      tag_63\n        /* \"#utility.yul\":2606:2607   */\n      0x00\n        /* \"#utility.yul\":2595:2604   */\n      dup4\n        /* \"#utility.yul\":2591:2608   */\n      add\n        /* \"#utility.yul\":2582:2588   */\n      dup5\n        /* \"#utility.yul\":2538:2609   */\n      tag_39\n      jump\t// in\n    tag_63:\n        /* \"#utility.yul\":2394:2616   */\n      swap3\n      swap2\n      pop\n      pop\n      jump\t// out\n        /* \"#utility.yul\":2622:2769   */\n    tag_40:\n        /* \"#utility.yul\":2723:2734   */\n      0x00\n        /* \"#utility.yul\":2760:2763   */\n      dup2\n        /* \"#utility.yul\":2745:2763   */\n      swap1\n      pop\n        /* \"#utility.yul\":2622:2769   */\n      swap3\n      swap2\n      pop\n      pop\n      jump\t// out\n        /* \"#utility.yul\":2775:2889   */\n    tag_41:\n      pop\n      jump\t// out\n        /* \"#utility.yul\":2895:3293   */\n    tag_42:\n        /* \"#utility.yul\":3054:3057   */\n      0x00\n        /* \"#utility.yul\":3075:3158   */\n      tag_67\n        /* \"#utility.yul\":3156:3157   */\n      0x00\n        /* \"#utility.yul\":3151:3154   */\n      dup4\n        /* \"#utility.yul\":3075:3158   */\n      tag_40\n      jump\t// in\n    tag_67:\n        /* \"#utility.yul\":3068:3158   */\n      swap2\n      pop\n        /* \"#utility.yul\":3167:3260   */\n      tag_68\n        /* \"#utility.yul\":3256:3259   */\n      dup3\n        /* \"#utility.yul\":3167:3260   */\n      tag_41\n      jump\t// in\n    tag_68:\n        /* \"#utility.yul\":3285:3286   */\n      0x00\n        /* \"#utility.yul\":3280:3283   */\n      dup3\n        /* \"#utility.yul\":3276:3287   */\n      add\n        /* \"#utility.yul\":3269:3287   */\n      swap1\n      pop\n        /* \"#utility.yul\":2895:3293   */\n      swap2\n      swap1\n      pop\n      jump\t// out\n        /* \"#utility.yul\":3299:3678   */\n    tag_25:\n        /* \"#utility.yul\":3483:3486   */\n      0x00\n        /* \"#utility.yul\":3505:3652   */\n      tag_70\n        /* \"#utility.yul\":3648:3651   */\n      dup3\n        /* \"#utility.yul\":3505:3652   */\n      tag_42\n      jump\t// in\n    tag_70:\n        /* \"#utility.yul\":3498:3652   */\n      swap2\n      pop\n        /* \"#utility.yul\":3669:3672   */\n      dup2\n        /* \"#utility.yul\":3662:3672   */\n      swap1\n      pop\n        /* \"#utility.yul\":3299:3678   */\n      swap2\n      swap1\n      pop\n      jump\t// out\n        /* \"#utility.yul\":3684:3844   */\n    tag_43:\n        /* \"#utility.yul\":3824:3836   */\n      0x4661696c65642054584e00000000000000000000000000000000000000000000\n        /* \"#utility.yul\":3820:3821   */\n      0x00\n        /* \"#utility.yul\":3812:3818   */\n      dup3\n        /* \"#utility.yul\":3808:3822   */\n      add\n        /* \"#utility.yul\":3801:3837   */\n      mstore\n        /* \"#utility.yul\":3684:3844   */\n      pop\n      jump\t// out\n        /* \"#utility.yul\":3850:4216   */\n    tag_44:\n        /* \"#utility.yul\":3992:3995   */\n      0x00\n        /* \"#utility.yul\":4013:4080   */\n      tag_73\n        /* \"#utility.yul\":4077:4079   */\n      0x0a\n        /* \"#utility.yul\":4072:4075   */\n      dup4\n        /* \"#utility.yul\":4013:4080   */\n      tag_33\n      jump\t// in\n    tag_73:\n        /* \"#utility.yul\":4006:4080   */\n      swap2\n      pop\n        /* \"#utility.yul\":4089:4182   */\n      tag_74\n        /* \"#utility.yul\":4178:4181   */\n      dup3\n        /* \"#utility.yul\":4089:4182   */\n      tag_43\n      jump\t// in\n    tag_74:\n        /* \"#utility.yul\":4207:4209   */\n      0x20\n        /* \"#utility.yul\":4202:4205   */\n      dup3\n        /* \"#utility.yul\":4198:4210   */\n      add\n        /* \"#utility.yul\":4191:4210   */\n      swap1\n      pop\n        /* \"#utility.yul\":3850:4216   */\n      swap2\n      swap1\n      pop\n      jump\t// out\n        /* \"#utility.yul\":4222:4641   */\n    tag_31:\n        /* \"#utility.yul\":4388:4392   */\n      0x00\n        /* \"#utility.yul\":4426:4428   */\n      0x20\n        /* \"#utility.yul\":4415:4424   */\n      dup3\n        /* \"#utility.yul\":4411:4429   */\n      add\n        /* \"#utility.yul\":4403:4429   */\n      swap1\n      pop\n        /* \"#utility.yul\":4475:4484   */\n      dup2\n        /* \"#utility.yul\":4469:4473   */\n      dup2\n        /* \"#utility.yul\":4465:4485   */\n      sub\n        /* \"#utility.yul\":4461:4462   */\n      0x00\n        /* \"#utility.yul\":4450:4459   */\n      dup4\n        /* \"#utility.yul\":4446:4463   */\n      add\n        /* \"#utility.yul\":4439:4486   */\n      mstore\n        /* \"#utility.yul\":4503:4634   */\n      tag_76\n        /* \"#utility.yul\":4629:4633   */\n      dup2\n        /* \"#utility.yul\":4503:4634   */\n      tag_44\n      jump\t// in\n    tag_76:\n        /* \"#utility.yul\":4495:4634   */\n      swap1\n      pop\n        /* \"#utility.yul\":4222:4641   */\n      swap2\n      swap1\n      pop\n      jump\t// out\n\n    auxdata: 0xa2646970667358221220bbc7b2d7b3c1bbf10abe3b2642fa04a57fc185870c57c5bb5b670a99dd2f019e64736f6c63430008120033\n}\n",
				"bytecode": {
					"linkReferences": {},
					"object": "608060405234801561001057600080fd5b50604051610652380380610652833981810160405281019061003291906100db565b806000806101000a81548173ffffffffffffffffffffffffffffffffffffffff021916908373ffffffffffffffffffffffffffffffffffffffff16021790555050610108565b600080fd5b600073ffffffffffffffffffffffffffffffffffffffff82169050919050565b60006100a88261007d565b9050919050565b6100b88161009d565b81146100c357600080fd5b50565b6000815190506100d5816100af565b92915050565b6000602082840312156100f1576100f0610078565b5b60006100ff848285016100c6565b91505092915050565b61053b806101176000396000f3fe60806040526004361061002d5760003560e01c80635f589e42146100415780638aecbc511461004b5761003c565b3661003c5761003a610055565b005b600080fd5b6100496101b5565b005b610053610055565b005b3073ffffffffffffffffffffffffffffffffffffffff163373ffffffffffffffffffffffffffffffffffffffff16036100c3576040517f08c379a00000000000000000000000000000000000000000000000000000000081526004016100ba90610393565b60405180910390fd5b6729a2241af62c000034101561010e576040517f08c379a0000000000000000000000000000000000000000000000000000000008152600401610105906103ff565b60405180910390fd5b60018060003373ffffffffffffffffffffffffffffffffffffffff1673ffffffffffffffffffffffffffffffffffffffff16815260200190815260200160002060006101000a81548160ff0219169083151502179055503373ffffffffffffffffffffffffffffffffffffffff167f6ce798768a0eadfedda07e18a4866e01bda8fd2a6fc1552680f72f49e2b57c13346040516101ab9190610438565b60405180910390a2565b60008054906101000a900473ffffffffffffffffffffffffffffffffffffffff1673ffffffffffffffffffffffffffffffffffffffff163373ffffffffffffffffffffffffffffffffffffffff161461020d57600080fd5b600047905060003373ffffffffffffffffffffffffffffffffffffffff168260405161023890610484565b60006040518083038185875af1925050503d8060008114610275576040519150601f19603f3d011682016040523d82523d6000602084013e61027a565b606091505b50509050806102be576040517f08c379a00000000000000000000000000000000000000000000000000000000081526004016102b5906104e5565b60405180910390fd5b3373ffffffffffffffffffffffffffffffffffffffff167f630898e2c2f457e1126e20e444ed2807734fc741f763c11e28d5777781c6928a346040516103049190610438565b60405180910390a25050565b600082825260208201905092915050565b7f53656e6465722063616e6e6f742062652074686520736d61727420636f6e747260008201527f6163740000000000000000000000000000000000000000000000000000000000602082015250565b600061037d602383610310565b915061038882610321565b604082019050919050565b600060208201905081810360008301526103ac81610370565b9050919050565b7f416d6f756e7420746f2073656e6420697320302e312065746865720000000000600082015250565b60006103e9601b83610310565b91506103f4826103b3565b602082019050919050565b60006020820190508181036000830152610418816103dc565b9050919050565b6000819050919050565b6104328161041f565b82525050565b600060208201905061044d6000830184610429565b92915050565b600081905092915050565b50565b600061046e600083610453565b91506104798261045e565b600082019050919050565b600061048f82610461565b9150819050919050565b7f4661696c65642054584e00000000000000000000000000000000000000000000600082015250565b60006104cf600a83610310565b91506104da82610499565b602082019050919050565b600060208201905081810360008301526104fe816104c2565b905091905056fea2646970667358221220bbc7b2d7b3c1bbf10abe3b2642fa04a57fc185870c57c5bb5b670a99dd2f019e64736f6c63430008120033",
					"opcodes": "PUSH1 0x80 PUSH1 0x40 MSTORE CALLVALUE DUP1 ISZERO PUSH2 0x10 JUMPI PUSH1 0x0 DUP1 REVERT JUMPDEST POP PUSH1 0x40 MLOAD PUSH2 0x652 CODESIZE SUB DUP1 PUSH2 0x652 DUP4 CODECOPY DUP2 DUP2 ADD PUSH1 0x40 MSTORE DUP2 ADD SWAP1 PUSH2 0x32 SWAP2 SWAP1 PUSH2 0xDB JUMP JUMPDEST DUP1 PUSH1 0x0 DUP1 PUSH2 0x100 EXP DUP2 SLOAD DUP2 PUSH20 0xFFFFFFFFFFFFFFFFFFFFFFFFFFFFFFFFFFFFFFFF MUL NOT AND SWAP1 DUP4 PUSH20 0xFFFFFFFFFFFFFFFFFFFFFFFFFFFFFFFFFFFFFFFF AND MUL OR SWAP1 SSTORE POP POP PUSH2 0x108 JUMP JUMPDEST PUSH1 0x0 DUP1 REVERT JUMPDEST PUSH1 0x0 PUSH20 0xFFFFFFFFFFFFFFFFFFFFFFFFFFFFFFFFFFFFFFFF DUP3 AND SWAP1 POP SWAP2 SWAP1 POP JUMP JUMPDEST PUSH1 0x0 PUSH2 0xA8 DUP3 PUSH2 0x7D JUMP JUMPDEST SWAP1 POP SWAP2 SWAP1 POP JUMP JUMPDEST PUSH2 0xB8 DUP2 PUSH2 0x9D JUMP JUMPDEST DUP2 EQ PUSH2 0xC3 JUMPI PUSH1 0x0 DUP1 REVERT JUMPDEST POP JUMP JUMPDEST PUSH1 0x0 DUP2 MLOAD SWAP1 POP PUSH2 0xD5 DUP2 PUSH2 0xAF JUMP JUMPDEST SWAP3 SWAP2 POP POP JUMP JUMPDEST PUSH1 0x0 PUSH1 0x20 DUP3 DUP5 SUB SLT ISZERO PUSH2 0xF1 JUMPI PUSH2 0xF0 PUSH2 0x78 JUMP JUMPDEST JUMPDEST PUSH1 0x0 PUSH2 0xFF DUP5 DUP3 DUP6 ADD PUSH2 0xC6 JUMP JUMPDEST SWAP2 POP POP SWAP3 SWAP2 POP POP JUMP JUMPDEST PUSH2 0x53B DUP1 PUSH2 0x117 PUSH1 0x0 CODECOPY PUSH1 0x0 RETURN INVALID PUSH1 0x80 PUSH1 0x40 MSTORE PUSH1 0x4 CALLDATASIZE LT PUSH2 0x2D JUMPI PUSH1 0x0 CALLDATALOAD PUSH1 0xE0 SHR DUP1 PUSH4 0x5F589E42 EQ PUSH2 0x41 JUMPI DUP1 PUSH4 0x8AECBC51 EQ PUSH2 0x4B JUMPI PUSH2 0x3C JUMP JUMPDEST CALLDATASIZE PUSH2 0x3C JUMPI PUSH2 0x3A PUSH2 0x55 JUMP JUMPDEST STOP JUMPDEST PUSH1 0x0 DUP1 REVERT JUMPDEST PUSH2 0x49 PUSH2 0x1B5 JUMP JUMPDEST STOP JUMPDEST PUSH2 0x53 PUSH2 0x55 JUMP JUMPDEST STOP JUMPDEST ADDRESS PUSH20 0xFFFFFFFFFFFFFFFFFFFFFFFFFFFFFFFFFFFFFFFF AND CALLER PUSH20 0xFFFFFFFFFFFFFFFFFFFFFFFFFFFFFFFFFFFFFFFF AND SUB PUSH2 0xC3 JUMPI PUSH1 0x40 MLOAD PUSH32 0x8C379A000000000000000000000000000000000000000000000000000000000 DUP2 MSTORE PUSH1 0x4 ADD PUSH2 0xBA SWAP1 PUSH2 0x393 JUMP JUMPDEST PUSH1 0x40 MLOAD DUP1 SWAP2 SUB SWAP1 REVERT JUMPDEST PUSH8 0x29A2241AF62C0000 CALLVALUE LT ISZERO PUSH2 0x10E JUMPI PUSH1 0x40 MLOAD PUSH32 0x8C379A000000000000000000000000000000000000000000000000000000000 DUP2 MSTORE PUSH1 0x4 ADD PUSH2 0x105 SWAP1 PUSH2 0x3FF JUMP JUMPDEST PUSH1 0x40 MLOAD DUP1 SWAP2 SUB SWAP1 REVERT JUMPDEST PUSH1 0x1 DUP1 PUSH1 0x0 CALLER PUSH20 0xFFFFFFFFFFFFFFFFFFFFFFFFFFFFFFFFFFFFFFFF AND PUSH20 0xFFFFFFFFFFFFFFFFFFFFFFFFFFFFFFFFFFFFFFFF AND DUP2 MSTORE PUSH1 0x20 ADD SWAP1 DUP2 MSTORE PUSH1 0x20 ADD PUSH1 0x0 KECCAK256 PUSH1 0x0 PUSH2 0x100 EXP DUP2 SLOAD DUP2 PUSH1 0xFF MUL NOT AND SWAP1 DUP4 ISZERO ISZERO MUL OR SWAP1 SSTORE POP CALLER PUSH20 0xFFFFFFFFFFFFFFFFFFFFFFFFFFFFFFFFFFFFFFFF AND PUSH32 0x6CE798768A0EADFEDDA07E18A4866E01BDA8FD2A6FC1552680F72F49E2B57C13 CALLVALUE PUSH1 0x40 MLOAD PUSH2 0x1AB SWAP2 SWAP1 PUSH2 0x438 JUMP JUMPDEST PUSH1 0x40 MLOAD DUP1 SWAP2 SUB SWAP1 LOG2 JUMP JUMPDEST PUSH1 0x0 DUP1 SLOAD SWAP1 PUSH2 0x100 EXP SWAP1 DIV PUSH20 0xFFFFFFFFFFFFFFFFFFFFFFFFFFFFFFFFFFFFFFFF AND PUSH20 0xFFFFFFFFFFFFFFFFFFFFFFFFFFFFFFFFFFFFFFFF AND CALLER PUSH20 0xFFFFFFFFFFFFFFFFFFFFFFFFFFFFFFFFFFFFFFFF AND EQ PUSH2 0x20D JUMPI PUSH1 0x0 DUP1 REVERT JUMPDEST PUSH1 0x0 SELFBALANCE SWAP1 POP PUSH1 0x0 CALLER PUSH20 0xFFFFFFFFFFFFFFFFFFFFFFFFFFFFFFFFFFFFFFFF AND DUP3 PUSH1 0x40 MLOAD PUSH2 0x238 SWAP1 PUSH2 0x484 JUMP JUMPDEST PUSH1 0x0 PUSH1 0x40 MLOAD DUP1 DUP4 SUB DUP2 DUP6 DUP8 GAS CALL SWAP3 POP POP POP RETURNDATASIZE DUP1 PUSH1 0x0 DUP2 EQ PUSH2 0x275 JUMPI PUSH1 0x40 MLOAD SWAP2 POP PUSH1 0x1F NOT PUSH1 0x3F RETURNDATASIZE ADD AND DUP3 ADD PUSH1 0x40 MSTORE RETURNDATASIZE DUP3 MSTORE RETURNDATASIZE PUSH1 0x0 PUSH1 0x20 DUP5 ADD RETURNDATACOPY PUSH2 0x27A JUMP JUMPDEST PUSH1 0x60 SWAP2 POP JUMPDEST POP POP SWAP1 POP DUP1 PUSH2 0x2BE JUMPI PUSH1 0x40 MLOAD PUSH32 0x8C379A000000000000000000000000000000000000000000000000000000000 DUP2 MSTORE PUSH1 0x4 ADD PUSH2 0x2B5 SWAP1 PUSH2 0x4E5 JUMP JUMPDEST PUSH1 0x40 MLOAD DUP1 SWAP2 SUB SWAP1 REVERT JUMPDEST CALLER PUSH20 0xFFFFFFFFFFFFFFFFFFFFFFFFFFFFFFFFFFFFFFFF AND PUSH32 0x630898E2C2F457E1126E20E444ED2807734FC741F763C11E28D5777781C6928A CALLVALUE PUSH1 0x40 MLOAD PUSH2 0x304 SWAP2 SWAP1 PUSH2 0x438 JUMP JUMPDEST PUSH1 0x40 MLOAD DUP1 SWAP2 SUB SWAP1 LOG2 POP POP JUMP JUMPDEST PUSH1 0x0 DUP3 DUP3 MSTORE PUSH1 0x20 DUP3 ADD SWAP1 POP SWAP3 SWAP2 POP POP JUMP JUMPDEST PUSH32 0x53656E6465722063616E6E6F742062652074686520736D61727420636F6E7472 PUSH1 0x0 DUP3 ADD MSTORE PUSH32 0x6163740000000000000000000000000000000000000000000000000000000000 PUSH1 0x20 DUP3 ADD MSTORE POP JUMP JUMPDEST PUSH1 0x0 PUSH2 0x37D PUSH1 0x23 DUP4 PUSH2 0x310 JUMP JUMPDEST SWAP2 POP PUSH2 0x388 DUP3 PUSH2 0x321 JUMP JUMPDEST PUSH1 0x40 DUP3 ADD SWAP1 POP SWAP2 SWAP1 POP JUMP JUMPDEST PUSH1 0x0 PUSH1 0x20 DUP3 ADD SWAP1 POP DUP2 DUP2 SUB PUSH1 0x0 DUP4 ADD MSTORE PUSH2 0x3AC DUP2 PUSH2 0x370 JUMP JUMPDEST SWAP1 POP SWAP2 SWAP1 POP JUMP JUMPDEST PUSH32 0x416D6F756E7420746F2073656E6420697320302E312065746865720000000000 PUSH1 0x0 DUP3 ADD MSTORE POP JUMP JUMPDEST PUSH1 0x0 PUSH2 0x3E9 PUSH1 0x1B DUP4 PUSH2 0x310 JUMP JUMPDEST SWAP2 POP PUSH2 0x3F4 DUP3 PUSH2 0x3B3 JUMP JUMPDEST PUSH1 0x20 DUP3 ADD SWAP1 POP SWAP2 SWAP1 POP JUMP JUMPDEST PUSH1 0x0 PUSH1 0x20 DUP3 ADD SWAP1 POP DUP2 DUP2 SUB PUSH1 0x0 DUP4 ADD MSTORE PUSH2 0x418 DUP2 PUSH2 0x3DC JUMP JUMPDEST SWAP1 POP SWAP2 SWAP1 POP JUMP JUMPDEST PUSH1 0x0 DUP2 SWAP1 POP SWAP2 SWAP1 POP JUMP JUMPDEST PUSH2 0x432 DUP2 PUSH2 0x41F JUMP JUMPDEST DUP3 MSTORE POP POP JUMP JUMPDEST PUSH1 0x0 PUSH1 0x20 DUP3 ADD SWAP1 POP PUSH2 0x44D PUSH1 0x0 DUP4 ADD DUP5 PUSH2 0x429 JUMP JUMPDEST SWAP3 SWAP2 POP POP JUMP JUMPDEST PUSH1 0x0 DUP2 SWAP1 POP SWAP3 SWAP2 POP POP JUMP JUMPDEST POP JUMP JUMPDEST PUSH1 0x0 PUSH2 0x46E PUSH1 0x0 DUP4 PUSH2 0x453 JUMP JUMPDEST SWAP2 POP PUSH2 0x479 DUP3 PUSH2 0x45E JUMP JUMPDEST PUSH1 0x0 DUP3 ADD SWAP1 POP SWAP2 SWAP1 POP JUMP JUMPDEST PUSH1 0x0 PUSH2 0x48F DUP3 PUSH2 0x461 JUMP JUMPDEST SWAP2 POP DUP2 SWAP1 POP SWAP2 SWAP1 POP JUMP JUMPDEST PUSH32 0x4661696C65642054584E00000000000000000000000000000000000000000000 PUSH1 0x0 DUP3 ADD MSTORE POP JUMP JUMPDEST PUSH1 0x0 PUSH2 0x4CF PUSH1 0xA DUP4 PUSH2 0x310 JUMP JUMPDEST SWAP2 POP PUSH2 0x4DA DUP3 PUSH2 0x499 JUMP JUMPDEST PUSH1 0x20 DUP3 ADD SWAP1 POP SWAP2 SWAP1 POP JUMP JUMPDEST PUSH1 0x0 PUSH1 0x20 DUP3 ADD SWAP1 POP DUP2 DUP2 SUB PUSH1 0x0 DUP4 ADD MSTORE PUSH2 0x4FE DUP2 PUSH2 0x4C2 JUMP JUMPDEST SWAP1 POP SWAP2 SWAP1 POP JUMP INVALID LOG2 PUSH5 0x6970667358 0x22 SLT KECCAK256 0xBB 0xC7 0xB2 0xD7 0xB3 0xC1 0xBB CALL EXP 0xBE EXTCODESIZE 0x26 TIMESTAMP STATICCALL DIV 0xA5 PUSH32 0xC185870C57C5BB5B670A99DD2F019E64736F6C63430008120033000000000000 "
				},
				"gasEstimates": {
					"creation": {
						"codeDepositCost": "267800",
						"executionCost": "infinite",
						"totalCost": "infinite"
					},
					"external": {
						"sendMoneyToContract()": "26107",
						"withdrawFromContract()": "infinite"
					}
				},
				"methodIdentifiers": {
					"sendMoneyToContract()": "8aecbc51",
					"withdrawFromContract()": "5f589e42"
				}
			},
			"storageLayout": {
				"storage": [
					{
						"astId": 15,
						"contract": "EtherWallet.sol:SimpleCustomWallet",
						"label": "owner",
						"offset": 0,
						"slot": "0",
						"type": "t_address_payable"
					},
					{
						"astId": 22,
						"contract": "EtherWallet.sol:SimpleCustomWallet",
						"label": "hasAddressPaid",
						"offset": 0,
						"slot": "1",
						"type": "t_mapping(t_address,t_bool)"
					}
				],
				"types": {
					"t_address": {
						"encoding": "inplace",
						"label": "address",
						"numberOfBytes": "20"
					},
					"t_address_payable": {
						"encoding": "inplace",
						"label": "address payable",
						"numberOfBytes": "20"
					},
					"t_bool": {
						"encoding": "inplace",
						"label": "bool",
						"numberOfBytes": "1"
					},
					"t_mapping(t_address,t_bool)": {
						"encoding": "mapping",
						"key": "t_address",
						"label": "mapping(address => bool)",
						"numberOfBytes": "32",
						"value": "t_bool"
					}
				}
			},
			"userdoc": {
				"kind": "user",
				"methods": {},
				"version": 1
			}
		}
	}
}