{
	"yul/firstYul.sol": {
		"FirstYul": {
			"abi": [
				{
					"inputs": [],
					"name": "compareAddress",
					"outputs": [
						{
							"internalType": "bool",
							"name": "isSame",
							"type": "bool"
						}
					],
					"stateMutability": "nonpayable",
					"type": "function"
				},
				{
					"inputs": [
						{
							"internalType": "uint256",
							"name": "i",
							"type": "uint256"
						}
					],
					"name": "lookup",
					"outputs": [
						{
							"internalType": "uint256",
							"name": "result",
							"type": "uint256"
						}
					],
					"stateMutability": "pure",
					"type": "function"
				},
				{
					"inputs": [],
					"name": "s",
					"outputs": [
						{
							"internalType": "uint256",
							"name": "",
							"type": "uint256"
						}
					],
					"stateMutability": "view",
					"type": "function"
				},
				{
					"inputs": [
						{
							"internalType": "uint256[]",
							"name": "a",
							"type": "uint256[]"
						}
					],
					"name": "sum",
					"outputs": [
						{
							"internalType": "uint256",
							"name": "result",
							"type": "uint256"
						}
					],
					"stateMutability": "pure",
					"type": "function"
				}
			],
			"devdoc": {
				"kind": "dev",
				"methods": {},
				"version": 1
			},
			"evm": {
				"assembly": "    /* \"yul/firstYul.sol\":61:1198  contract FirstYul {... */\n  mstore(0x40, 0x80)\n  callvalue\n  dup1\n  iszero\n  tag_1\n  jumpi\n  0x00\n  dup1\n  revert\ntag_1:\n  pop\n  dataSize(sub_0)\n  dup1\n  dataOffset(sub_0)\n  0x00\n  codecopy\n  0x00\n  return\nstop\n\nsub_0: assembly {\n        /* \"yul/firstYul.sol\":61:1198  contract FirstYul {... */\n      mstore(0x40, 0x80)\n      callvalue\n      dup1\n      iszero\n      tag_1\n      jumpi\n      0x00\n      dup1\n      revert\n    tag_1:\n      pop\n      jumpi(tag_2, lt(calldatasize, 0x04))\n      shr(0xe0, calldataload(0x00))\n      dup1\n      0x0194db8e\n      eq\n      tag_3\n      jumpi\n      dup1\n      0x0a874df6\n      eq\n      tag_4\n      jumpi\n      dup1\n      0x1b2e6c93\n      eq\n      tag_5\n      jumpi\n      dup1\n      0x86b714e2\n      eq\n      tag_6\n      jumpi\n    tag_2:\n      0x00\n      dup1\n      revert\n        /* \"yul/firstYul.sol\":107:384  function sum (uint[] memory a) public pure returns(uint256 result){... */\n    tag_3:\n      tag_7\n      0x04\n      dup1\n      calldatasize\n      sub\n      dup2\n      add\n      swap1\n      tag_8\n      swap2\n      swap1\n      tag_9\n      jump\t// in\n    tag_8:\n      tag_10\n      jump\t// in\n    tag_7:\n      mload(0x40)\n      tag_11\n      swap2\n      swap1\n      tag_12\n      jump\t// in\n    tag_11:\n      mload(0x40)\n      dup1\n      swap2\n      sub\n      swap1\n      return\n        /* \"yul/firstYul.sol\":392:780  function lookup (uint256 i) public pure returns (uint256 result){... */\n    tag_4:\n      tag_13\n      0x04\n      dup1\n      calldatasize\n      sub\n      dup2\n      add\n      swap1\n      tag_14\n      swap2\n      swap1\n      tag_15\n      jump\t// in\n    tag_14:\n      tag_16\n      jump\t// in\n    tag_13:\n      mload(0x40)\n      tag_17\n      swap2\n      swap1\n      tag_12\n      jump\t// in\n    tag_17:\n      mload(0x40)\n      dup1\n      swap2\n      sub\n      swap1\n      return\n        /* \"yul/firstYul.sol\":788:1193  function compareAddress() public returns(bool isSame){... */\n    tag_5:\n      tag_18\n      tag_19\n      jump\t// in\n    tag_18:\n      mload(0x40)\n      tag_20\n      swap2\n      swap1\n      tag_21\n      jump\t// in\n    tag_20:\n      mload(0x40)\n      dup1\n      swap2\n      sub\n      swap1\n      return\n        /* \"yul/firstYul.sol\":87:100  uint public s */\n    tag_6:\n      tag_22\n      tag_23\n      jump\t// in\n    tag_22:\n      mload(0x40)\n      tag_24\n      swap2\n      swap1\n      tag_12\n      jump\t// in\n    tag_24:\n      mload(0x40)\n      dup1\n      swap2\n      sub\n      swap1\n      return\n        /* \"yul/firstYul.sol\":107:384  function sum (uint[] memory a) public pure returns(uint256 result){... */\n    tag_10:\n        /* \"yul/firstYul.sol\":158:172  uint256 result */\n      0x00\n        /* \"yul/firstYul.sol\":221:222  a */\n      dup2\n        /* \"yul/firstYul.sol\":215:223  mload(a) */\n      mload\n        /* \"yul/firstYul.sol\":248:249  0 */\n      0x00\n        /* \"yul/firstYul.sol\":237:364  for{let i:=0} lt(i,n) {i:=add(i,1)}{... */\n    tag_26:\n        /* \"yul/firstYul.sol\":256:257  n */\n      dup2\n        /* \"yul/firstYul.sol\":254:255  i */\n      dup2\n        /* \"yul/firstYul.sol\":251:258  lt(i,n) */\n      lt\n        /* \"yul/firstYul.sol\":237:364  for{let i:=0} lt(i,n) {i:=add(i,1)}{... */\n      iszero\n      tag_28\n      jumpi\n        /* \"yul/firstYul.sol\":341:345  0x20 */\n      0x20\n        /* \"yul/firstYul.sol\":339:340  i */\n      dup2\n        /* \"yul/firstYul.sol\":335:346  mul(i,0x20) */\n      mul\n        /* \"yul/firstYul.sol\":328:332  0x20 */\n      0x20\n        /* \"yul/firstYul.sol\":325:326  a */\n      dup6\n        /* \"yul/firstYul.sol\":321:333  add(a, 0x20) */\n      add\n        /* \"yul/firstYul.sol\":317:347  add(add(a, 0x20), mul(i,0x20)) */\n      add\n        /* \"yul/firstYul.sol\":311:348  mload(add(add(a, 0x20), mul(i,0x20))) */\n      mload\n        /* \"yul/firstYul.sol\":303:309  result */\n      dup4\n        /* \"yul/firstYul.sol\":299:349  add(result, mload(add(add(a, 0x20), mul(i,0x20)))) */\n      add\n        /* \"yul/firstYul.sol\":291:349  result:=add(result, mload(add(add(a, 0x20), mul(i,0x20)))) */\n      swap3\n      pop\n        /* \"yul/firstYul.sol\":269:270  1 */\n      0x01\n        /* \"yul/firstYul.sol\":267:268  i */\n      dup2\n        /* \"yul/firstYul.sol\":263:271  add(i,1) */\n      add\n        /* \"yul/firstYul.sol\":260:271  i:=add(i,1) */\n      swap1\n      pop\n        /* \"yul/firstYul.sol\":237:364  for{let i:=0} lt(i,n) {i:=add(i,1)}{... */\n      jump(tag_26)\n    tag_28:\n        /* \"yul/firstYul.sol\":240:250  {let i:=0} */\n      pop\n        /* \"yul/firstYul.sol\":193:377  {... */\n      pop\n        /* \"yul/firstYul.sol\":107:384  function sum (uint[] memory a) public pure returns(uint256 result){... */\n      swap2\n      swap1\n      pop\n      jump\t// out\n        /* \"yul/firstYul.sol\":392:780  function lookup (uint256 i) public pure returns (uint256 result){... */\n    tag_16:\n        /* \"yul/firstYul.sol\":441:455  uint256 result */\n      0x00\n        /* \"yul/firstYul.sol\":497:498  i */\n      dup2\n        /* \"yul/firstYul.sol\":522:523  0 */\n      0x00\n        /* \"yul/firstYul.sol\":517:576  case 0 {... */\n      dup2\n      eq\n      tag_31\n      jumpi\n        /* \"yul/firstYul.sol\":601:602  1 */\n      0x01\n        /* \"yul/firstYul.sol\":596:655  case 1 {... */\n      dup2\n      eq\n      tag_32\n      jumpi\n        /* \"yul/firstYul.sol\":680:681  2 */\n      0x02\n        /* \"yul/firstYul.sol\":675:734  case 2 {... */\n      dup2\n      eq\n      tag_33\n      jumpi\n        /* \"yul/firstYul.sol\":490:734  switch i ... */\n      jump(tag_30)\n        /* \"yul/firstYul.sol\":517:576  case 0 {... */\n    tag_31:\n        /* \"yul/firstYul.sol\":555:557  90 */\n      0x5a\n        /* \"yul/firstYul.sol\":547:557  result:=90 */\n      swap2\n      pop\n        /* \"yul/firstYul.sol\":517:576  case 0 {... */\n      jump(tag_30)\n        /* \"yul/firstYul.sol\":596:655  case 1 {... */\n    tag_32:\n        /* \"yul/firstYul.sol\":634:636  91 */\n      0x5b\n        /* \"yul/firstYul.sol\":626:636  result:=91 */\n      swap2\n      pop\n        /* \"yul/firstYul.sol\":596:655  case 1 {... */\n      jump(tag_30)\n        /* \"yul/firstYul.sol\":675:734  case 2 {... */\n    tag_33:\n        /* \"yul/firstYul.sol\":713:715  92 */\n      0x5c\n        /* \"yul/firstYul.sol\":705:715  result:=92 */\n      swap2\n      pop\n        /* \"yul/firstYul.sol\":490:734  switch i ... */\n    tag_30:\n      pop\n        /* \"yul/firstYul.sol\":392:780  function lookup (uint256 i) public pure returns (uint256 result){... */\n      swap2\n      swap1\n      pop\n      jump\t// out\n        /* \"yul/firstYul.sol\":788:1193  function compareAddress() public returns(bool isSame){... */\n    tag_19:\n        /* \"yul/firstYul.sol\":829:840  bool isSame */\n      0x00\n        /* \"yul/firstYul.sol\":926:936  msg.sender */\n      caller\n        /* \"yul/firstYul.sol\":910:938  uint256(uint160(msg.sender)) */\n      0xffffffffffffffffffffffffffffffffffffffff\n      and\n        /* \"yul/firstYul.sol\":903:906  160 */\n      0xa0\n        /* \"yul/firstYul.sol\":884:899  block.timestamp */\n      timestamp\n        /* \"yul/firstYul.sol\":884:906  block.timestamp << 160 */\n      swap1\n      shl\n        /* \"yul/firstYul.sol\":883:938  (block.timestamp << 160) | uint256(uint160(msg.sender)) */\n      or\n        /* \"yul/firstYul.sol\":879:880  s */\n      0x00\n        /* \"yul/firstYul.sol\":879:938  s = (block.timestamp << 160) | uint256(uint160(msg.sender)) */\n      dup2\n      swap1\n      sstore\n      pop\n        /* \"yul/firstYul.sol\":943:964  address storedAddress */\n      0x00\n        /* \"yul/firstYul.sol\":984:985  s */\n      dup1\n      sload\n        /* \"yul/firstYul.sol\":943:987  address storedAddress =  address(uint160(s)) */\n      swap1\n      pop\n        /* \"yul/firstYul.sol\":1078:1091  storedAddress */\n      dup1\n        /* \"yul/firstYul.sol\":1074:1076  96 */\n      0x60\n        /* \"yul/firstYul.sol\":1070:1092  shl(96, storedAddress) */\n      shl\n        /* \"yul/firstYul.sol\":1066:1068  96 */\n      0x60\n        /* \"yul/firstYul.sol\":1062:1093  shr(96, shl(96, storedAddress)) */\n      shr\n        /* \"yul/firstYul.sol\":1046:1093  storedAddress:= shr(96, shl(96, storedAddress)) */\n      swap1\n      pop\n        /* \"yul/firstYul.sol\":1134:1147  storedAddress */\n      dup1\n        /* \"yul/firstYul.sol\":1125:1133  caller() */\n      caller\n        /* \"yul/firstYul.sol\":1122:1149  eq(caller(),storedAddress ) */\n      eq\n        /* \"yul/firstYul.sol\":1113:1149  isSame:= eq(caller(),storedAddress ) */\n      swap2\n      pop\n        /* \"yul/firstYul.sol\":1010:1164  {... */\n      pop\n        /* \"yul/firstYul.sol\":788:1193  function compareAddress() public returns(bool isSame){... */\n      swap1\n      jump\t// out\n        /* \"yul/firstYul.sol\":87:100  uint public s */\n    tag_23:\n      sload(0x00)\n      dup2\n      jump\t// out\n        /* \"#utility.yul\":7:82   */\n    tag_35:\n        /* \"#utility.yul\":40:46   */\n      0x00\n        /* \"#utility.yul\":73:75   */\n      0x40\n        /* \"#utility.yul\":67:76   */\n      mload\n        /* \"#utility.yul\":57:76   */\n      swap1\n      pop\n        /* \"#utility.yul\":7:82   */\n      swap1\n      jump\t// out\n        /* \"#utility.yul\":88:205   */\n    tag_36:\n        /* \"#utility.yul\":197:198   */\n      0x00\n        /* \"#utility.yul\":194:195   */\n      dup1\n        /* \"#utility.yul\":187:199   */\n      revert\n        /* \"#utility.yul\":211:328   */\n    tag_37:\n        /* \"#utility.yul\":320:321   */\n      0x00\n        /* \"#utility.yul\":317:318   */\n      dup1\n        /* \"#utility.yul\":310:322   */\n      revert\n        /* \"#utility.yul\":334:451   */\n    tag_38:\n        /* \"#utility.yul\":443:444   */\n      0x00\n        /* \"#utility.yul\":440:441   */\n      dup1\n        /* \"#utility.yul\":433:445   */\n      revert\n        /* \"#utility.yul\":457:559   */\n    tag_39:\n        /* \"#utility.yul\":498:504   */\n      0x00\n        /* \"#utility.yul\":549:551   */\n      0x1f\n        /* \"#utility.yul\":545:552   */\n      not\n        /* \"#utility.yul\":540:542   */\n      0x1f\n        /* \"#utility.yul\":533:538   */\n      dup4\n        /* \"#utility.yul\":529:543   */\n      add\n        /* \"#utility.yul\":525:553   */\n      and\n        /* \"#utility.yul\":515:553   */\n      swap1\n      pop\n        /* \"#utility.yul\":457:559   */\n      swap2\n      swap1\n      pop\n      jump\t// out\n        /* \"#utility.yul\":565:745   */\n    tag_40:\n        /* \"#utility.yul\":613:690   */\n      0x4e487b7100000000000000000000000000000000000000000000000000000000\n        /* \"#utility.yul\":610:611   */\n      0x00\n        /* \"#utility.yul\":603:691   */\n      mstore\n        /* \"#utility.yul\":710:714   */\n      0x41\n        /* \"#utility.yul\":707:708   */\n      0x04\n        /* \"#utility.yul\":700:715   */\n      mstore\n        /* \"#utility.yul\":734:738   */\n      0x24\n        /* \"#utility.yul\":731:732   */\n      0x00\n        /* \"#utility.yul\":724:739   */\n      revert\n        /* \"#utility.yul\":751:1032   */\n    tag_41:\n        /* \"#utility.yul\":834:861   */\n      tag_61\n        /* \"#utility.yul\":856:860   */\n      dup3\n        /* \"#utility.yul\":834:861   */\n      tag_39\n      jump\t// in\n    tag_61:\n        /* \"#utility.yul\":826:832   */\n      dup2\n        /* \"#utility.yul\":822:862   */\n      add\n        /* \"#utility.yul\":964:970   */\n      dup2\n        /* \"#utility.yul\":952:962   */\n      dup2\n        /* \"#utility.yul\":949:971   */\n      lt\n        /* \"#utility.yul\":928:946   */\n      0xffffffffffffffff\n        /* \"#utility.yul\":916:926   */\n      dup3\n        /* \"#utility.yul\":913:947   */\n      gt\n        /* \"#utility.yul\":910:972   */\n      or\n        /* \"#utility.yul\":907:995   */\n      iszero\n      tag_62\n      jumpi\n        /* \"#utility.yul\":975:993   */\n      tag_63\n      tag_40\n      jump\t// in\n    tag_63:\n        /* \"#utility.yul\":907:995   */\n    tag_62:\n        /* \"#utility.yul\":1015:1025   */\n      dup1\n        /* \"#utility.yul\":1011:1013   */\n      0x40\n        /* \"#utility.yul\":1004:1026   */\n      mstore\n        /* \"#utility.yul\":794:1032   */\n      pop\n        /* \"#utility.yul\":751:1032   */\n      pop\n      pop\n      jump\t// out\n        /* \"#utility.yul\":1038:1167   */\n    tag_42:\n        /* \"#utility.yul\":1072:1078   */\n      0x00\n        /* \"#utility.yul\":1099:1119   */\n      tag_65\n      tag_35\n      jump\t// in\n    tag_65:\n        /* \"#utility.yul\":1089:1119   */\n      swap1\n      pop\n        /* \"#utility.yul\":1128:1161   */\n      tag_66\n        /* \"#utility.yul\":1156:1160   */\n      dup3\n        /* \"#utility.yul\":1148:1154   */\n      dup3\n        /* \"#utility.yul\":1128:1161   */\n      tag_41\n      jump\t// in\n    tag_66:\n        /* \"#utility.yul\":1038:1167   */\n      swap2\n      swap1\n      pop\n      jump\t// out\n        /* \"#utility.yul\":1173:1484   */\n    tag_43:\n        /* \"#utility.yul\":1250:1254   */\n      0x00\n        /* \"#utility.yul\":1340:1358   */\n      0xffffffffffffffff\n        /* \"#utility.yul\":1332:1338   */\n      dup3\n        /* \"#utility.yul\":1329:1359   */\n      gt\n        /* \"#utility.yul\":1326:1382   */\n      iszero\n      tag_68\n      jumpi\n        /* \"#utility.yul\":1362:1380   */\n      tag_69\n      tag_40\n      jump\t// in\n    tag_69:\n        /* \"#utility.yul\":1326:1382   */\n    tag_68:\n        /* \"#utility.yul\":1412:1416   */\n      0x20\n        /* \"#utility.yul\":1404:1410   */\n      dup3\n        /* \"#utility.yul\":1400:1417   */\n      mul\n        /* \"#utility.yul\":1392:1417   */\n      swap1\n      pop\n        /* \"#utility.yul\":1472:1476   */\n      0x20\n        /* \"#utility.yul\":1466:1470   */\n      dup2\n        /* \"#utility.yul\":1462:1477   */\n      add\n        /* \"#utility.yul\":1454:1477   */\n      swap1\n      pop\n        /* \"#utility.yul\":1173:1484   */\n      swap2\n      swap1\n      pop\n      jump\t// out\n        /* \"#utility.yul\":1490:1607   */\n    tag_44:\n        /* \"#utility.yul\":1599:1600   */\n      0x00\n        /* \"#utility.yul\":1596:1597   */\n      dup1\n        /* \"#utility.yul\":1589:1601   */\n      revert\n        /* \"#utility.yul\":1613:1690   */\n    tag_45:\n        /* \"#utility.yul\":1650:1657   */\n      0x00\n        /* \"#utility.yul\":1679:1684   */\n      dup2\n        /* \"#utility.yul\":1668:1684   */\n      swap1\n      pop\n        /* \"#utility.yul\":1613:1690   */\n      swap2\n      swap1\n      pop\n      jump\t// out\n        /* \"#utility.yul\":1696:1818   */\n    tag_46:\n        /* \"#utility.yul\":1769:1793   */\n      tag_73\n        /* \"#utility.yul\":1787:1792   */\n      dup2\n        /* \"#utility.yul\":1769:1793   */\n      tag_45\n      jump\t// in\n    tag_73:\n        /* \"#utility.yul\":1762:1767   */\n      dup2\n        /* \"#utility.yul\":1759:1794   */\n      eq\n        /* \"#utility.yul\":1749:1812   */\n      tag_74\n      jumpi\n        /* \"#utility.yul\":1808:1809   */\n      0x00\n        /* \"#utility.yul\":1805:1806   */\n      dup1\n        /* \"#utility.yul\":1798:1810   */\n      revert\n        /* \"#utility.yul\":1749:1812   */\n    tag_74:\n        /* \"#utility.yul\":1696:1818   */\n      pop\n      jump\t// out\n        /* \"#utility.yul\":1824:1963   */\n    tag_47:\n        /* \"#utility.yul\":1870:1875   */\n      0x00\n        /* \"#utility.yul\":1908:1914   */\n      dup2\n        /* \"#utility.yul\":1895:1915   */\n      calldataload\n        /* \"#utility.yul\":1886:1915   */\n      swap1\n      pop\n        /* \"#utility.yul\":1924:1957   */\n      tag_76\n        /* \"#utility.yul\":1951:1956   */\n      dup2\n        /* \"#utility.yul\":1924:1957   */\n      tag_46\n      jump\t// in\n    tag_76:\n        /* \"#utility.yul\":1824:1963   */\n      swap3\n      swap2\n      pop\n      pop\n      jump\t// out\n        /* \"#utility.yul\":1986:2696   */\n    tag_48:\n        /* \"#utility.yul\":2082:2087   */\n      0x00\n        /* \"#utility.yul\":2107:2188   */\n      tag_78\n        /* \"#utility.yul\":2123:2187   */\n      tag_79\n        /* \"#utility.yul\":2180:2186   */\n      dup5\n        /* \"#utility.yul\":2123:2187   */\n      tag_43\n      jump\t// in\n    tag_79:\n        /* \"#utility.yul\":2107:2188   */\n      tag_42\n      jump\t// in\n    tag_78:\n        /* \"#utility.yul\":2098:2188   */\n      swap1\n      pop\n        /* \"#utility.yul\":2208:2213   */\n      dup1\n        /* \"#utility.yul\":2237:2243   */\n      dup4\n        /* \"#utility.yul\":2230:2235   */\n      dup3\n        /* \"#utility.yul\":2223:2244   */\n      mstore\n        /* \"#utility.yul\":2271:2275   */\n      0x20\n        /* \"#utility.yul\":2264:2269   */\n      dup3\n        /* \"#utility.yul\":2260:2276   */\n      add\n        /* \"#utility.yul\":2253:2276   */\n      swap1\n      pop\n        /* \"#utility.yul\":2324:2328   */\n      0x20\n        /* \"#utility.yul\":2316:2322   */\n      dup5\n        /* \"#utility.yul\":2312:2329   */\n      mul\n        /* \"#utility.yul\":2304:2310   */\n      dup4\n        /* \"#utility.yul\":2300:2330   */\n      add\n        /* \"#utility.yul\":2353:2356   */\n      dup6\n        /* \"#utility.yul\":2345:2351   */\n      dup2\n        /* \"#utility.yul\":2342:2357   */\n      gt\n        /* \"#utility.yul\":2339:2461   */\n      iszero\n      tag_80\n      jumpi\n        /* \"#utility.yul\":2372:2451   */\n      tag_81\n      tag_44\n      jump\t// in\n    tag_81:\n        /* \"#utility.yul\":2339:2461   */\n    tag_80:\n        /* \"#utility.yul\":2487:2493   */\n      dup4\n        /* \"#utility.yul\":2470:2690   */\n    tag_82:\n        /* \"#utility.yul\":2504:2510   */\n      dup2\n        /* \"#utility.yul\":2499:2502   */\n      dup2\n        /* \"#utility.yul\":2496:2511   */\n      lt\n        /* \"#utility.yul\":2470:2690   */\n      iszero\n      tag_84\n      jumpi\n        /* \"#utility.yul\":2579:2582   */\n      dup1\n        /* \"#utility.yul\":2608:2645   */\n      tag_85\n        /* \"#utility.yul\":2641:2644   */\n      dup9\n        /* \"#utility.yul\":2629:2639   */\n      dup3\n        /* \"#utility.yul\":2608:2645   */\n      tag_47\n      jump\t// in\n    tag_85:\n        /* \"#utility.yul\":2603:2606   */\n      dup5\n        /* \"#utility.yul\":2596:2646   */\n      mstore\n        /* \"#utility.yul\":2675:2679   */\n      0x20\n        /* \"#utility.yul\":2670:2673   */\n      dup5\n        /* \"#utility.yul\":2666:2680   */\n      add\n        /* \"#utility.yul\":2659:2680   */\n      swap4\n      pop\n        /* \"#utility.yul\":2546:2690   */\n      pop\n        /* \"#utility.yul\":2530:2534   */\n      0x20\n        /* \"#utility.yul\":2525:2528   */\n      dup2\n        /* \"#utility.yul\":2521:2535   */\n      add\n        /* \"#utility.yul\":2514:2535   */\n      swap1\n      pop\n        /* \"#utility.yul\":2470:2690   */\n      jump(tag_82)\n    tag_84:\n        /* \"#utility.yul\":2474:2495   */\n      pop\n        /* \"#utility.yul\":2088:2696   */\n      pop\n      pop\n        /* \"#utility.yul\":1986:2696   */\n      swap4\n      swap3\n      pop\n      pop\n      pop\n      jump\t// out\n        /* \"#utility.yul\":2719:3089   */\n    tag_49:\n        /* \"#utility.yul\":2790:2795   */\n      0x00\n        /* \"#utility.yul\":2839:2842   */\n      dup3\n        /* \"#utility.yul\":2832:2836   */\n      0x1f\n        /* \"#utility.yul\":2824:2830   */\n      dup4\n        /* \"#utility.yul\":2820:2837   */\n      add\n        /* \"#utility.yul\":2816:2843   */\n      slt\n        /* \"#utility.yul\":2806:2928   */\n      tag_87\n      jumpi\n        /* \"#utility.yul\":2847:2926   */\n      tag_88\n      tag_38\n      jump\t// in\n    tag_88:\n        /* \"#utility.yul\":2806:2928   */\n    tag_87:\n        /* \"#utility.yul\":2964:2970   */\n      dup2\n        /* \"#utility.yul\":2951:2971   */\n      calldataload\n        /* \"#utility.yul\":2989:3083   */\n      tag_89\n        /* \"#utility.yul\":3079:3082   */\n      dup5\n        /* \"#utility.yul\":3071:3077   */\n      dup3\n        /* \"#utility.yul\":3064:3068   */\n      0x20\n        /* \"#utility.yul\":3056:3062   */\n      dup7\n        /* \"#utility.yul\":3052:3069   */\n      add\n        /* \"#utility.yul\":2989:3083   */\n      tag_48\n      jump\t// in\n    tag_89:\n        /* \"#utility.yul\":2980:3083   */\n      swap2\n      pop\n        /* \"#utility.yul\":2796:3089   */\n      pop\n        /* \"#utility.yul\":2719:3089   */\n      swap3\n      swap2\n      pop\n      pop\n      jump\t// out\n        /* \"#utility.yul\":3095:3634   */\n    tag_9:\n        /* \"#utility.yul\":3179:3185   */\n      0x00\n        /* \"#utility.yul\":3228:3230   */\n      0x20\n        /* \"#utility.yul\":3216:3225   */\n      dup3\n        /* \"#utility.yul\":3207:3214   */\n      dup5\n        /* \"#utility.yul\":3203:3226   */\n      sub\n        /* \"#utility.yul\":3199:3231   */\n      slt\n        /* \"#utility.yul\":3196:3315   */\n      iszero\n      tag_91\n      jumpi\n        /* \"#utility.yul\":3234:3313   */\n      tag_92\n      tag_36\n      jump\t// in\n    tag_92:\n        /* \"#utility.yul\":3196:3315   */\n    tag_91:\n        /* \"#utility.yul\":3382:3383   */\n      0x00\n        /* \"#utility.yul\":3371:3380   */\n      dup3\n        /* \"#utility.yul\":3367:3384   */\n      add\n        /* \"#utility.yul\":3354:3385   */\n      calldataload\n        /* \"#utility.yul\":3412:3430   */\n      0xffffffffffffffff\n        /* \"#utility.yul\":3404:3410   */\n      dup2\n        /* \"#utility.yul\":3401:3431   */\n      gt\n        /* \"#utility.yul\":3398:3515   */\n      iszero\n      tag_93\n      jumpi\n        /* \"#utility.yul\":3434:3513   */\n      tag_94\n      tag_37\n      jump\t// in\n    tag_94:\n        /* \"#utility.yul\":3398:3515   */\n    tag_93:\n        /* \"#utility.yul\":3539:3617   */\n      tag_95\n        /* \"#utility.yul\":3609:3616   */\n      dup5\n        /* \"#utility.yul\":3600:3606   */\n      dup3\n        /* \"#utility.yul\":3589:3598   */\n      dup6\n        /* \"#utility.yul\":3585:3607   */\n      add\n        /* \"#utility.yul\":3539:3617   */\n      tag_49\n      jump\t// in\n    tag_95:\n        /* \"#utility.yul\":3529:3617   */\n      swap2\n      pop\n        /* \"#utility.yul\":3325:3627   */\n      pop\n        /* \"#utility.yul\":3095:3634   */\n      swap3\n      swap2\n      pop\n      pop\n      jump\t// out\n        /* \"#utility.yul\":3640:3758   */\n    tag_50:\n        /* \"#utility.yul\":3727:3751   */\n      tag_97\n        /* \"#utility.yul\":3745:3750   */\n      dup2\n        /* \"#utility.yul\":3727:3751   */\n      tag_45\n      jump\t// in\n    tag_97:\n        /* \"#utility.yul\":3722:3725   */\n      dup3\n        /* \"#utility.yul\":3715:3752   */\n      mstore\n        /* \"#utility.yul\":3640:3758   */\n      pop\n      pop\n      jump\t// out\n        /* \"#utility.yul\":3764:3986   */\n    tag_12:\n        /* \"#utility.yul\":3857:3861   */\n      0x00\n        /* \"#utility.yul\":3895:3897   */\n      0x20\n        /* \"#utility.yul\":3884:3893   */\n      dup3\n        /* \"#utility.yul\":3880:3898   */\n      add\n        /* \"#utility.yul\":3872:3898   */\n      swap1\n      pop\n        /* \"#utility.yul\":3908:3979   */\n      tag_99\n        /* \"#utility.yul\":3976:3977   */\n      0x00\n        /* \"#utility.yul\":3965:3974   */\n      dup4\n        /* \"#utility.yul\":3961:3978   */\n      add\n        /* \"#utility.yul\":3952:3958   */\n      dup5\n        /* \"#utility.yul\":3908:3979   */\n      tag_50\n      jump\t// in\n    tag_99:\n        /* \"#utility.yul\":3764:3986   */\n      swap3\n      swap2\n      pop\n      pop\n      jump\t// out\n        /* \"#utility.yul\":3992:4321   */\n    tag_15:\n        /* \"#utility.yul\":4051:4057   */\n      0x00\n        /* \"#utility.yul\":4100:4102   */\n      0x20\n        /* \"#utility.yul\":4088:4097   */\n      dup3\n        /* \"#utility.yul\":4079:4086   */\n      dup5\n        /* \"#utility.yul\":4075:4098   */\n      sub\n        /* \"#utility.yul\":4071:4103   */\n      slt\n        /* \"#utility.yul\":4068:4187   */\n      iszero\n      tag_101\n      jumpi\n        /* \"#utility.yul\":4106:4185   */\n      tag_102\n      tag_36\n      jump\t// in\n    tag_102:\n        /* \"#utility.yul\":4068:4187   */\n    tag_101:\n        /* \"#utility.yul\":4226:4227   */\n      0x00\n        /* \"#utility.yul\":4251:4304   */\n      tag_103\n        /* \"#utility.yul\":4296:4303   */\n      dup5\n        /* \"#utility.yul\":4287:4293   */\n      dup3\n        /* \"#utility.yul\":4276:4285   */\n      dup6\n        /* \"#utility.yul\":4272:4294   */\n      add\n        /* \"#utility.yul\":4251:4304   */\n      tag_47\n      jump\t// in\n    tag_103:\n        /* \"#utility.yul\":4241:4304   */\n      swap2\n      pop\n        /* \"#utility.yul\":4197:4314   */\n      pop\n        /* \"#utility.yul\":3992:4321   */\n      swap3\n      swap2\n      pop\n      pop\n      jump\t// out\n        /* \"#utility.yul\":4327:4417   */\n    tag_51:\n        /* \"#utility.yul\":4361:4368   */\n      0x00\n        /* \"#utility.yul\":4404:4409   */\n      dup2\n        /* \"#utility.yul\":4397:4410   */\n      iszero\n        /* \"#utility.yul\":4390:4411   */\n      iszero\n        /* \"#utility.yul\":4379:4411   */\n      swap1\n      pop\n        /* \"#utility.yul\":4327:4417   */\n      swap2\n      swap1\n      pop\n      jump\t// out\n        /* \"#utility.yul\":4423:4532   */\n    tag_52:\n        /* \"#utility.yul\":4504:4525   */\n      tag_106\n        /* \"#utility.yul\":4519:4524   */\n      dup2\n        /* \"#utility.yul\":4504:4525   */\n      tag_51\n      jump\t// in\n    tag_106:\n        /* \"#utility.yul\":4499:4502   */\n      dup3\n        /* \"#utility.yul\":4492:4526   */\n      mstore\n        /* \"#utility.yul\":4423:4532   */\n      pop\n      pop\n      jump\t// out\n        /* \"#utility.yul\":4538:4748   */\n    tag_21:\n        /* \"#utility.yul\":4625:4629   */\n      0x00\n        /* \"#utility.yul\":4663:4665   */\n      0x20\n        /* \"#utility.yul\":4652:4661   */\n      dup3\n        /* \"#utility.yul\":4648:4666   */\n      add\n        /* \"#utility.yul\":4640:4666   */\n      swap1\n      pop\n        /* \"#utility.yul\":4676:4741   */\n      tag_108\n        /* \"#utility.yul\":4738:4739   */\n      0x00\n        /* \"#utility.yul\":4727:4736   */\n      dup4\n        /* \"#utility.yul\":4723:4740   */\n      add\n        /* \"#utility.yul\":4714:4720   */\n      dup5\n        /* \"#utility.yul\":4676:4741   */\n      tag_52\n      jump\t// in\n    tag_108:\n        /* \"#utility.yul\":4538:4748   */\n      swap3\n      swap2\n      pop\n      pop\n      jump\t// out\n\n    auxdata: 0xa2646970667358221220d5597d541a702030c160a4e3547ccfd78bf0676db5f58712d126d29dfa842dbd64736f6c63430008120033\n}\n",
				"bytecode": {
					"linkReferences": {},
					"object": "608060405234801561001057600080fd5b5061044b806100206000396000f3fe608060405234801561001057600080fd5b506004361061004c5760003560e01c80630194db8e146100515780630a874df6146100815780631b2e6c93146100b157806386b714e2146100cf575b600080fd5b61006b6004803603810190610066919061033f565b6100ed565b6040516100789190610397565b60405180910390f35b61009b600480360381019061009691906103b2565b61011c565b6040516100a89190610397565b60405180910390f35b6100b9610159565b6040516100c691906103fa565b60405180910390f35b6100d7610196565b6040516100e49190610397565b60405180910390f35b6000815160005b818110156101155760208102602085010151830192506001810190506100f4565b5050919050565b6000816000811461013c5760018114610145576002811461014e57610153565b605a9150610153565b605b9150610153565b605c91505b50919050565b60003373ffffffffffffffffffffffffffffffffffffffff1660a042901b176000819055506000805490508060601b60601c905080331491505090565b60005481565b6000604051905090565b600080fd5b600080fd5b600080fd5b6000601f19601f8301169050919050565b7f4e487b7100000000000000000000000000000000000000000000000000000000600052604160045260246000fd5b6101fe826101b5565b810181811067ffffffffffffffff8211171561021d5761021c6101c6565b5b80604052505050565b600061023061019c565b905061023c82826101f5565b919050565b600067ffffffffffffffff82111561025c5761025b6101c6565b5b602082029050602081019050919050565b600080fd5b6000819050919050565b61028581610272565b811461029057600080fd5b50565b6000813590506102a28161027c565b92915050565b60006102bb6102b684610241565b610226565b905080838252602082019050602084028301858111156102de576102dd61026d565b5b835b8181101561030757806102f38882610293565b8452602084019350506020810190506102e0565b5050509392505050565b600082601f830112610326576103256101b0565b5b81356103368482602086016102a8565b91505092915050565b600060208284031215610355576103546101a6565b5b600082013567ffffffffffffffff811115610373576103726101ab565b5b61037f84828501610311565b91505092915050565b61039181610272565b82525050565b60006020820190506103ac6000830184610388565b92915050565b6000602082840312156103c8576103c76101a6565b5b60006103d684828501610293565b91505092915050565b60008115159050919050565b6103f4816103df565b82525050565b600060208201905061040f60008301846103eb565b9291505056fea2646970667358221220d5597d541a702030c160a4e3547ccfd78bf0676db5f58712d126d29dfa842dbd64736f6c63430008120033",
					"opcodes": "PUSH1 0x80 PUSH1 0x40 MSTORE CALLVALUE DUP1 ISZERO PUSH2 0x10 JUMPI PUSH1 0x0 DUP1 REVERT JUMPDEST POP PUSH2 0x44B DUP1 PUSH2 0x20 PUSH1 0x0 CODECOPY PUSH1 0x0 RETURN INVALID PUSH1 0x80 PUSH1 0x40 MSTORE CALLVALUE DUP1 ISZERO PUSH2 0x10 JUMPI PUSH1 0x0 DUP1 REVERT JUMPDEST POP PUSH1 0x4 CALLDATASIZE LT PUSH2 0x4C JUMPI PUSH1 0x0 CALLDATALOAD PUSH1 0xE0 SHR DUP1 PUSH4 0x194DB8E EQ PUSH2 0x51 JUMPI DUP1 PUSH4 0xA874DF6 EQ PUSH2 0x81 JUMPI DUP1 PUSH4 0x1B2E6C93 EQ PUSH2 0xB1 JUMPI DUP1 PUSH4 0x86B714E2 EQ PUSH2 0xCF JUMPI JUMPDEST PUSH1 0x0 DUP1 REVERT JUMPDEST PUSH2 0x6B PUSH1 0x4 DUP1 CALLDATASIZE SUB DUP2 ADD SWAP1 PUSH2 0x66 SWAP2 SWAP1 PUSH2 0x33F JUMP JUMPDEST PUSH2 0xED JUMP JUMPDEST PUSH1 0x40 MLOAD PUSH2 0x78 SWAP2 SWAP1 PUSH2 0x397 JUMP JUMPDEST PUSH1 0x40 MLOAD DUP1 SWAP2 SUB SWAP1 RETURN JUMPDEST PUSH2 0x9B PUSH1 0x4 DUP1 CALLDATASIZE SUB DUP2 ADD SWAP1 PUSH2 0x96 SWAP2 SWAP1 PUSH2 0x3B2 JUMP JUMPDEST PUSH2 0x11C JUMP JUMPDEST PUSH1 0x40 MLOAD PUSH2 0xA8 SWAP2 SWAP1 PUSH2 0x397 JUMP JUMPDEST PUSH1 0x40 MLOAD DUP1 SWAP2 SUB SWAP1 RETURN JUMPDEST PUSH2 0xB9 PUSH2 0x159 JUMP JUMPDEST PUSH1 0x40 MLOAD PUSH2 0xC6 SWAP2 SWAP1 PUSH2 0x3FA JUMP JUMPDEST PUSH1 0x40 MLOAD DUP1 SWAP2 SUB SWAP1 RETURN JUMPDEST PUSH2 0xD7 PUSH2 0x196 JUMP JUMPDEST PUSH1 0x40 MLOAD PUSH2 0xE4 SWAP2 SWAP1 PUSH2 0x397 JUMP JUMPDEST PUSH1 0x40 MLOAD DUP1 SWAP2 SUB SWAP1 RETURN JUMPDEST PUSH1 0x0 DUP2 MLOAD PUSH1 0x0 JUMPDEST DUP2 DUP2 LT ISZERO PUSH2 0x115 JUMPI PUSH1 0x20 DUP2 MUL PUSH1 0x20 DUP6 ADD ADD MLOAD DUP4 ADD SWAP3 POP PUSH1 0x1 DUP2 ADD SWAP1 POP PUSH2 0xF4 JUMP JUMPDEST POP POP SWAP2 SWAP1 POP JUMP JUMPDEST PUSH1 0x0 DUP2 PUSH1 0x0 DUP2 EQ PUSH2 0x13C JUMPI PUSH1 0x1 DUP2 EQ PUSH2 0x145 JUMPI PUSH1 0x2 DUP2 EQ PUSH2 0x14E JUMPI PUSH2 0x153 JUMP JUMPDEST PUSH1 0x5A SWAP2 POP PUSH2 0x153 JUMP JUMPDEST PUSH1 0x5B SWAP2 POP PUSH2 0x153 JUMP JUMPDEST PUSH1 0x5C SWAP2 POP JUMPDEST POP SWAP2 SWAP1 POP JUMP JUMPDEST PUSH1 0x0 CALLER PUSH20 0xFFFFFFFFFFFFFFFFFFFFFFFFFFFFFFFFFFFFFFFF AND PUSH1 0xA0 TIMESTAMP SWAP1 SHL OR PUSH1 0x0 DUP2 SWAP1 SSTORE POP PUSH1 0x0 DUP1 SLOAD SWAP1 POP DUP1 PUSH1 0x60 SHL PUSH1 0x60 SHR SWAP1 POP DUP1 CALLER EQ SWAP2 POP POP SWAP1 JUMP JUMPDEST PUSH1 0x0 SLOAD DUP2 JUMP JUMPDEST PUSH1 0x0 PUSH1 0x40 MLOAD SWAP1 POP SWAP1 JUMP JUMPDEST PUSH1 0x0 DUP1 REVERT JUMPDEST PUSH1 0x0 DUP1 REVERT JUMPDEST PUSH1 0x0 DUP1 REVERT JUMPDEST PUSH1 0x0 PUSH1 0x1F NOT PUSH1 0x1F DUP4 ADD AND SWAP1 POP SWAP2 SWAP1 POP JUMP JUMPDEST PUSH32 0x4E487B7100000000000000000000000000000000000000000000000000000000 PUSH1 0x0 MSTORE PUSH1 0x41 PUSH1 0x4 MSTORE PUSH1 0x24 PUSH1 0x0 REVERT JUMPDEST PUSH2 0x1FE DUP3 PUSH2 0x1B5 JUMP JUMPDEST DUP2 ADD DUP2 DUP2 LT PUSH8 0xFFFFFFFFFFFFFFFF DUP3 GT OR ISZERO PUSH2 0x21D JUMPI PUSH2 0x21C PUSH2 0x1C6 JUMP JUMPDEST JUMPDEST DUP1 PUSH1 0x40 MSTORE POP POP POP JUMP JUMPDEST PUSH1 0x0 PUSH2 0x230 PUSH2 0x19C JUMP JUMPDEST SWAP1 POP PUSH2 0x23C DUP3 DUP3 PUSH2 0x1F5 JUMP JUMPDEST SWAP2 SWAP1 POP JUMP JUMPDEST PUSH1 0x0 PUSH8 0xFFFFFFFFFFFFFFFF DUP3 GT ISZERO PUSH2 0x25C JUMPI PUSH2 0x25B PUSH2 0x1C6 JUMP JUMPDEST JUMPDEST PUSH1 0x20 DUP3 MUL SWAP1 POP PUSH1 0x20 DUP2 ADD SWAP1 POP SWAP2 SWAP1 POP JUMP JUMPDEST PUSH1 0x0 DUP1 REVERT JUMPDEST PUSH1 0x0 DUP2 SWAP1 POP SWAP2 SWAP1 POP JUMP JUMPDEST PUSH2 0x285 DUP2 PUSH2 0x272 JUMP JUMPDEST DUP2 EQ PUSH2 0x290 JUMPI PUSH1 0x0 DUP1 REVERT JUMPDEST POP JUMP JUMPDEST PUSH1 0x0 DUP2 CALLDATALOAD SWAP1 POP PUSH2 0x2A2 DUP2 PUSH2 0x27C JUMP JUMPDEST SWAP3 SWAP2 POP POP JUMP JUMPDEST PUSH1 0x0 PUSH2 0x2BB PUSH2 0x2B6 DUP5 PUSH2 0x241 JUMP JUMPDEST PUSH2 0x226 JUMP JUMPDEST SWAP1 POP DUP1 DUP4 DUP3 MSTORE PUSH1 0x20 DUP3 ADD SWAP1 POP PUSH1 0x20 DUP5 MUL DUP4 ADD DUP6 DUP2 GT ISZERO PUSH2 0x2DE JUMPI PUSH2 0x2DD PUSH2 0x26D JUMP JUMPDEST JUMPDEST DUP4 JUMPDEST DUP2 DUP2 LT ISZERO PUSH2 0x307 JUMPI DUP1 PUSH2 0x2F3 DUP9 DUP3 PUSH2 0x293 JUMP JUMPDEST DUP5 MSTORE PUSH1 0x20 DUP5 ADD SWAP4 POP POP PUSH1 0x20 DUP2 ADD SWAP1 POP PUSH2 0x2E0 JUMP JUMPDEST POP POP POP SWAP4 SWAP3 POP POP POP JUMP JUMPDEST PUSH1 0x0 DUP3 PUSH1 0x1F DUP4 ADD SLT PUSH2 0x326 JUMPI PUSH2 0x325 PUSH2 0x1B0 JUMP JUMPDEST JUMPDEST DUP2 CALLDATALOAD PUSH2 0x336 DUP5 DUP3 PUSH1 0x20 DUP7 ADD PUSH2 0x2A8 JUMP JUMPDEST SWAP2 POP POP SWAP3 SWAP2 POP POP JUMP JUMPDEST PUSH1 0x0 PUSH1 0x20 DUP3 DUP5 SUB SLT ISZERO PUSH2 0x355 JUMPI PUSH2 0x354 PUSH2 0x1A6 JUMP JUMPDEST JUMPDEST PUSH1 0x0 DUP3 ADD CALLDATALOAD PUSH8 0xFFFFFFFFFFFFFFFF DUP2 GT ISZERO PUSH2 0x373 JUMPI PUSH2 0x372 PUSH2 0x1AB JUMP JUMPDEST JUMPDEST PUSH2 0x37F DUP5 DUP3 DUP6 ADD PUSH2 0x311 JUMP JUMPDEST SWAP2 POP POP SWAP3 SWAP2 POP POP JUMP JUMPDEST PUSH2 0x391 DUP2 PUSH2 0x272 JUMP JUMPDEST DUP3 MSTORE POP POP JUMP JUMPDEST PUSH1 0x0 PUSH1 0x20 DUP3 ADD SWAP1 POP PUSH2 0x3AC PUSH1 0x0 DUP4 ADD DUP5 PUSH2 0x388 JUMP JUMPDEST SWAP3 SWAP2 POP POP JUMP JUMPDEST PUSH1 0x0 PUSH1 0x20 DUP3 DUP5 SUB SLT ISZERO PUSH2 0x3C8 JUMPI PUSH2 0x3C7 PUSH2 0x1A6 JUMP JUMPDEST JUMPDEST PUSH1 0x0 PUSH2 0x3D6 DUP5 DUP3 DUP6 ADD PUSH2 0x293 JUMP JUMPDEST SWAP2 POP POP SWAP3 SWAP2 POP POP JUMP JUMPDEST PUSH1 0x0 DUP2 ISZERO ISZERO SWAP1 POP SWAP2 SWAP1 POP JUMP JUMPDEST PUSH2 0x3F4 DUP2 PUSH2 0x3DF JUMP JUMPDEST DUP3 MSTORE POP POP JUMP JUMPDEST PUSH1 0x0 PUSH1 0x20 DUP3 ADD SWAP1 POP PUSH2 0x40F PUSH1 0x0 DUP4 ADD DUP5 PUSH2 0x3EB JUMP JUMPDEST SWAP3 SWAP2 POP POP JUMP INVALID LOG2 PUSH5 0x6970667358 0x22 SLT KECCAK256 0xD5 MSIZE PUSH30 0x541A702030C160A4E3547CCFD78BF0676DB5F58712D126D29DFA842DBD64 PUSH20 0x6F6C634300081200330000000000000000000000 "
				},
				"gasEstimates": {
					"creation": {
						"codeDepositCost": "219800",
						"executionCost": "263",
						"totalCost": "220063"
					},
					"external": {
						"compareAddress()": "24636",
						"lookup(uint256)": "infinite",
						"s()": "2473",
						"sum(uint256[])": "infinite"
					}
				},
				"methodIdentifiers": {
					"compareAddress()": "1b2e6c93",
					"lookup(uint256)": "0a874df6",
					"s()": "86b714e2",
					"sum(uint256[])": "0194db8e"
				}
			},
			"storageLayout": {
				"storage": [
					{
						"astId": 3,
						"contract": "yul/firstYul.sol:FirstYul",
						"label": "s",
						"offset": 0,
						"slot": "0",
						"type": "t_uint256"
					}
				],
				"types": {
					"t_uint256": {
						"encoding": "inplace",
						"label": "uint256",
						"numberOfBytes": "32"
					}
				}
			},
			"userdoc": {
				"kind": "user",
				"methods": {},
				"version": 1
			}
		}
	}
}